:020000042000DA
:10000000971100609381816897720000938202A427
:1000100073905230170100E01301C1FE970000E019
:10002000938040FE638300008290732540F18145F8
:1000300001460D20970000E09380C0FC6383000020
:100040008290970200009382C20073905230032383
:100050000000F5BF068497110060938121631701AA
:100060000160130121FA137101FF01E19782000081
:1000700093824234170300601303C3F897130060A0
:10008000938303E4638C6200635A730003A5020048
:1000900091022320A3001103E34A73FE978200001C
:1000A00093824231170300601303C3F59703006086
:1000B000938343F5638C6200635A730003A50200C7
:1000C00091022320A3001103E34A73FE171300607B
:1000D000130303DF972300609383C3EF6357730019
:1000E000232003001103E34D73FE11C2029617751E
:1000F000000013052598EF605015EF60101B0545B3
:10010000978500009385452817860000130606286A
:0C011000C52AEF603014A280828082803B
:10020000397122CC06CE00105CC84CC010C454C456
:1002100018C8232C0401232E1401B54763ECA7064C
:10022000B77700209387477C0A053E9518419307CE
:1002300044002326F4FE48400287EF205006F24097
:10024000624421618280EF207007D5BFEF20300922
:10025000FDB7EF20F00AE5B7EF20B00CCDB7EF20E7
:10026000500EF1BFEF20900FD9BFEF20D010C1BFCB
:10027000EF207012E9B7EF203014D1B7EF20F0155E
:100280007DBFEF20901765BFEF20301F4DBFEF20DF
:08029000902575B7014565B723
:10030000011122CC06CE26CA4AC84EC652C456C2D5
:100310000010735050301121B7750020938585026D
:100320000145EF407007B77500209385050401452E
:10033000EF409006B704001083A7C40B37B927D04D
:100340001D0963942705B77500209385C5050145F0
:10035000EF40900423AE040AEF20F04CB775002064
:100360009385C5060145EF4030038146014693055C
:10037000F0075145EF20905AD92C8146014681451E
:100380005145EF20B059E124CDB7EF20D049814647
:100390001306F00781455145EF20505883A9C40B3F
:1003A00023AE240B6D24EF20104823AE340B03A79B
:1003B000C40BB7C7D0BE938707ED6308F71083A7B8
:1003C000C40B63842711B7F751009387E71523A661
:1003D000F4145D4723A0E41223A6F41423A2E4122C
:1003E00023A6F41423A4E41223A6F41423A6E412EF
:1003F00023A6F4141307000323A8E41223A6F4147D
:1004000023AAE41223A6F41423ACE41223A6F414C2
:100410003709001023AEE412130AC91493840410A0
:10042000BE8A93060003130709122320FA0094C022
:100430009104E39CE4FEB7C7D0BE938707ED232E5B
:10044000F90AB7750020232209089385850901451B
:10045000EF408074832549080145B7790020EF40BB
:10046000F02C938509090145EF4000738325C90BE2
:100470000145B7740020EF40702B93858439014506
:10048000EF40807123205A01232409145145EF3095
:100490004013B77500209385850A0145EF40C06F72
:1004A000832549080145EF407028938509090145D6
:1004B000EF40806E8325C90B0145EF4030279385BF
:1004C00084390145EF40406DA1A0B77500209385A8
:1004D00045080145EF40406CB704001083A544086F
:1004E0000145EF40B024B77500209385050901450B
:1004F000EF40806A83A5C40B0145EF403023B775F8
:100500000020938585390145EF40006923AE040A38
:10051000B77500209385450B0145EF40E067B704B0
:10052000001083A504140145EF405020B77500204A
:100530009385050C0145EF40206683A544140145D1
:10054000EF40D01EB77500209385850C0145EF4024
:10055000A06483A544080145EF40501DB7750020F5
:10056000938505090145EF40206383A5C40B014530
:10057000EF40D01BB7750020938585390145EF40CA
:10058000A061EF40306CEF30F000056513074006C6
:10059000814613064006814513051580EF40B05A89
:1005A0001DC12945EF30E001112281450145EF20B1
:1005B000403D635A0500B77500209385050D014540
:1005C000EF40805D01A0EF30407AB707001023A212
:1005D000070823AE070AB70701208297F24062445A
:1005E00037D51200D2444249B249224A924A1305F1
:1005F000756805618280970700E09387A7A099C777
:1006000017650000130505476F6020448280411183
:1006100022C63705008000089307455D9C5B99C79B
:1006200032441305455D41016F60E06B3244410186
:100630008280411122C60008370500809307455D7E
:1006400032448C5B1305455D41016F60101A011146
:1006500022CE0010B7C7000203A787FF83A7C7FFFA
:1006600037C800022320E4FE2322F4FE032504FE03
:100670009167832544FEAA9733B7A700B306B70056
:100680002324F4FE2326D4FE032688FF8326C8FFF6
:10069000032784FE8327C4FE63E9F6006394D70032
:1006A0006365E600724405618280F9BF411106C6A8
:1006B00022C40008EF40C036EF4070770145EF409C
:1006C000F07AB727008023A4A7FCEF40703BEF30FF
:1006D000001FEF40B0360565130585BBEF40504461
:1006E000EF405056EF20F0242545EF20B05A6165C9
:1006F0001305056AEF40F06937E5F50513050510A8
:10070000EF304016EF4090332244B24037250600C8
:10071000130505A841016F40D067411106C622C4E8
:100720000008B727011023AC070223A8070023A65F
:10073000070023A0070423A40700B7F751003707D9
:1007400000109387E7155CCF23200700EF40402D72
:10075000EF401033EF30A01637E5F505130505100F
:10076000EF304010EF20F01C2244B24041016F40B6
:10077000F02C411122C6000869759385818B0147D1
:100780000505930800103A86A146814733C8C70083
:1007900013781800858363050800A98FC207C183F9
:1007A000FD160582C2064206C1824182E5F20507B6
:1007B00042072390F50041838905E31617FD324473
:1007C000B717008005472380E7EC410182800111C3
:1007D00022CC26CA06CE0010B717008083C707ECCC
:1007E000AA8491E72326B4FE69378325C4FE814796
:1007F00091C4A6951387818B6398B400F24062443C
:10080000D2443E850561828003C5040093D68700EB
:100810008504A98F93F7F70F8607BA9783D7070048
:10082000B58FD9BF130101D32324812C2322912C0E
:10083000232E312B232C412B232A512B2328612BB0
:100840002326712B2326112C2320212D2324812BB9
:100850002322912B2320A12B800DB7750020938597
:1008600085390145EF404033377A00208544B77A17
:100870000020A549377B0020B77B00200145EF20F1
:10088000701B9305CA0F0145EF400031854726C014
:1008900081480148054785465546930584E701454B
:1008A000EF40203A9307C5FE2A8963EEF400034720
:1008B000F4E79307D0026318F700034724E893078F
:1008C000F0056303F7309385CA100145EF40C02C53
:1008D00001499307C9FEE3E3F4FAB7750020130654
:1008E00000029385C539130504EDEF40D07D130652
:1008F00000028145130504EFEF50000BB77500208F
:1009000093850504130504EFEF502025130600021C
:100910008145130504F1EF502009B7750020938538
:10092000C51B130504F1EF504023835784E731467C
:100930008145130564F32318F4F2EF50E0061546E1
:100940009305A4E7130524F3EF40F077834704E809
:10095000130544E6A30204E62302F4E6EF40F06246
:10096000834714E82301A4F4130584E6A301F4F4F7
:10097000834734E8A30404E681442304F4E6EF400B
:10098000D060834744E82305A4F4130584E62304D8
:10099000F4E6EF40905F834754E8A305A4F4130501
:1009A00084E62304F4E6EF40505E834764E82306C0
:1009B000A4F4130584E62304F4E6EF40105DA306D7
:1009C000A4F4D1476315F900230204F48544130904
:1009D00084E795498347F900130584E60509230454
:1009E000F4E6EF40905A930704EDA6978504238A16
:1009F000A70693F7F40FE3FFF9FCFD57231FF4FA62
:100A00002310F4FC2311F4FC377900209307000431
:100A10002328F4E6130A803E114B1309891D954BD8
:100A2000514C930904E7930404E9FD5A0545EF206E
:100A3000700085473ED402D65AD24AD002CE02CCAC
:100A40005ECA62C802C64EC426C202C081480148BE
:100A50008147014781460146814505457D1AEF30B2
:100A6000206163040A00E31355FD93070004232863
:100A7000F4E605459307F0032306F4E6EF20807BB8
:100A800085473ED491473ED295473ECAD1473EC89E
:100A900002D681474AD002CE02CC02C64EC426C23C
:100AA00002C0814801480147814605469305C4E6D6
:100AB00013055002EF30C05BFD57631AF514A6878B
:100AC00001451307200283C6070005051375F50FBE
:100AD0008507E39AE6FE9307F002014A63E5A70261
:100AE0002695130A04ED930A64ED4146930544E705
:100AF000EF50E0782307AA0E032544E7050A050511
:100B0000E3155AFF014A8D679387D713FD5A130DDA
:100B1000000405452316F4E6232254FD231454FD56
:100B20002328A4E7EF2000719307800C854C114C1B
:100B3000954B3EC802D666D462D24AD002CE02CCD1
:100B40005ECA02C64EC426C202C08148014881471F
:100B50000147814609469305C4E613054004EF307A
:100B600020512A8B630E550BB775002093854520C5
:100B70000145EF406002795A930504ED1306001019
:100B8000130504D6EF403054130504D6EF10D06A95
:100B90008320C12C0324812C52858324412C0329DA
:100BA000012C8329C12B032A812B832A412B032B60
:100BB000012B832BC12A032C812A832C412A032D4C
:100BC000012A1301012D8280834704E8938707FDE2
:100BD00093F7F70F63F8F90093854B130145EF3056
:100BE000B07B0149AD47E3D627CF130704FD3E97FD
:100BF000034787EA130707FD1377F70F63F5E9004B
:100C00009305CB16D9B1850793F7F70FE9BFB775F1
:100C100000209385051E0145EF301078795AE5B51F
:100C20009307F00305452306F4E62328A4E7EF2005
:100C30006060D1473EC802D666D462D24AD002CEA6
:100C400002CC5ECA02C64EC426C202C08148014818
:100C500081470147814605469305C4E613055004C4
:100C6000EF300041E31265F1A6870145130720022A
:100C700083C6070005051375F50F8507E39AE6FEA1
:100C80009307F00263E4A7022695930A04ED130B81
:100C900064ED4146930544E7EF50605E238AAA0E57
:100CA000032544E7850A0505E3956AFF8D67938769
:100CB000D7032316F4E60545930700042328F4E63A
:100CC000EF20405785473ED491473ED295473ECAD4
:100CD0009307800C3EC802D681474AD002CE02CC90
:100CE00002C64EC426C202C081480148014781465F
:100CF00009469305C4E613054004EF306037FD57FD
:100D0000E30CF5E695B5411122C60008324437756B
:100D100000201305450F41016F103070411122C4AE
:100D200006C60008377500201305C50EEF10F06EDB
:100D30002244B24041657D1541016F1010760111CA
:100D400022CC26CA4AC84EC652C406CE0010AA8972
:100D50008144154A1949B387990083C50700814624
:100D600001460145EF40A010638744019305A003AD
:100D70000145EF3010548504E39F24FDF2406244A6
:100D8000D2444249B249224A05618280411122C4BB
:100D900026C24AC006C60008AA843309B500639873
:100DA0002401B2402244924402494101828083C519
:100DB000040001458504EF402003D5B7130101CAA3
:100DC000232E1134232C8134232A91348016232896
:100DD0002135232631352324413523225135232043
:100DE0006135130504CEEF10B049B7750020938527
:100DF00085220145EF30505AB775002093850524B0
:100E00000145EF30705913060002930504CE0145E9
:100E100037790020EF30D05D930589390145EF30F7
:100E2000B057B77500209385C5240145EF30D056E3
:100E300013060002930504D00145EF30705B930563
:100E400089390145EF305055B77500209385452607
:100E50000145EF30705413060002930504D201459A
:100E6000EF301059930589390145EF30F052B775CD
:100E70000020938585270145EF30105209469305E0
:100E800004D40145EF30D056930589390145EF3040
:100E9000B050B7750020938585280145EF30D04FBD
:100EA0004146930524D40145EF3090549305893988
:100EB0000145EF30704EB77500209385C529014577
:100EC000EF30904D834524D50145930404DEEF3087
:100ED000B071930589390145EF30104CB77500208A
:100EE0009385C52A0145EF30304B834534D5014504
:100EF000EF30303C930589390145EF30F049B77543
:100F000000209385052C0145EF30104999451305C4
:100F100044D5AD3D930589390145EF30F047B775AC
:100F200000209385052D0145EF30104789451305B5
:100F3000C4D5A93D9305F0020145EF3090378945AE
:100F40001305A4D5A135930589390145EF30D04467
:100F5000B77500209385852E0145EF30F0431305CA
:100F6000E4DCF13B930589390145EF30F042B77578
:100F700000209385C52F0145EF301042130544DD55
:100F80007D3B930589390145EF301041B77500204D
:100F9000938505310145EF30304011469305A4DDBE
:100FA0000145EF30F044930589390145EF30D03EDB
:100FB000B7750020938505320145EF30F03D83552C
:100FC000E4DD0145EF305062930589390145EF308A
:100FD000B03C930589390145EF30103CB7750020CE
:100FE0009385C5320145EF30303B9307001005452E
:100FF000232EF4CCEF20002485473ED491473ED2E7
:10100000B77700209387871D3ED095473ECAD147CA
:101010003EC89307C4CD3EC402D6814702CE02CC5F
:1010200002C626C202C081480148014781460146E6
:1010300081451545EF30C003FD57631AF51E1306B1
:1010400000108145130504EEEF401016B77500201F
:10105000938585342685EF40D0709305A003AA8A36
:10106000EF40101F130A1500B3045A4193F9F40F0F
:101070004E86D685130504EEEF40F004930704FE78
:10108000B7750020CE9793854535930900025285A8
:10109000238037F18504EF40D06C330B4541930733
:1010A00004EE93F4F40FAA8A1376FB0F33859700AE
:1010B000D285EF4050019305A0035685EF405019AB
:1010C000130A1500DA94930704EE330B5A4193F494
:1010D000F40F1376FB0FD68533859700EF40A07E83
:1010E000DA9493F4F40F930704FEB7750020A697E3
:1010F000938505365285238037F18504EF4070666D
:10110000330B4541930704EE93F4F40F1376FB0F72
:10111000AA8AD28533859700EF40E07AB775002020
:10112000938585365685EF40D0639305A003DA9406
:101130002A8BEF40F011130A1500B30A6A41930796
:1011400004EE93F4F40F13F6FA0FDA853385970063
:10115000EF406077D69493F4F40F930704FEB775CD
:101160000020A6979385C5365285238037F18504E4
:10117000EF40305F330B4541930704EE93F4F40FD7
:10118000AA8A1376FB0F33859700D285EF40A073B0
:101190009305A0035685EF40B00B130A1500DA94AF
:1011A000930704EE93F4F40F330B5A411376FB0FBD
:1011B00033859700D685EF400071DA9493F4F40FED
:1011C000930704FEB7750020A6979385453752858F
:1011D000238037F18504EF40D058930704EE33069F
:1011E000454193F4F40F1376F60FD28533859700BB
:1011F000EF40606D930504EE0145EF30F019930563
:1012000089390145EF3050198320C13503248135D8
:1012100083244135032901358329C134032A8134CC
:10122000832A4134032B0134130101368280B775C0
:10123000002093858537F1B7411106C622C426C226
:101240000008B14513052003EF40C02DAA84B54521
:1012500013052003EF40002D2205458DB2402244A6
:1012600042054185218592446505410182804111F5
:1012700006C622C426C200084AC09305800813058A
:101280002005EF40202AAA84930590081305200525
:10129000EF4040292A899305A00813052005EF4057
:1012A0006028420522093369A9009305B008130597
:1012B0002005EF402027B2402244B3649900620524
:1012C000458D0249924441018280011122CC26CAF7
:1012D0004AC84EC652C406CE00108144B7190080D9
:1012E000371A00801309F00203A589EC83A5C9EC25
:1012F0002686EF500003058901C981461306F007D1
:1013000081452685EF10906103250AED83254AED7E
:101310002686EF500001058901C9814601469305E3
:10132000F0072685EF10905F8504E39F24FBF240D1
:101330006244D2444249B249224A05618280411145
:1013400022C426C206C600082A86B71400800545B6
:101350008145EF40B07F938484EC9C40B2402244AE
:101360005D8DDC4088C01345F5FFDD8DB71700802B
:10137000938707ED9843CCC093C5F5FF798DD8438B
:1013800088C39244F98DCCC341018280411122C4AB
:1013900026C206C600082A86B71400800545814586
:1013A000EF40D07A938404ED9C40B24022445D8D9E
:1013B000DC4088C01345F5FFDD8DB71700809387AB
:1013C00087EC9843CCC093C5F5FF798DD84388C38B
:1013D0009244F98DCCC3410182805D7186C6A2C45E
:1013E00052DC800856DAA6C2CAC04EDE5AD85ED693
:1013F00062D466D26AD06ECE2A8A0145AE8AEF30B8
:10140000B01EB77500209385855A0145EF30C0782E
:10141000BD451305A003EF40E0109307F00F9305BF
:10142000F0046303F500BD451305C003EF40800FD2
:101430009307D003AA896306F50093070004631895
:10144000F53A1306C008930500061305C003EF40E4
:10145000E0070946930510061305C003EF40000797
:101460004146930520061305C003EF4020061305EF
:10147000A005EF2000151549014B814B81449305D0
:1014800070061305C003EF40E00921896DD993056B
:1014900080061305C003EF40E0082A8C93059006F0
:1014A0001305C003EF40000822053365850142059E
:1014B00041859305A006AA941305C003EF4080065A
:1014C0002A8C9305B0061305C003EF40A005220542
:1014D00033658501420541859305C006AA9B130526
:1014E000C003EF4020042A8C9305D0061305C003E7
:1014F000EF404003220533658501420541857D1992
:101500002A9BE31E09F6154C33C58403B7740020EB
:10151000954D014DEF50C04383A5445AEF50801BB9
:10152000EF50003D2A8933C58B03EF50604283A5FD
:10153000445AEF50201AEF50A03BAA8C33458B033E
:10154000014B014CEF50C04083A5445AEF50801826
:10155000EF50003A494693052006AA8B1305C003B5
:10156000EF30D0761305A005EF20A0059305700697
:101570001305C003EF30107B21896DD993058006D8
:101580001305C003EF30107A232EA4FA93059006BA
:101590001305C003EF3010798327C4FB22059305A0
:1015A000A0065D8D420541852A9D1305C003EF30DD
:1015B0007077232EA4FA9305B0061305C003EF300D
:1015C00070768327C4FB22059305C0065D8D420516
:1015D00041852A9C1305C003EF30D074232EA4FA52
:1015E0009305D0061305C003EF30D0738327C4FBE7
:1015F0002205FD1D5D8D420541852A9BE3980DF670
:10160000954D3345BD03EF50A03483A5445AEF50A8
:10161000600CEF50E02D2A8D3345BC03EF50403372
:1016200083A5445AEF50000BEF50802C2A8C334591
:10163000BB03EF50E03183A5445AEF50A009EF50AF
:10164000202B4146930520062A8B1305C003EF305B
:10165000F06713063008930500061305C003EF304A
:10166000F066B77500209385055C0145EF30C052E8
:10167000B3072D4163D40700B307A941C11713076E
:10168000301E636FF70EB77500209385455D0145E9
:10169000EF30805085443779002093058939014522
:1016A000EF30804FB77500209385455E0145EF30E0
:1016B000A04EB3079C4163D40700B3878C41C11788
:1016C0001307301E6367F70CB77500209385455DDF
:1016D0000145EF30604C93E42400930589390145BE
:1016E000EF30804BB77500209385855F0145EF3063
:1016F000A04AB3077B4163D40700B3876B41C1178E
:101700001307301E636FF708B77500209385455D9A
:101710000145EF30604893E4440093058939014561
:10172000EF3080479D476386F40863140A08B77555
:1017300000209385C5600145EF300046B775002055
:10174000014593854561EF302045B71700809387A9
:1017500047EC984313958A016185050798C33D318D
:10176000B6402644528596440649F259625AD25AE6
:10177000425BB25B225C925C025DF24D61618280F1
:10178000B77500209385C55D0145EF30E040814489
:1017900019B7B77500209385C55D0145EF30C03F8F
:1017A0002DBFB77500209385C55D0145EF30C03E64
:1017B000ADB79307D003639EF902B77500209385F8
:1017C00005640145EF30403DB7750020938585667F
:1017D0000145EF30603CB7750020938545610145B8
:1017E000EF30803B13958A016185913E95BFE30000
:1017F0000AF4B775002093854565E1B75D7186C62B
:10180000A2C462D4800866D2A6C2CAC04EDE52DC30
:1018100056DA5AD85ED66AD06ECE2A8C0145AE8C86
:10182000EF30805CB7750020938545560145EF3059
:10183000A036BD451305A003EF30D04E9307F00F3F
:101840006317F500BD4513052003EF30B04D930736
:101850001004AA8B630FF500930730039304200351
:10186000630BF50063000C32B775002093850559B2
:101870006DA69304A0030146930510022685EF3060
:10188000F0440146930520022685EF3030441306CC
:101890001008930530022685EF3050432685130645
:1018A000700593050002EF3070421305A005EF109C
:1018B0005051930570022685EF30D0462A8913795E
:1018C00089002945EF10F04FE30509FE93058002DA
:1018D0002685EF303045930590022685EF30904401
:1018E0009305A0022685EF30F0439305B0022685CC
:1018F000EF3050439305C0022685EF30B042930588
:10190000D0022685EF30104295490149014A014B2A
:10191000930570022685EF30F040218975D9930533
:1019200080022685EF301040AA8A93059002268512
:10193000EF30503F22053365550142054185198539
:101940009305A0022A9B2685EF30D03DAA8A9305F5
:10195000B0022685EF30103D220533655501420562
:10196000418519859305C0022A9A2685EF30903B60
:10197000AA8A9305D0022685EF30D03A2205336536
:101980005501420541851985FD192A99E39209F807
:10199000954726851306500893053002334BFB020A
:1019A000334AFA023349F902EF3050321305A005E9
:1019B000EF103041930570022685EF30B036218953
:1019C00075D9930580022685EF30D03593059002B6
:1019D0002685EF3030359305A0022685EF30903410
:1019E0009305B0022685EF30F0339305C0022685BB
:1019F000EF3050339305D0022685EF30B032954D4D
:101A0000014D8149814A930570022685EF3090315E
:101A1000218975D9930580022685EF30B030232EB9
:101A2000A4FA930590022685EF30D02F8327C4FBBC
:101A300022059305A0025D8D420541851985AA9A6C
:101A40002685EF30302E232EA4FA9305B00226858A
:101A5000EF30502D8327C4FB22059305C0025D8D16
:101A6000420541851985AA992685EF30B02B232E92
:101A7000A4FA9305D0022685EF30D02A8327C4FB31
:101A80002205FD1D5D8D4205418519852A9DE39C3A
:101A90000DF69547B3CAFA02014693050002268562
:101AA000B3C9F902334DFD02EF30502205469305CC
:101AB00030022685EF309021B77500209385055CB4
:101AC0000145EF30600DB3876A4163D40700B30767
:101AD0005B41B917130750156360F710B775002005
:101AE0009385455D0145EF30200B8544B77A002092
:101AF00093858A390145EF30200AB7750020938518
:101B0000455E0145EF304009B387494163D4070082
:101B1000B3073A41B917130750156368F70CB77547
:101B200000209385455D0145EF30000793E42400D4
:101B300093858A390145EF302006B77500209385DB
:101B4000855F0145EF304005B3072D4163D40700A1
:101B5000B307A941B917130750156360F70AB775A2
:101B600000209385455D0145EF30000393E4440078
:101B700093858A390145EF3020029D476387F40839
:101B800063150C08B77500209385C5600145EF30DB
:101B9000A000B7750020014593854561EF20D07FF7
:101BA000B7170080938747EC984313958C016185A4
:101BB000050798C3EFF08FFDB64026446285964432
:101BC0000649F259625AD25A425BB25B225C925C7D
:101BD000025DF24D61618280B77500209385C55D1D
:101BE0000145EF20707B814411B7B77500209385C4
:101BF000C55D0145EF20507A25BFB775002093855C
:101C0000C55D0145EF205079A5B793071004E39D0A
:101C1000FBC4B77500209385C5570145EF20D077E9
:101C2000B7750020938585660145EF20F076B7757E
:101C30000020938545610145EF20107613958C01B6
:101C40006185EFF0CFEF8DBF011106CE22CC26CA01
:101C500000104AC84EC62A890145AE84EF30C0182C
:101C6000B77500209385C5540145EF20F0729305A8
:101C7000600813052005EF30F00AE2049307000A1C
:101C8000E184B77900206302F50463100904B77595
:101C900000209385C5600145EF20107001459385B4
:101CA0004961EF20706FB7170080938747EC984326
:101CB0002685050798C3EFF06FEDF24062444A8530
:101CC000D2444249B24905618280B77500209385AC
:101CD00085660145EF20506C938549610145EF20F1
:101CE000B06B2685EFF0AFE5C9BF011106CE22CC5F
:101CF00026CA00104AC84EC6AA890145AE84EF30F4
:101D0000A00EB7750020938505770145EF20D068B8
:101D1000B77500209385C5780145EF20F06705452C
:101D2000EF104051B775002029469385457A054547
:101D3000EF20F06737290080A94629469305004027
:101D4000130549AEEF20C015B77500209385057BBC
:101D5000130549AEE204EF40C020E18429C1B77504
:101D600000209385457B0145EF2010632685EFF029
:101D70000FDDB7750020938585660145EF20D061A2
:101D8000B7750020014593854561EF20F060F24072
:101D900062444E85D2444249B24905618280B7759A
:101DA00000209385C57BEF20305FB71700809387B5
:101DB00047EC98432685050798C3EFF02FDDB775EC
:101DC00000209385C56055BF011106CE22CC26CADE
:101DD00000104AC84EC6AA890145AE84EF30C00043
:101DE000B7750020938505670145EF20F05AB77558
:101DF0000020938505680145EF20105A0545EF1036
:101E00006043B77500202146938585690545EF201D
:101E1000105A37290080954629469305004013053E
:101E200049AEEF20E007B77500209385456A13059A
:101E300049AEE204EF40E012E18429C1B775002009
:101E40009385457B0145EF2030552685EFF02FCF58
:101E5000B7750020938585660145EF20F053B7756F
:101E60000020014593854561EF201053F240624404
:101E70004E85D2444249B24905618280B77500203F
:101E80009385C57BEF205051B7170080938747ECAF
:101E900098432685050798C3EFF04FCFB77500200C
:101EA0009385C56055BF397106DE22DC26DA8000D5
:101EB00056D25AD04AD84ED652D45ECE62CC66CADA
:101EC0006AC86EC62A8B0145AE8AEF20F071B775DD
:101ED0000020938505740145EF20104C1305200365
:101EE000EF10206EB78700103707060098C7984795
:101EF000C1662165558F98C7EF10E07EE57793871F
:101F0000F79323A4A1443E958567E20A9387E7C728
:101F100093DA8A4163EFA70437E5F5051305051049
:101F2000EF105014EF308031B775002093850575A0
:101F30000145EF20704683A581440145EF20D06A1A
:101F4000B7750020938585390145EF20F044B775BA
:101F50000020938585660145EF201044B775002069
:101F6000938545610145EF2030435685EFF02FBD45
:101F7000A1AAB7070010B85B370AE1FF7D1A3377D3
:101F80004701B8DBB85BB70610002689558FB8DB70
:101F900003A58144617C8149EF10E07423A4A1442E
:101FA000A164898C1305803EB3D4A402130C0C30B9
:101FB000130D703EFD4CB70B0010FD5DC10483A7EF
:101FC0008144E2976374FD0463E29C0483A70B07DA
:101FD0002165B3F7470123A8FB0683A60B07939758
:101FE0000401D58F23A8FB06EF10E06F23A4A144C2
:101FF0000547A1676398090085496363F500FD59AA
:10200000CE9475BF63F6A706E39CE9FE37E5F505B8
:1020100013050510EF101005EF30402203A781448F
:10202000E577938707943E978567938707C8B779C5
:102030000020B7740020B775002063E0E7049385A3
:1020400085760145EF20503583A581440145EF2079
:10205000B059938589390145EF201034B7750020B8
:10206000938585660145EF20303393854461DDBD5E
:10207000E308F5F8E396B9F951BFE3120BFC938539
:1020800085760145EF20503183A581440145EF203D
:10209000B055938589390145EF201030B775002080
:1020A0009385C5600145EF20302F0145938544613C
:1020B000EF20902EB7170080938747EC9843568502
:1020C000050798C3EFF08FACF25062545A85D25492
:1020D0004259B259225A925A025BF24B624CD24C8C
:1020E000424DB24D21618280397106DE22DC26DA52
:1020F00080004AD84ED652D456D25AD05ECE62CC48
:102100002A890145AE89EF20304EB77500209385AE
:10211000856B0145EF2050280546930500081305FF
:102120002005EF30A03AEFF08F94AA84EFF02F94BF
:102130004205418193075004377A002063FDA70AC6
:10214000C18063FA970AB77500209385C56D014574
:10215000EF20902493058A390145EF20F023EF10FA
:10216000603D91642A8BAE8B930A2003938484A9EB
:10217000EFF0EF8F418163ECAA0A854AB775002022
:10218000938505730145E209EF20102193D9894118
:10219000639D0A0CB77500209385C55D0145EF204E
:1021A000B01F93058A390145EF20101FB775002035
:1021B00001459385C560EF20301EB71700809387D7
:1021C00047EC98434E85050798C3EFF02F9CB775F1
:1021D0000020014593854561EF20101CF2506254A8
:1021E0004A85D2544259B259225A925A025BF24B52
:1021F000624C21618280B77500209385057001458E
:10220000EF20901993058A390145EF20F0189304C7
:102210005004EFF0CF854181E3FDA4FE9304500408
:10222000EFF0EF8442054181E3FCA4FE29BFEFF00B
:102230000F8442054181E3F2AAF4EF10A02F232678
:10224000B4FC2A8CEF10E036330595028325C4FCDC
:1022500033076501B337A700DE9763E6B700E3995C
:10226000F5F0E37787F1814A11BFB77500209385B8
:10227000455D0145EF20501293058A390145EF2055
:10228000B011B7750020938585660145EF20D01009
:102290004E85EFF0CF8A25BF011106CE22CC26CA8B
:1022A00000104AC84EC652C483A48144130A803E1B
:1022B00037790020B3D44403930589390145EF20D1
:1022C000B00DB7750020938585400145EF20D00CF7
:1022D0000145A685B3844403EF201031B775002073
:1022E000938505410145EF20300B83A581440145CD
:1022F000858DEF20702FB7750020938545410145EE
:10230000EF209009B77500209385C5410145EF2066
:10231000B00883A581450145EF20102D930589392B
:102320000145EF207007B7750020938545420145B0
:10233000EF20900683A50145B7470F009387072438
:10234000B3D5F5020145EF20302AB77500209385FB
:10235000C5420145EF20500483A501450145EF200A
:10236000B028B775002001459385853FEF20D00246
:10237000B7270110945F7D771307E77FF98E94DF0D
:10238000D45F6244F240758FD8DFD8438566938668
:102390001680D2444249B249224A558FD8C351458A
:1023A00005616F100022557186C7A2C5A6C38009BA
:1023B000CAC14EDF52DD56DB5AD95ED762D566D32D
:1023C0006AD16ECF3719008004422A8A232209EC91
:1023D000E135B7750020938545430145EF20C07B6B
:1023E000B77500209385C51B0145EF20E07AB77BC8
:1023F000002093858B390145EF20007AB7790020C2
:10240000938549610145EF202079EF203063EF008B
:102410009041A6850145EF20301DB77500209385BA
:10242000C5440145EF204077B77500209385854569
:102430000145138C1400EF2020768D4A130949ECD6
:102440007D5BD6850145EF20301A1305803EEF10E5
:102450004017A1450145FD1AEF20A065E3936AFFEF
:10246000930A8002130B401056860147814693055C
:10247000F0020145EF00304713050032938A7A03DA
:10248000EF102014E3926AFF930A8002130B4010AE
:10249000D686014701469305F0020145EF00B0449E
:1024A00013050032938A7A03EF10A011E3926AFFBA
:1024B000930A8002130B401056878146014693050C
:1024C000F0020145EF00304213050032938A7A038F
:1024D000EF10200FE3926AFFEF00F034377B00200B
:1024E00093054B470145EF20206B930C9005130D8E
:1024F000E004054685450145EF20C060AA8AAA850B
:1025000093FAFA0D0145EF20C05A63939A3DB775CF
:102510000020014593854549EF200068139584010B
:102520006185EFE0DFE1938549610145EF20C066F9
:10253000EFE0BFD9E2855285EFF0FF96EFE0FFD8DC
:10254000938A2400D6850145EF20100AB775002034
:102550009385C54A0145EF20206483A58144056524
:10256000130585BBEF10E009B7470F0093870724D9
:102570003355F502E20AD147138B340093DA8A41CE
:10258000130565FA63E0A738B77500200145938508
:102590008566EF2060605685EFE07FDA93854961BC
:1025A0000145EF20605FEFE05FD2DA855285EFF002
:1025B000BF81EFE09FD1938544005285EFF0EFF2A9
:1025C000EFE0BFD0938A5400D6850145EF20D001BB
:1025D000B77500209385C54B0145EF20E05B1306DE
:1025E00020038145130504F8EF30003C81461306B3
:1025F0002003930504F80545EF008070B7750020AF
:102600009385454D0145EF2020590545EF00904247
:10261000B77500209385057B130504F8138D6400BE
:10262000EF30301463000530B77500209385854E78
:102630000145EF206056854C0D6C9307DC131306A3
:1026400000048145130504F8231CF4F6EF30C0356F
:10265000B7750020930700049385054F0145232E8D
:10266000F4F6EF2060539307C4F7377B0020854EC4
:10267000114E1543130B8B1D930D800C3EC4930715
:1026800004F876D472D21ACA3EC281480148814702
:10269000014781460946930584F702D65AD002CEF7
:1026A00002CC6EC802C602C013054004EF10501CD5
:1026B0009307C4F7854E114E15433EC4930704F8A3
:1026C0002326A4F63EC2130CDC03814702D676D43F
:1026D00072D25AD002CE02CC1ACA6EC802C602C04A
:1026E00081480148014781460946930584F713054F
:1026F0004004231C84F7EF10B017032FC4F6E20A3E
:10270000FD5793DA8A416317FF22B775002093853E
:10271000854E0145EF20404863850C22B7750020A7
:10272000014593858566EF2020475685EFE03FC140
:10273000938549610145EF202046EFE01FB9EA8506
:102740005285EFF06FD0EFE05FB89385740052854B
:10275000EFF0CF8AEFE07FB7938584005285EFE0FA
:10276000DFC7EFE09FB6938A9400D6850145EF203E
:10277000A067B7750020938505500145EF20C04143
:10278000130600059305000213052003EF201054E3
:10279000130610089305300213052003EF20105391
:1027A0001306000CFD4513052003EF2030521305DE
:1027B000A005EF001061EFE03FA81305800CEF00CB
:1027C0005060EFE07FA7B77500202A8B93854551B5
:1027D0000145EF20603CDA850145EF20E060B775E8
:1027E00000209385C5520145EF20003B93858B392E
:1027F0000145551BEF20403A420BE20A135B0B01E7
:10280000F147138CA40093DA8A4163EC6715B7751E
:102810000020014593858566EF2000385685EFE05E
:102820001FB2938549610145EF200037EFE0FFA912
:10283000E2855285EFF05F8BEFE03FA9AD0413070F
:10284000F0079306F0071306F007A6852685EF002C
:102850009009B7750020938505530145EF20C033DB
:10286000938549610145EF202033B775002093859A
:1028700045530145EF204032E2850145EF20C05627
:10288000B7750020938585530145EF20E0308325FF
:1028900009000145EF204055B7750020014593859B
:1028A0000554EF20602F03250900BE402E44333528
:1028B000A0009E440E49FA596A5ADA5A4A5BBA5B3A
:1028C0002A5C9A5C0A5DFA4D3305A04069618280FA
:1028D0006394AA03B77500209385054A0145EF204C
:1028E000A02B832709001395840161858507232088
:1028F000F900EFE0BFA905B993054B470145EF206B
:10290000A029C5BEB77500209385C5600145EF209D
:10291000A02883270900568585072320F900EFE0CA
:10292000FFA6ADB9B77500209385C57BEF20C02603
:10293000814C19B3B77500209385C57B0145EF2005
:10294000A025B77500209385C5600145EF20C02400
:1029500083270900568585072320F900EFE01FA390
:10296000C1BBB77500209385C5600145EF20C0222B
:1029700083270900568585072320F900EFE01FA172
:102980004DB5397106DE22DC26DA80004AD84ED6F3
:10299000AE892A89EFD01FE9B7750020AA849385F4
:1029A000C53B0145232E04FCEF20001F0325C4FD79
:1029B00093071500232EF4FC62056185B9E0EFE072
:1029C0001F98B77500209385C53F0145EF20C01CB7
:1029D0001306C4FDCE854A85EFF0FF9CB3E7A40043
:1029E00085EBEFE04FB201452326A4FCEFE00FBDDD
:1029F0000325C4FCF2506254D2544259B2592161A9
:102A00008280EFE0BF98B77500209385C56075BFE1
:102A10002326A4FCEFE08FB00325C4FC71F52685C6
:102A2000E1B7411122C6000832449305C0091305DD
:102A3000250641016FD0BFD96D71232611102324C3
:102A40008110000AAA8513060010130504EFEF2079
:102A50009067130504EFEFF0DFFC2317A4FE3D653C
:102A6000EF10E021930504EF130600103D65EF1011
:102A7000802A8320C1100324811001455161828086
:102A8000411122C406C6000813060010B7F5002045
:102A9000EF207063B2402244014541018280411120
:102AA00022C406C6000813060002B7F50020EF2076
:102AB0009061B2402244014541018280411122C40B
:102AC00006C60008B7F5002013060002938505022C
:102AD000EF20705FB24022440145410182804111E4
:102AE00022C406C60008B7F500201306000293852D
:102AF0000504EF20505DB24022440145410182802F
:102B0000411122C60008B7F7002003C707062300BB
:102B1000E50083C71706A300F500324401454101D3
:102B20008280411122C406C60008B7F50020414644
:102B300093852506EF203059B240224401454101DA
:102B40008280411122C60008B7F7002083C72707FB
:102B50002300F5003244014541018280411122C623
:102B60000008B7F7002083C737072300F500324479
:102B7000014541018280411122C406C60008B7F513
:102B80000020194693854507EF20F053B2402244B8
:102B9000014541018280411122C60008B7F700209B
:102BA00003C7A7072300E50083C7B707A300F50005
:102BB0003244014541018280411122C60008B7F725
:102BC000002003C7C7072300E50083C7D707A3007A
:102BD000F5003244014541018280411122C406C6FC
:102BE0000008B7F5002019469385E50EEF20B04D9B
:102BF000B2402244014541018280411122C406C6EF
:102C00000008B7F5002019469385450FEF20B04B1B
:102C1000B24022440145410182806D71232611108A
:102C20002324811023229110000AAA841306001085
:102C3000B7F50020130504EFEF20F048A6851146F4
:102C40001305A4FEEF203048130504EFEFF07FDDFD
:102C50002317A4FE3D65EF108002930504EF1306D1
:102C600000103D65EF10200B8320C110032481105C
:102C700083244110014551618280411122C406C65E
:102C80000008B7F5002011469385A50FEF20B0434B
:102C9000B24022440145410182806D71232611100A
:102CA0002324811023229110000AAA841306001005
:102CB000B7F50020130504EFEF20F0403D65231722
:102CC00094FEEF00D07B930504EF130600103D65E2
:102CD000EF1060048320C11003248110832441106D
:102CE000014551618280411122C60008B7F70020DA
:102CF00083D7E70F32442310F5000145410182805C
:102D00001D71A2CCD2C4801086CEA6CACAC8CEC6B7
:102D10002326C4FC7D5A59C18D47AA897D5A63CFA9
:102D2000A706AE84368981ED93F7062089EB9307D9
:102D30000008B72400802326F4FC938484EE937764
:102D4000091081CBB77500209385C57F0145EF1031
:102D5000B064FD57639DF9049307F003230EF4FC60
:102D6000054685473EC8A9473EC69307C4FC3EC4F6
:102D700002CC814702CA26C202C0814801480147ED
:102D800081469305C4FD5145EF1080499377490072
:102D90002A8A85CBA6850145EF101060F64066446F
:102DA0005285D6444649B649264A25618280930712
:102DB000D00393890903230EF4FCA30E34FD0946C6
:102DC0004DB713798900E30B09FC2A86A6850145D6
:102DD000EF007040E1B783A74145130101B3232EF3
:102DE000314B93090019B3D9F9022324814C2322D2
:102DF000914C232C414B232A514B0A882326114CFA
:102E00002320214D034905009306204EAA84B30ACE
:102E1000B5001306004B81454285130A0032135951
:102E20004900850433D4F602335AFA02EF20D03732
:102E30002A883C08CE86130700088545B3850541DE
:102E40000583130571493376E9002380D700B386E3
:102E5000F50015E763FC540303C904008504135906
:102E60004900630EF50ECE86130700088507238000
:102E7000D70005833376E900B386F50061DF630090
:102E8000F50ED28665F6CE868507D5B71386860100
:102E900042064182B757021023A0070023A607026B
:102EA00023A40700F3254030130700087337473089
:102EB000856613870680733747307377443037252C
:102EC0000110185DB708400042963367170118DDFE
:102ED00094C342859376F40F37570210637DC80080
:102EE0001C47E3EFD7FE23240700834705000505B1
:102EF0005CD7E317A6FE375702101C47E3EFD7FE57
:102F000023200700B72601109C5E3707C0FF7D17FE
:102F1000F98F9CDE93F7850099C3F367443085678A
:102F20009387078033F7F50019C3F3A7473093F56C
:102F3000050889C593070008F3A747308320C14CD3
:102F40000324814C8324414C0329014C8329C14B28
:102F5000032A814B832A414B1301014D82801306C2
:102F6000004B0DBF411122C6000873254030930766
:102F70000008F3B7473085671387078073374730FA
:102F8000737744303244938787887D8D41018280F6
:102F9000411122C600089377850099C3F367443036
:102FA0008567938707803377F50019C3F3A7473008
:102FB0001375050809C593070008F3A74730324485
:102FC00041018280011122CC4EC606CE26CA4AC8D3
:102FD0000010EFF03FF9372701105C47B7064000BB
:102FE000AA89D58F5CC70F008004752383A741454C
:102FF000B79404009384043EB3D4F4023389A4004C
:10300000B3349900AE94412BE3EF95FE6394B40082
:10301000E36B25FF6244F240D24442494E85B249F7
:1030200005616FF0FFF6411122C406C60008930542
:103030000009138581B4EFF01FDA2244B240410148
:103040006FF05FF88D478505B385F502411106C61F
:1030500022C40008138581ABEFF0FFD7EFF09FF695
:10306000B2402244014541018280411122C600083C
:103070009307F00263D4B7009305F002FD5763C7CE
:10308000A5048D473308F502938781AB9398860199
:1030900013138601131E870193D88841135383416C
:1030A000135E8E41C2971308F00763C508022380A0
:1030B000D70063440302A380C70063430E02238149
:1030C000E70005058D07E3D2A5FE814732443E8522
:1030D0004101828023800701E9BFA3800701F1BF7E
:1030E00023810701F9BF411122C426C24AC006C686
:1030F0000008AA842E89EFF05FF7634B0500224495
:10310000B240CA8526850249924441016FF09FF37F
:10311000B24022449244024941018280411122C6B8
:10312000000832443687B2862E864101AA856FF0A8
:103130009FFB411122C406C6000813060009814501
:10314000138581B4EF205006B7270110D45F3707ED
:103150004000B240D98ED4DFD4472244D98ED4C7A0
:10316000B443D98EB4C39447558F98C74101828028
:10317000011122CC26CA001006CEAA8409452326B6
:10318000B4FEEF10A05F93972400138781C03E9791
:10319000832807008325C4FE6382080293860143C7
:1031A000BE9603A8060023200700050823A00601F9
:1031B00093868143BE969042469690C29386814202
:1031C000BE96904293868141BE9694421387814277
:1031D000938401C16310D602B386F4009442634B1A
:1031E000D000EF10A059130530FCF2406244D244E5
:1031F000056182809306F07F63D6C600B306F700B0
:1032000023A006003E97938601421043BE96944247
:1032100013081600232007013387C6000347070061
:10322000BE942380E5009C40FD179CC0EF10005524
:10323000884065BF411106C622C426C20008AA8480
:103240000945EF10A0539397240093868141BE96C1
:103250009442138781423E9714C3138701C13E975E
:10326000044323200700138701C0BA9723A0070057
:10327000EF10C050B2402244268592444101828022
:103280001D71CEC65EDE938901C0BE8B93172500EB
:10329000A2CCA6CACAC8D2C4DAC062DC66DA6AD8CE
:1032A0006ED686CED6C28010BE992A8BAE8C328D59
:1032B000368A468C01498144CE8DBA8A83A709009B
:1032C0006357F0089305F4FB5A85232404FB232657
:1032D000E4FAEFF0FFE90327C4FA032884FAE34E87
:1032E00005FC8347F4FB850423A0AD00B3869C0056
:1032F000A38FF6FE63DFA407E30608FCE3040CFCDF
:10330000B306280183C60600639AF6020509E31B8B
:1033100089FB63040A0023209A00FD54F6406644AA
:1033200026854649D644B649264A964A064BF25B5C
:10333000625CD25C425DB25D25618280E30409F883
:10334000834608000149E39FF6F60549C9B7E357EC
:1033500050F7FD1A638F0A00E3820BF65E85232483
:1033600004FB2326E4FAB12C032884FA0327C4FAC9
:10337000B1B7E3050AFA23209A004DB7011106CE32
:1033800022CC26CA00100545EF101040AA84898877
:103390000545EF101041B1CC098949CDB73702106E
:1033A000DC432326F4FE938701C1138781411386F2
:1033B00081429308F07F93850142373302108326C0
:1033C000C4FE63C406020325C4FE5443032846001A
:1033D0001375F50F6394060303A8470063500003B9
:1033E000138781C05443850654C3D843938701C0D3
:1033F000D8C3F2406244D2440561828063D4D800CD
:103400002322070003284700D441130E1800C29658
:103410002322C7012380A600D44313851600C8C306
:1034200093861680F9D2E34205FC832643002326C7
:10343000D4FE71B76244F240D244930520050145A1
:1034400005616F100067411122C600081387814192
:10345000938501C023200700232207003244371739
:10346000008023A00500138601C1938681429387C3
:1034700001421307072A2320060023A0060023A0E9
:10348000070023A205002322060023A20600D8C3BA
:1034900041018280411122C600089D476308F5085A
:1034A0002547F1576310E5084D4793074002B7568B
:1034B000021093850602371600802320B6EEB697D9
:1034C00037160080232EF6EC938586003716008091
:1034D0002322B6EE37160080232CD6EC0546331691
:1034E000E60037170080130707EF10C3C1453716F2
:1034F00000802304B6EE23A0060223A00700B7171E
:10350000008023A607EEB72701101043D45FD18EA9
:10351000D4DF1043B443D18EB4C31443985F558FA6
:1035200098DF814732443E854101828055479307A9
:103530008002B5BF411122C600083244B7C700025D
:1035400003A587FF83A5C7FF41018280411122C6E1
:103550000008B7470002FD56D843D4C39443324411
:1035600088C3D043CCC33685BA85410182804111DE
:1035700022C600083244B74700028843CC434101C9
:103580008280411122C60008F32500B8732500B0DF
:10359000324441018280411122C60008F32500B85F
:1035A000732500B0F32700B8E39AF5FE32444101D9
:1035B0008280411122C60008324403A581454101A1
:1035C0008280411122C426C24AC006C60008AA84CD
:1035D000EFF05FF683A78145B384F4023389A4003A
:1035E000B3349900AE94EFF0FFF4E3EE95FE6394EC
:1035F000B400E36A25FFB2402244924402494101EB
:103600008280011106CE22CC26CA4AC84EC652C4B8
:1036100056C25AC00010AA892E8AEFF0BFF1AA8ABA
:103620002E8BEFF01FF6AA842E89EFF0BFF0B307C0
:1036300055413335F500B38565416394A500E3E654
:1036400037FFEFF01FF4AA87058DB3B7A700B38546
:1036500025414E869D8D8146EF20F051F240624417
:1036600023A6A144D244330545034249B249224A24
:10367000924A024B05618280411122C60008B78739
:1036800000103707060098C79847C1663244558F27
:1036900098C7B727F4003717008093870740232A7D
:1036A000F7EE41018280411122C406C60008AA85B6
:1036B0000565130585BBEFF0DFF423A8A14493074C
:1036C000803EB356F502B240224423A2D14437478C
:1036D0000F00130707243355E50233D5A70223AAA9
:1036E000A14441018280411106C622C426C20008BD
:1036F000AA84EFF07FF82685EFF0FFFA1165130535
:1037000005E8B384A40203A54144B240224433D562
:10371000A402924441018280011122CC06CE26CA25
:103720004AC84EC652C40010B78700109847984741
:103730009C473737D803B7A70700938707121307AB
:10374000F711B357F5026374A7100D4793060008ED
:10375000B387E702898763DFF60E13961700B34736
:10376000E6029305201813D7174063D7C50E63D719
:10377000E60E8987054A85499306000813D7174046
:1037800063CEF60013061A00C146B3C6C60213067E
:103790000030B386E60286066354D600FD19BA8768
:1037A000858729459384F7FFEFF0BFE1B7870010C5
:1037B000D8439316170063CA0600D843B7060040E3
:1037C0002945558FD8C3EFF0DFDF378900108327F5
:1037D0008900370704001545D98F2324F900EFF03D
:1037E0005FDE8327890037070200AA09D98F2324C7
:1037F000F9008327890041679204D98F2324F900B7
:1038000003278900C17793F4043F7D8F3367470115
:103810004E97BA94232499002945EFF09FDA832725
:10382000890063D607001305401FEFF09FD9B786C4
:1038300000109C463707FCFFF24062447D17F98F69
:103840009CC6D2444249B249224A056182800D4A4F
:103850008D491DB7094AEDBF054ADDBFBA87054A44
:10386000894919BF37E70BFF130707C0B7B61E1208
:103870002A97938606C063E3E604411122C426C258
:1038800006C600083727F40013070740AA84631808
:10389000E5002244B240924441016FF0FFDDEFF0B9
:1038A000BFE703A58144EFF01FE0B2402244B71701
:1038B000008023AA97EE9244410182808280797130
:1038C00006D622D426D200184AD04ECE52CC56CAA2
:1038D0005AC85EC662C466C26AC0EFF0FFD92165ED
:1038E000EFF07FE023A4A144EFF0FFDF23A4A14485
:1038F000EFF07FDF1307803EB356E502E17A370B26
:10390000E1FF23A4A1448149938A0A30930C703EBD
:103910007D4C370A00107D1BA16B7D5D23ACD1442B
:10392000A167B384A740B3D4E402C10483A7814450
:10393000D69763F4FC0463629C0483270A07B3F7F9
:1039400067012328FA0603270A0793970401D98FF2
:103950002328FA0603A58144EFF0FFD823A4A1444D
:1039600063980900854963637501FD59CE947DBF55
:1039700063F9AB028547E39BF9FEB7170080938795
:1039800047F0984305C7B250225492540259F24965
:10399000624AD24A424BB24B224C924C024D456194
:1039A0008280E30575FDE393A9FDC1BF37C700021F
:1039B000832687FF94C38326C7FF3717008013072A
:1039C00007F014C318439443B7170080938787EF19
:1039D00094C3D8C34DBF631B06128280B3065B013C
:1039E00003C506001306E002930605FE93F6F60FE4
:1039F00063E3DB002A860328CCE8930504FD935893
:103A0000450093861700AE972386C7FAC29883C5F0
:103A10000800130604FD3A963D892300B6FC429542
:103A20000346050093071700930504FDAE97238016
:103A3000C7FC090763DFDC02B387E500AE96268585
:103A4000930504F9238606FA238007FCEF10C014BF
:103A5000930589042685EF1020149305C4F7268565
:103A6000EF1080139385C9042685EF10E0120147FB
:103A70008146850AB687E3C34AF7A5CFBD4663CA28
:103A8000F606930604F93386E60093050002BE8627
:103A900041451308C4F736982300B600A300B600CA
:103AA0002300B80085060906E395A6FEF956B387FC
:103AB000D702930604FD930504F92685230604F82E
:103AC000B697BA97238007FEEF10000DB785002048
:103AD000938585042685EF10200C9305C4F7268571
:103AE000EF10800BB78500209385C5042685EF1065
:103AF000A00ABA402A449A440A49F659665AD65A44
:103B0000465BB65B265C965C49618280757122C516
:103B100026C34AC1CEDED2DCD6DADAD8DED6E2D48B
:103B2000E6D206C70009328A2E8BAA840147814754
:103B3000814A930BE005371C0080BD4C378900207B
:103B4000B78900200DBF411122C6000873584030CC
:103B5000B7470110B8531375F50F799BB8D3984F39
:103B6000719B1367270098CFB8472384A704374772
:103B700001107C47E3CF07FE2E87914737450110A0
:103B800063CD0508FD1789E70145B74501102DA84C
:103B9000832885049358074193F8F80F23041505EB
:103BA00022078328C504E3CE08FED9BFB84513F722
:103BB000F60F2384E504F845E34F07FE220513774B
:103BC000F70F598DA1868507E3C2C7FE374701105D
:103BD0001C4F1546F19B1CCFB7470110984F719BA6
:103BE0001367270098CFB8472384C704F847E34FEB
:103BF00007FEB84723840704F847E34F07FE944FB6
:103C0000058BF19A94CF79FBB85313671700B8D39B
:103C1000731048303244410182808147B5B7411169
:103C200022C600083707000823A0E1883747002094
:103C30008147130767B437050008930600403386B1
:103C4000E700834506003306F50085072300B6002C
:103C5000E397D7FE324441018280411106C622C457
:103C60000008EFF0DFFB83A7018881460146FD5580
:103C700019458297B24022440145410182800111D9
:103C800006CE22CC00102326A4FEEFF01FFDEFF09D
:103C90001FF98325C4FE83A70188814601461305C9
:103CA000700D8297F24062440145056182800111E6
:103CB00006CE22CC26CA00102326B4FEAA84EFF03A
:103CC000DFF9EFF0DFF58326C4FE83A70188A68520
:103CD000114609458297F2406244D244014505618C
:103CE0008280011106CE22CC26CA00102326B4FE03
:103CF000AA84EFF09FF6EFF09FF28326C4FE83A71D
:103D00000188A685054609458297F2406244D2445F
:103D1000014505618280011122CC26CA4AC84EC6DF
:103D200052C406CE00102A89AE89B2840D4A91E8A9
:103D3000F2406244D2444249B249224A01450561F7
:103D40008280637B9A0083A509004A859109EFF080
:103D50001FF61109F114E1BF83C509004A858509E1
:103D6000EFF03FF80509FD14D9B7411106C622C48A
:103D70000008EFF09FEEEFF09FEA83A7018893061B
:103D800080030546FD5505458297B2402244014512
:103D900041018280411106C622C40008EFF0FFEB0A
:103DA000EFF0FFE783A701889306C0030546FD55A2
:103DB00005458297B24022440145410182805D71F0
:103DC000A2C4A6C2CAC04EDE52DC56DA5AD85ED6AB
:103DD00062D466D26AD086C680082A8AAE8A3289C0
:103DE000B68C3A8D3E8BC28B468CBE89814463C7AC
:103DF0005401630409042320990081A05C408328B6
:103E0000040062883EC06687EA879306C4FC338656
:103E10009A40B3059A000545232604FCEFF04FC6EF
:103E2000635C05028327C4FCBE946304090023205D
:103E30009900D29423800400AA84B64026442685A3
:103E400006499644F259625AD25A425BB25B225CEE
:103E5000925C025D6161828009C5AA94DA89E3CF30
:103E600054F9B3079A002380070063985401630450
:103E7000090023209900F954C9B7E30C0CF6E35864
:103E800060F7FD196348300163040900232099009D
:103E9000D95465B7E38D0BF45E85EFF08FF281BFE7
:103EA000011122CC06CE001002C202C03687814822
:103EB000B286014881470146EFF07FF0F24062444C
:103EC00005618280397122DC26DA80004AD84ED61C
:103ED00052D456D25AD05ECE62CC66CA6AC86EC67A
:103EE00006DE2A89B28BB68DBA893E8DC28C468B8E
:103EF000032C0400832A4400014AAE8485E5D28461
:103F0000639C0B02268A63940D04D28463820906A3
:103F1000B384A901634AA005D28431AA4A85EF007F
:103F20005039050AB387440183C50700E5F9C1BFCD
:103F30004A85EF0010388504B3874441DE9783C576
:103F40000700FDF5C1B74A85EF00B036050AB30793
:103F50009A40EE9783C50700FDF545BF850983C5E7
:103F6000F9FF4A85EF00F034E39A99FEB304AA0101
:103F700063860C0493771B0099C79305C0024A859A
:103F8000EF0030338504137B2B00A68963090B00F7
:103F9000930520024A85EF00D03193891400CE8426
:103FA000B3873441E69783C50700C9ED63080B006A
:103FB000930520024A85EF00D02F850463060C0488
:103FC00093F71A0099C79305C0024A85EF00702E37
:103FD000850493FA2A0063880A00930520024A8523
:103FE000EF00302D8504A689B3879940E29783C5F9
:103FF0000700B1EDCE8463890A00930520024A854B
:10400000EF00302B938419001C44A689B1EBF250C9
:1040100062544E85D2544259B259225A925A025B86
:10402000F24B624CD24C424DB24D216182804A85A6
:10403000EF0030288504B3874441CE9783C507003D
:10404000FDF53DB74A85EF00D026850491BF4A852E
:10405000EF003026850949BF4A85EF009025850984
:104060001844B3879940BA9783C50700F5F545B75B
:104070001D71A2CCA6CA8010CAC8CEC6D6C2DAC0EC
:104080005EDE62DC66DA6AD86ED686CED2C4B689C7
:10409000C6849306F0089308F5FF032B0400832CD5
:1040A000440003298400832AC400032D0401832DC6
:1040B0004401832B8401032CC401832F0402832237
:1040C0004402832E8402032FC40263EB1613194E9D
:1040D000330EC50337830020930643819308438141
:1040E0008143F29683C61600370E0080130E0E1021
:1040F000139A8601135A8A4163540A008323CE011E
:1041000019433305650293F6F6F78A06369E032EA9
:104110000E003383A80003453300834623002205A5
:10412000558D83464300C206558D83465300E206F3
:10413000C98EE9E04E85BA883E83B2873716008083
:10414000130686E83A8A32C42E8742C21AC02A88E9
:1041500072869E8505452328E4FB232AD4FB232C65
:1041600054FA232EF4FBEFF0FFD5638C0C08814545
:10417000832FC4FB832284FB832E44FB032F04FB89
:10418000630409008325090002C216C0FE887A88EC
:10419000F6876E87EA8656866685EFF05FC263090A
:1041A0000900FD57631BF50483A70A002320F900CB
:1041B000A9C802C402C202C0D2874E878146014606
:1041C0008145814801480545EFF0DFCF6644F64060
:1041D0004649B649264A964AD25C425DB25DE286BD
:1041E0005E86625CF25BDA852685064BD6442561E5
:1041F0006FF01FCB0145814881B72320A9004DBF37
:104200005955F6406644D6444649B649264A964A28
:10421000064BF25B625CD25C425DB25D25618280DE
:10422000397122DC06DE800005431AD411431AD20C
:10423000377300201303831D1AD00323840102C6A1
:1042400002D61ACE032344011ACC032304011ACA4E
:104250000323C4001AC8032384001AC403234400A0
:104260001AC2032304001AC0EFF09FE0F250625418
:1042700021618280411122C6000832449305000565
:10428000014541016F00F002411122C60008138769
:10429000C1891C4363CE0700A94663D7F600F377B4
:1042A000043073005010F5BF85071CC37300501015
:1042B000324441018280411122C426C206C6000850
:1042C000AA84EF10003551EDEF10E0324DC1930795
:1042D00040036380F40A93073003638EF408954724
:1042E0006381F408930730026389F408930700029E
:1042F0006387F40885476387F40893072003638581
:10430000F40893075003638EF404930790026380CC
:10431000F40893076002638FF4069307D002638E5C
:10432000F4069307A002638DF40693071003638CD1
:10433000F4069307E002638BF40693074002638A56
:10434000F406930750026388F406F9476387F4067E
:10435000930710026385F406930720026393F40623
:104360009144B24022442685924441018280FD540A
:10437000CDBF8944FDB78544EDB79544DDB79304BF
:104380007002C5B7A144F1BF93044003D9BF9304A1
:10439000B002C1BF93048002E9B79304F002D1B721
:1043A0009304C0027DBF9304300365BF93040003F0
:1043B0004DBF99447DB79D446DB781445DB78D4431
:1043C0004DB7F95479BF0000000000000000000064
:1043D00000000000000000000000000000000000DD
:1043E00000000000000000000000000000000000CD
:1043F00000000000000000000000000000000000BD
:104400005971A2CE86D696D49AD29ED0A6CCAACAEC
:10441000AEC8B2C6B6C4BAC2BEC042DE46DC4ADAD4
:104420004ED852D656D45AD25ED062CE66CC6ACA24
:104430006EC872C676C47AC27EC0801873292034D2
:10444000F3275030635409209377F93F2D47639049
:10445000E71803AB8189B78B0020938981BD138A4C
:104460000189938A8188B707200CC4430545EFF082
:104470009FE42D056317950683A70A00BDC383A596
:104480004A0026858297B707200CC4C3F32740341F
:1044900013974701635607009307FBFF63416005CD
:1044A0007644B650A65216538653E6445645C64542
:1044B0003646A646164786477258E2585259C259A0
:1044C000325AA25A125B825B724CE24C524DC24D80
:1044D000324EA24E124F824F6561730020303E8BE8
:1044E00059B70545EFF03FDD6398A40083270A0024
:1044F00081C783254A0079B77945EFF0DFDB63E5B3
:10450000A40413053002EFF01FDB63FFA40279451A
:10451000EFF07FDA3385A4400E054E951C418DC720
:104520007945EFF05FD93385A4400E054E95832C75
:1045300005007945EFF03FD83385A4400E054E9530
:104540004C412685829C81B793874188984305FF1B
:10455000054798C3F32D1034732D3034F32C3034C9
:104560009305C0040145B123A6850145EF00101C49
:10457000930570040145352BAD450145EF00101B37
:104580009305800501453523CA850145EF00101AC2
:10459000930500040145312BEE850145EF0010190C
:1045A0009385CB0E0145CD2BEA850145EF00101810
:1045B0009385CB0E0145CD23E6850145EF0010170D
:1045C000B7750020938585390145F9236DBD1D47D9
:1045D000639DE7029387018A984309C7CC434A85C4
:1045E00002977DBD930540050145E121CA8501453E
:1045F000EF00D013B7750020938585390145692BED
:104600007D55FD55EFE09FF461BD0D47B774002067
:10461000639FE7009305300501456129CA8501457F
:10462000EF00D010938584390145BD2395BD9305D6
:1046300050040145BD29CA850145EF00300F93851F
:1046400084390145912BEFF03FC499BDF324103418
:10465000F32A3034732A303403A7C1899389C1897E
:104660006350070683A7C18AA1EF1389818A832734
:104670000900890485072320F90083A7C18A95CF03
:10468000B78500209385450F01453923A68501454F
:10469000EF00D0099305B0050145212983250900C4
:1046A0000145EF00B0089305D00501451921B77504
:1046B0000020938585390145C52173901434CDB30D
:1046C000B78500209385050F0145F921CA8501456D
:1046D000EF00D005930500040145E12EA6850145B4
:1046E000EF00D004378900209305C90E01456D21E4
:1046F000D6850145EF0090039305C90E0145692950
:10470000D2850145EF00900283A70900E3CF07F4AB
:10471000B7750020938585392DB700000000000093
:104720000000000000000000000000000000000089
:104730000000000000000000000000000000000079
:104740000000000000000000000000000000000069
:104750000000000000000000000000000000000059
:104760000000000000000000000000000000000049
:10477000000000000000000000000000411122C6FF
:104780000008B707200C984332441D8988C33A8536
:1047900041018280011122CC26CA001006CEAA84D3
:1047A000130550032326B4FEEFF0FFB063F0A4021C
:1047B0008325C4FEB7070003BE948A049D89884000
:1047C0008CC0F2406244D244056182807D55D5BFE1
:1047D000411122C426C206C60008AA84130550034C
:1047E000EFF07FAD63F7A40299CC13D75400931771
:1047F00027003727000C3E9714438547B394970052
:10480000D58C04C3B684B24022442685924441012B
:104810008280FD54CDBF411122C426C206C60008C5
:10482000AA8413055003EFF01FA963FFA4028DC4EF
:1048300013D75400931727003727000C3E970843DF
:104840008547B397970093C7F7FFE98F1CC3B24022
:104850002244924441018280B727000C23A0070024
:1048600023A207000145E5B77D55D5B7011122CC3C
:1048700026CA4AC84EC656C206CE52C40010AA84E2
:104880000545AE893289B68AEFF0FFA22D05631780
:10489000950293848188638B0902D685EFF09FEFA0
:1048A00023A0340123A224010145F2406244D244F2
:1048B0004249B249224A924A056182800545EFF099
:1048C0009F9F639EA40093840189F1B78545EFF013
:1048D0007FECB7470020938747279CC0E1B7794515
:1048E000EFF07F9D63E8A40613053002EFF0BF9C54
:1048F00063F2A406B727008023A297FC138A81BD28
:1049000063890902D6852685EFF0DFE87945EFF067
:104910009F9A3385A4400E05529523203501794591
:10492000EFF07F993385A4400E055295232225018F
:10493000A5BF85452685EFF0FFE57945EFF0BF97E8
:104940003385A4400E05B74700205295938747272B
:104950001CC1F1B7B727008023A097FC7D55B1B7E4
:10496000011122CC4AC806CE26CA00102A892E86FA
:10497000F3244030856793870780FD8C99C0F3B797
:104980004730130520022326C4FEEFF0DF92EFF03C
:104990009FE813052002EFF01F920326C4FE89460C
:1049A000CA85EFF0BFEC13052002EFF0DF90EFF0C7
:1049B0003FE291C4856793870780F3A74730F240B1
:1049C0006244D244424905618280411122C60008F6
:1049D00093070008F3B74730324441018280411108
:1049E00022C600087D5723AEE188324423A4018A01
:1049F00023A6A18A41018280411122C600083244C7
:104A000023AE018803A5818A41018280411122C61B
:104A10000008324423AE018823A4018A4101828028
:104A2000411122C406C626C200080D4723ACE18806
:104A3000F3770430F377443093070008F3B7473037
:104A4000856793870780F3B74730B707200C9843F3
:104A500001451D4798C3EFF01FDC81441305500347
:104A6000EFF07F8563C1A404B74700209387074018
:104A700093F707FC739057309387018A23A00700B0
:104A800023A20700B707200C984323A007008567DF
:104A900093870780F3A74730F3670430B24022447E
:104AA00092444101828026858145EFF0BFCE850486
:104AB00075B7411122C60008B737021019E5B7379C
:104AC00001109843E34F07FE21A09843E34F07FEF0
:104AD00032448CC341018280411122C426C24AC0A3
:104AE00006C600082A89AE8483C5040099E5B24051
:104AF000224492440249410182804A85EFF07FFBC3
:104B00008504DDB7011122CE0010B737021019E17C
:104B1000B7370110DC432326F4FE89ED8327C4FE5A
:104B2000014563C607000325C4FE1375F50F7244E3
:104B3000056182800DCA8327C4FE63C6070237372A
:104B4000021011ED373701108327C4FE63CD070033
:104B50005C432326F4FECDBF5C432326F4FE83276B
:104B6000C4FEE3DB07FE8327C4FEE3D907FA373729
:104B7000021011ED373701108327C4FEE3D007FA86
:104B80005C432326F4FECDBF5C432326F4FE83273B
:104B9000C4FEE3CB07FE59B7411122C6000889C500
:104BA000324441016FF05FF332444101828085E974
:104BB000328582804A852326C4FEEFF09FEF0326CC
:104BC000C4FE85047D1683C5040099C1E344C0FE7C
:104BD000F2406244D244424932850561828001112B
:104BE00022CC26CA4AC806CE00102A89AE84E1BF6C
:104BF000797122D44AD006D626D24ECE00183389F7
:104C0000C5008DEDB250225492540259F2493285BA
:104C10004561828083C504004E85232EC4FCEFF0DD
:104C20005FE90326C4FD8504B3079940E344F0FE21
:104C3000B2876353060081471D8EE9B7AA89AE8407
:104C4000E5B75D71A2C462D486C6A6C2CAC04EDEF4
:104C500052DC56DA5AD85ED666D26AD06ECE80085A
:104C6000755CD1CD49CE328B1040933C1800AE8498
:104C7000E685C289232CF4FA2A89C68B232EE4FA0E
:104C8000368AEFF03FE8AA87CE8A014C214D930D7A
:104C9000F00763466C01032784FB6358E000354747
:104CA0006385E70029476391E7040327C4FBE28794
:104CB00063070710635D8001B387840183C7F7FF33
:104CC00035476385E70029476393E7007D1CE2943D
:104CD0002380040063050A02B77500209385853997
:104CE0004A85EFF07FDF21A863120C04638009047A
:104CF00095EFFD1A63D50A0223800400795CB64063
:104D00002644628596440649F259625AD25A425B59
:104D1000B25B225C925C025DF24D61618280638EC7
:104D20000B085E85EFE0FF89814541A00D47639D3B
:104D3000E700B775002023800400938585394A85F4
:104D4000EFF09FD97D5C65BF6384A701639BB703C8
:104D500063538007630F0A00A1454A85EFF07FD5B2
:104D6000930500024A85EFF0DFD4A1454A85EFF0B4
:104D70005FD47D1C8545631A0C02CE8AE685014C02
:104D80002DA063516C03630A0A00BE854A85232A5D
:104D9000F4FAEFF01FD2832744FB3387840123000A
:104DA000F700050C8545E30B0CFC01464A85EFF046
:104DB0007FD5AA87F9BDCE8AF5B75E8CB5B76309F2
:104DC0000C00338784018346F7FF35476387E6008D
:104DD000A6973547050C2380E700B3878401294750
:104DE0002380E700050CE5B589E5930500036FF026
:104DF0005FCC011122CC26CA56C206CE4AC84EC686
:104E000052C40010AA8AAE8463D805009305D0026C
:104E1000EFF03FCAB304904001498149A9472547B3
:104E2000B3F6F4020509B389F902B699B3D6F402D0
:104E3000636397026313090005497D5AA9447D19EC
:104E4000631D4901F2406244D2444249B249224AB8
:104E5000924A05618280B684E1B7B3F5990256851E
:104E600093850503EFF0FFC4B3D99902C9BF7971E7
:104E700022D426D24AD006D64ECE52CC56CA0018DC
:104E8000AA842E8911CE93050003232ED4FCEFF0C3
:104E90005FC2930580072685EFF0BFC18326C4FD5E
:104EA0009149630D0904254AB70A000199E2636A32
:104EB00059039357C90193F5F70F6363FA06938576
:104EC00005032685EFF0FFBE93578901BD8B93F54F
:104ED000F70F634AFA04938505032685EFF07FBD3B
:104EE0008546FD192209E39309FCB25022549254DD
:104EF0000259F249624AD24A456182802685930569
:104F00000003EFF01FBB2254B2500259F249624A2B
:104F1000D24A268592549305000345616FF07FB90C
:104F20009385750579BF9385750545BF011106CE3B
:104F300022CC26CA4AC84EC652C40010AE8493057D
:104F40000003AA89EFF0FFB6930580074E85EFF0C6
:104F50005FB62149370A00A093D5C40163F3440327
:104F6000938505034E857D19EFF0BFB49204E315D8
:104F700009FEF2406244D2444249B249224A0561E4
:104F8000828093857505F9BF411122C60008B737A5
:104F9000021019E1B7370110C84B32440D894101A5
:104FA0008280411122C60008B737021019E1B737D5
:104FB0000110884B32440D8941018280411122C683
:104FC0000008B737021019E1B7370110884B99C1B3
:104FD000C98D8CCB324441018280411122C426C24A
:104FE00006C64AC00008B7270110D85F93F4350001
:104FF00031C5B7067CFFFD16758FD8DF985FB70601
:10500000840013054006558F98DFEFE08FDB416782
:10501000B7370210050798C70547D8C703A9070186
:1050200081C4B364990084CB2945EFE08FD9B240A5
:1050300022444A859244024941018280B706FDFF1D
:10504000FD16758FD8DF985FB7060300130540067D
:10505000558F98DFEFE0EFD6C1673737011085072E
:105060001CC785475CC7A6850145EFF03FF52A8937
:1050700065BF411122C426C206C64AC00008B73423
:1050800002100DE5B73401109C40E3CF07FE130575
:105090004006EFE00FD303A904013707FDFF937724
:1050A000C9FF9CC8B7270110D45F15A09C40E3CF6F
:1050B00007FE13054006EFE0CFD003A90401370730
:1050C0007CFF9377C9FF9CC8B7270110D45F7D1779
:1050D000F98ED4DF945F2945758F98DF9C44F99B46
:1050E0009CC4DC44F99BDCC4EFE0AFCDB240224469
:1050F0004A859244024941018280011122CC26CA8C
:105100004AC806CE4EC60010AE8455C1B72701105E
:10511000D44737077CFF7D17F98ED4C794473706ED
:105120008400AA89D18E94C7D45F13054006758F79
:10513000D8DF985F518F98DFEFE0AFC837370210A4
:105140001C4BF19B1CCB83A7014589C7A9C483A62F
:105150008144B9E6A56793870760639EF402B73779
:1051600002101307101A98CFC1673737021085074E
:105170001CC785475CC7054681454E85EFF09F9863
:105180007DF96244F240D2444249B24913054006D7
:1051900005616FE00FC3B73702101307B008E1B71E
:1051A000B3D79702FD17C207C1831CCF75BFB727BE
:1051B0000110D4473707FDFF7D17F98ED4C79447F8
:1051C0003706030013054006D18E94C7D45F758F50
:1051D000D8DF985F518F98DFEFE0AFBE373701100F
:1051E0001C4BF19B1CCB83A7014589C785CC83A6AB
:1051F000814495EEA567938707606395F402B737FE
:1052000001101307101A98CFC167373701108507AF
:105210001CC785475CC7054681450145EFF09F8E59
:105220007DF985B7B73701101307B008E9BFB3D7C9
:105230009702FD17C207C1831CCFF9B7411106C6FB
:1052400022C426C200080145EFF0BFE2F164938555
:1052500004200145EFF07FEA81450145EFF0FFD7DB
:105260000545EFF01FE1938504200545EFF0FFE8C9
:105270002244B24092448945054541016FF0FFD573
:10528000411122C406C60008EFE0EF9B2244B24061
:105290003735002081451305C53741016FF04FECCC
:1052A000011122CC56C206CE26CA4AC84EC652C4E6
:1052B0000010AE8A19C1EFF04FF1EFE0AFA7AA845A
:1052C000AE89EFE0CFAA2A892E8A63860A007D552F
:1052D000FD55EFE0AFA763673A0363944901636349
:1052E000990233059940B335A900B3093A41B38512
:1052F000B940F2406244D2444249B249224A924AF9
:105300000561828033892441B3B52401B3894941C1
:1053100033052041B334A000B3853541858DD1BF1D
:10532000411122C426C206C60008AA848545054547
:1053300023AA018AEFF0DFF6B240224423A8918A23
:10534000924441018280797122D44AD04ECE52CC0F
:105350005AC806D626D256CA001885692A8A2E89C6
:10536000372B01109389198083240B00B3FA340181
:105370006351D0023685232AE4FC232CC4FC232E5F
:10538000D4FCEFE00FA4032744FD032684FD83260D
:10539000C4FD01C67D166354C000E3873AFD8567EE
:1053A00093C4F4FF93871780FD8C81ECB250225494
:1053B000268502599254F249624AD24A424B4561CB
:1053C000828001C73A85EFE0CF9F63060A00B3F7FA
:1053D0004401E38D47FD631409008144C1BF33F9E3
:1053E0002401E31509FCD5BF411122C44AC006C6F9
:1053F00026C200082A89F3244030856793870780F6
:10540000FD8C99C073B74730B377F90099C705454C
:10541000EFE07FEA2D05EFF00FC013791900630765
:1054200009000545EFE03FE9EFF0EFBE91C4856765
:1054300093870780F3A74730B24022449244024941
:1054400041018280411122C406C626C24AC000081A
:10545000732940308567938707803379F9006304A7
:105460000900F3B74730856413851480EFF0DFF748
:10547000B727011094477D771307E77FF98E94C70C
:10548000D04393861480558ED0C3905F718F98DF80
:10549000D853558FD8D39853558F98D363060900A6
:1054A00093840480F3A44430B240224492440249DD
:1054B00041018280411122C60008376701101C4B50
:1054C000898BF5FF3244084B41018280011106CEE1
:1054D00022CC26CA00104AC8B76401102326C4FE95
:1054E0002324B4FE2A89EFF0FFFC9307000923A6CA
:1054F00024019CC8EFF01FFC832584FEC147CCC467
:105500009CC8EFF03FFB0326C4FE930700056244EE
:105510001376F60FD0C49CC8F240D24442490561CC
:105520006FF05FF9797106D622D426D200184AD0DE
:105530004ECEB76401102A89232EB4FC93090009CA
:10554000EFF05FF723A6240123A83401EFF09FF6C4
:105550008325C4FD9307000513691900CCC49CC8BA
:10556000EFF05FF523A6240123A83401EFF09FF4A8
:10557000930780069CC8EFF0FFF3C444EFF09FF35D
:10558000B250225413F5F40F02599254F249456176
:105590008280411122C6B72706000008938707A81A
:1055A0006305F50061651305056AB7270110D85F2B
:1055B000F576FD16758FD8DF985F8D663244558F6E
:1055C00098DF376701101C4793F7F7F31CC795471F
:1055D000B307F50203A501453355F5027D15937711
:1055E000F50F21811CC31375F50F48C393070008FD
:1055F0001CC741018280411122C60008B7270080E4
:1056000003A587FC3244F1773E951335150041011F
:105610008280411122C60008B727008003A587FCBD
:105620003244C1773E951335150041018280411106
:1056300022C60008374701103C4332442945F19BFC
:105640003CC3B727011023AC070223AE070223A2F5
:10565000070023A8070023A4070023A0070423A60C
:10566000070023AA070041016FD0BFF5397122DC82
:1056700026DA4AD84ED652D456D25AD05ECE66CA10
:105680006AC806DE62CC800093292500371A0080A4
:105690002A898144370D0080B78A0020378B00208B
:1056A00093C91900B77B0020711A856C338CA40153
:1056B000630009029385CA120145EFF0EFCDE28540
:1056C0000145EFF0BF8693054B130145EFF0CFCCBA
:1056D0004E85EFF0CFB083250C002326B4FCEFF00D
:1056E000AFB1630009088325C4FC09C9B785002050
:1056F0009385C5130145EFF02FCAADA0EFF01F83CE
:1057000093858B390145EFF02FC9338C4401630039
:1057100009029385CA120145EFF00FC8E2850145E1
:10572000EFF0DF8093054B130145EFF0EFC64E8598
:10573000EFF0EFAA83250C002326B4FCEFF0CFABEB
:10574000630309048325C4FC55F1EFF02FFE938514
:105750008B390145EFF04FC4E694C567E398F4F444
:1057600011A045D5EFF08FAAF25062542685425918
:10577000D254B259225A925A025BF24B624CD24C2A
:10578000424D2161828069D9F1BF411122C60008D2
:1057900079C593060002254783470500B5CB63848E
:1057A000D7066382E70613070003A946639CE70058
:1057B000834715001307800593F7F70D6397E704F8
:1057C0000905C146834705001307D0026394E70427
:1057D0000505FD55814725431548C148214E930EC7
:1057E00070030347050019CB130607FD137FF60F5F
:1057F000636EE3036397C60363F5EE023385B70276
:10580000324441018280050541BF0505A1465DBFC7
:10581000A9464DBF1307B0028545E39DE7FA05058C
:1058200055BFB387F602B297050565BF1306F7F9B2
:105830001376F60F6369C800E39216FD920713070B
:1058400097FABA97D5B71306F7FB1376F60FE36707
:10585000C8FAE39516FB9207130797FCDDB70145DD
:1058600045B78D4763F0C702B367B5008D8B8D4692
:10587000A9E718419C416312F704711611059105BF
:10588000E3E9C6FE9307F6FF1DC60347050083C67E
:1058900005006317D70213871700930715003A9581
:1058A00001A803C7070083C605008507631AD70050
:1058B0008505E398A7FE014582809307F6FFF1B7BF
:1058C0003305D7408280B3C7A5008D8BB308C500D0
:1058D000A1E78D4763F2C704937735002A87A9EBC8
:1058E00013F6C8FF930706FE6367F7066373C702E4
:1058F000AE86BA8703A806009107910623AE07FF7C
:10590000E3EAC7FE9307F6FF998FF19B91073E9755
:10591000BE956366170182802A87E37E15FF83C7E1
:10592000050005078505A30FF7FEE36A17FF8280D0
:1059300083C60500050793773700A30FD7FE8505BB
:10594000C5D383C60500050793773700A30FD7FE9D
:105950008505F9FF71B7944183A2450083AF8500A7
:1059600003AFC50083AE050103AE450103A3850166
:1059700003A8C5019385450214C383A6C5FF23224E
:1059800057002324F7012326E7012328D701232AE0
:10599000C701232C6700232E070113074702232E7C
:1059A000D7FEE36AF7FA99B73D432A876373C302C8
:1059B0009377F700BDEFADE5937606FF3D8ABA9683
:1059C0000CC34CC30CC74CC74107E36BD7FE11E2B5
:1059D0008280B306C3408A069702000096966780CD
:1059E000A6002307B700A306B7002306B700A30548
:1059F000B7002305B700A304B7002304B700A3032F
:105A0000B7002303B700A302B7002302B700A30126
:105A1000B7002301B700A300B7002300B7008280BE
:105A200093F5F50F93968500D58D93960501D58D49
:105A300061B7939627009702000096968682E780CA
:105A400086FA9680C1171D8F3E96E374C3F8A5B7FA
:105A500093F6F50F93773500CDC285C383470500D4
:105A6000D9CB6398F600CDA883470500C9C76385E5
:105A7000D708050593773500E5FB93F5F50F939768
:105A80008500DD8D1841139305013363B30037089A
:105A9000FFFE3346E3001308F8EF9347F7FF934503
:105AA000F6FF42974296F98F6D8EB7888080D18F2E
:105AB00093880808B3F717019DE311051841334691
:105AC0006700B3070701B30506011347F7FF134645
:105AD000F6FFF98F6D8ED18FB3F71701F9DF83478A
:105AE000050091CB6395F60001A86385D7060505EF
:105AF00083470500FDFB0145828081CF8347050078
:105B000089E791A883470500E5DB05059377350014
:105B1000F5FB18413706FFFE1306F6EFB307C70083
:105B2000B78680801347F7FFF98F93860608F58FB5
:105B300091EB11051841B307C7001347F7FFF98F21
:105B4000F58FE5DB83470500C5DB050583470500C9
:105B5000EDFF8280828082808280B367B5008D8B6A
:105B6000B9EF9841B7867F7F9386F6F7B377D70072
:105B7000B697D98FD58F7D56639CC7042A867D58EA
:105B800011069105232EE6FE9841B377D700B6970C
:105B9000D98FD58FE38607FF83C7050003C715009C
:105BA00083C625002300F60099C7A300E60001C7BD
:105BB0002301D60091E28280A30106008280AA8799
:105BC00003C7050085078505A38FE7FE75FB828067
:105BD0002A86D9B7130101BB23248144232291448F
:105BE00023267143232291432320A143232EB14135
:105BF000B284B68C2326114423202145232E314321
:105C0000232C4143232A51432328614323248143E6
:105C10002A842E8D854B85460146FD5DB387B401F0
