:020000042001D9
:100000009711FF5F9381816A97D202009382C2EBBE
:10001000739052301701FFDF1301C1FE9700FFDF1D
:10002000938040FE638300008290732540F18145F8
:1000300001460D209700FFDF9380C0FC6383000022
:100040008290970200009382C20073905230032383
:100050000000F5BF06849711FF5F938121651701AA
:100060000060130121FA137101FF01E197B204004E
:100070009382C2781703FF5F1303C3F89713FF5FE0
:10008000938303E3638C6200635A730003A5020049
:1000900091022320A3001103E34A73FE97A20400F8
:1000A0009382C2151703FFE71303C3359723FFE7B6
:1000B00093834395638C6200635A730003A5020027
:1000C00091022320A3001103E34A73FE1713FF5F7D
:1000D000130303DE97F3FF5F9383C3AA6357730091
:1000E000232003001103E34D73FE11C2029617D5BE
:1000F0000200130505E2EFC0125DEFC0D264F327E2
:1001000010303707010013078702F98F99C7F327CB
:1001100000300967D98F7390073005459795040023
:100120009385C57C179604001306867CEFB0917604
:0A013000EFC0325BA2808280828063
:10013C0037E70080130787381C47411106C699E33F
:10014C00EFC0E10C9443C8C3854514C713858700E1
:10015C00EFC0F26F411106C622C42A848145EF001C
:10016C00901009C5B24022444101828065DC228591
:10017C00EFC09030411106C68145EF00D00EB24061
:10018C0041018280411106C622C42A84E13709C587
:10019C00B24022444101828065DC2285EFC0D02D23
:1001AC00411106C622C42E840546EF00503A09C5FB
:1001BC00B24022444101828065DC2285EFC0D02B05
:1001CC00411106C6EF00B038B240410182804111A6
:1001DC0006C6EF003022B24041018280411106C6B2
:1001EC009377F500C1EF37E8008013088838832730
:1001FC00C80C6365F5080327080D6371E5088326B1
:10020C00480C1D8D93556500B388B600118103C64B
:10021C00080093773500139717003357E6400D8B82
:10022C000543631D67060327881663E4E5049355AD
:10023C0025000D4389488607B317F30093C7F7FFD2
:10024C00AE96F18F2380F6008326480C0505935556
:10025C002500B387B60003C60700937735001397C4
:10026C0017003357E6400D8BE30717FDB2404101F1
:10027C0082802324B81603C6080055BFB746042055
:10028C0037460420374504209386C6991306868D7D
:10029C009305F0211305C59AEFB09177B74604206A
:1002AC0037460420374504209386869B1306868D9B
:1002BC00930510221305C59AEFB0917501113D05F8
:1002CC0026CA06CE22CC4AC84EC693544500D1CC81
:1002DC0037E90080130989388357C915D9E7835743
:1002EC00E91593B9170099C70327091683274916EF
:1002FC006376F708032789168325890C01446374F8
:10030C00B7060326490C0DA80504637D940893F6E3
:10031C00C70095EE05046371941293F6070385EEFE
:10032C000504637E941093F7070C95EB0504637B2F
:10033C00941005076379B702B307E60083C707007B
:10034C0093F63700F1D293F6C7000144E1D693F649
:10035C0007030144F1D693F7070C0144E1DB0507D1
:10036C000144E36BB7FC63850902F24062448147A8
:10037C00D2444249B2493E8505618280EFB0716436
:10038C00032789168325890C0144E36CB7F6E1BF7A
:10039C00EFB03163032789168325890C8549E36205
:1003AC00B7F6E1B70A07B3068740854713881600EE
:1003BC006317F4009307170089832324F9169357C6
:1003CC0028003E9603450600937738009395170056
:1003DC008547B397B700C98F2300F60089060945F6
:1003EC006364D7020326490C93D5260093F7360095
:1003FC002E96834506008607B317F500CD8F230094
:10040C00F6008506E370D7FE8327C90C032709166F
:10041C001208C297BA94131644003E8581452320D6
:10042C009916EFC0523EF2406244AA87D244424928
:10043C00B2493E85056182800A070507ADB70A07F8
:10044C00090795B70A070D07B9BF93F705FF33875F
:10045C00A740130610043357C702411122C437E4D6
:10046C000080130484382328F40C814506C623220B
:10047C00A40C93166700958F3A862326F40C23243C
:10048C00E40CEFC05238C167232EF414FD5723201F
:10049C0004162322F41623240416B24022444101EC
:1004AC008280B7E700809387873803D7C715050785
:1004BC00239EE7148280B7E700809387873803D7A1
:1004CC00C7157D17239EE7148280B7E7008003D5FC
:1004DC00474E3335A000828037E60080930686387D
:1004EC0083D5C61537E70080130507469307863872
:1004FC00850537E8008013030746239EB61423A016
:10050C00061623AA060C23ACA61413068638938E63
:10051C00470B1307074685480D4E1308084E094F25
:10052C00144293F5F6009DE983A5C70C63E8B60267
:10053C0003A5070D63F4A60203A5470C8D8E93D576
:10054C0066002E9591828342050093F53600860550
:10055C00B3DFB24093FF3F0063821F0D6379E30862
:10056C0083A3470C8322C7FF711723ACE714814682
:10057C008506B385D20013D525001E95834F050043
:10058C008D898605B3D5BF408D89E383E5FF03A52F
:10059C00C70C9206920289821695E9D28A06AA960F
:1005AC008322050013F7F20005EF03A7C70C63E9DC
:1005BC00E2023387E24083AF070D93536700118348
:1005CC0093753700860563FDF20183AF470C9E9F40
:1005DC0083C30F00B3D2B34093F23200638D120188
:1005EC001105E31FD5FA03A78715E36BE3F6110694
:1005FC00E398CEF28280B315BE00B3E5750023807C
:10060C00BF0083A58715938F450063F6050123ACC6
:10061C00F71598C1F1B723AA170DD9B7B315BE00BA
:10062C00B3E555002300B50083A5871563F80501D4
:10063C001387450023ACE71494C10DB723AA170DFB
:10064C002E8729BF638305128A0537E70080B7E838
:10065C00008037EE00803303B5001307873893888A
:10066C00084605488D4E130E0E4E094F1C4193F64D
:10067C00F7009DEA8326C70C63E8D7020326070D13
:10068C0063F4C7020326470C958F93D66700369602
:10069C00834F060093D6470093F736008607B3D5F1
:1006AC00FF408D896386050D8327871563FCF80A47
:1006BC008323470C9386C7FF83A2C7FF232CD71431
:1006CC00814785073386F200935526009E9583CF8C
:1006DC0005000D8A060633D6CF400D8AE303E6FFEC
:1006EC008325C70C9207920289839695C1C38A070A
:1006FC00AE9783A2050093F6F20085EE8326C70C15
:10070C0063E9D202B386D240832F070D93D36600E0
:10071C00918213F63600060663FDF201832F470C17
:10072C009E9F83C30F00B3D2C34093F23200638801
:10073C0002019105E39FF5FA8327871585BF339650
:10074C00CE00336676002380CF0003268715930FE7
:10075C0046006376C601232CF71514C2D9BF232A91
:10076C00070DC1BF1105E313A3F08280B6873DBF0F
:10077C00B397FE00B3E7F7012300F6008327871534
:10078C0063F9C70113864700232CC71494C3B2879F
:10079C0031BF232A070D19BFB7E70080938787382D
:1007AC0083A6870C03A7470D8A067DCF37E8008008
:1007BC00B7E80080130808460D4E894E0543938810
:1007CC00084E23AA070C23AC0715F9CE014521A02E
:1007DC0005056378D50C83A5470C135625001377B4
:1007EC0035002E960346060006073357E6400D8B60
:1007FC00E310C7FF83A687151387460023ACE714C5
:10080C0088C2637AE80883A2470C9306C7FF832F3C
:10081C00C7FF23ACD714014705073386EF00935568
:10082C002600969503CF05000D8A06063356CF4059
:10083C000D8AE303D6FF83A5C70C1207920F098319
:10084C00FE9579C70A072E9783AF050093F6FF0034
:10085C0085EE83A6C70C63E9DF02B386DF4003AFE6
:10086C00070D93D26600918213F63600060663FDDF
:10087C00EF0103AF470C169F83420F00B3DFC2405A
:10088C0093FF3F0063876F0A9105E39FE5FA03A787
:10089C008715E36AE8F683A6870C05058A06E36CE0
:1008AC00D5F203A7470D11FF01480146094E0D4330
:1008BC00854E99E6B1A06301D50705066372D6048F
:1008CC0003A5470C9355260013773600AA9583C8C9
:1008DC000500060733D5E8400D89630DC503E31CFD
:1008EC0065FC3317EE001347F7FF337717012380AE
:1008FC00E50083A6870C050601488A06E362D6FC50
:10090C0003D7C71523A407167D17239EE7148280EF
:10091C003687C5BDE30308FA3317E3001347F7FF27
:10092C00337717012380E50083A6870C05488A06D8
:10093C0069B73316CE00336656002300CF0003A6EA
:10094C008715130F46006376160123ACE71514C206
:10095C0025BF23AA670C0DBFB7E7008093878738A4
:10096C0083A6C70C03A7070D83A8870C03AE470CFF
:10097C00158F18C12322050023240500232605000A
:10098C0023280500232A0500232C05008A0801438F
:10099C008142014F8145014701468146814305480B
:1009AC00894E7296834706008606B3D7D7408D8B47
:1009BC0063880707C1CB6396D70105032322650023
:1009CC00850505076382E80213562700B307CE009E
:1009DC0083C7070093763700939F1600B3D7F74170
:1009EC008D8B99C3E39F07FB638105056395D50147
:1009FC005449850654C9144D63F3B6000CCD638A73
:100A0C00E802638707051356270072968347060092
:100A1C00937637008606B3D7D7408D8BE39C07F9C6
:100A2C00050323226500854569BF1449850614C951
:100A3C00D9B763F3E3032326E501638FE800FA8358
:100A4C00014FD1B7850223245500050F814595BF71
:100A5C00E3E3E3FF014F45BF12039202232265003B
:100A6C0023245500828001113D0526CA06CE22CCD6
:100A7C004AC84EC693544500D1CC37E900801309BF
:100A8C0089388357C915D9E78357E91593B91700E6
:100A9C0099C703270916832749166376F708032796
:100AAC0089168325890C01446374B7060326490C07
:100ABC000DA80504637D940893F6C70095EE050414
:100ACC006371941293F6070385EE0504637E94100C
:100ADC0093F7070C95EB0504637B9410050763797A
:100AEC00B702B307E60083C7070093F63700F1D2CD
:100AFC0093F6C7000144E1D693F607030144F1D6FF
:100B0C0093F7070C0144E1DB05070144E36BB7FCE9
:100B1C0063850902F24062448147D2444249B2499A
:100B2C003E8505618280EFB0C16903278916832554
:100B3C00890C0144E36CB7F6E1BFEFB08168032781
:100B4C0089168325890C8549E362B7F6E1B70A0754
:100B5C00B30687408547138816006317F400930784
:100B6C00170089832324F916935728003E960345D2
:100B7C00060093773800939517008547B397B70015
:100B8C00C98F2300F600890609456364D702032642
:100B9C00490C93D5260093F736002E968345060014
:100BAC008607B317F500CD8F2300F6008506E3709A
:100BBC00D7FE8327C90C032709161208C297BA94CB
:100BCC00131644003E85814523209916EFC0A2439D
:100BDC00F2406244AA87D2444249B2493E8505613B
:100BEC0082800A070507ADB70A07090795B70A07F8
:100BFC000D07B9BF37E80080130888388357C8152C
:100C0C00D1EF49CD411106C69377F500C9EB832688
:100C1C00C80C6366D5088327080D6372F508032694
:100C2C00480C158D935865003303160193564500F7
:100C3C008345030093F736001397170033D7E5402D
:100C4C000D8B0545631DA7060327881663F6E80080
:100C5C00232418178345030013D526000D43894818
:100C6C008607B317F30093C7F7FF2A96ED8F23007F
:100C7C00F6000326480C850613D52600B307A600FC
:100C8C0083C5070093F736001397170033D7E54059
:100C9C000D8BE30717FDB240410182808280B7467D
:100CAC00042037460420374504209386C699130642
:100CBC00868D9305F0211305C59AEFB06155B746A3
:100CCC00042037460420374504209386869B130660
:100CDC00868D930510221305C59AEFB06153937757
:100CEC00F500A9E337E70080130787388326C70C84
:100CFC006368D5020326070D6374C5020326470CEF
:100D0C00158D1357650032971181034707009376B1
:100D1C00350086063357D7400D8B85466307D700C1
:100D2C003E85828081473E858280894585073307D1
:100D3C00F50093562700B29683C606000D8B060766
:100D4C0033D7E6400D8BE303B7FE9207D1BF630D9B
:100D5C000514011106CE22CC26CA4AC84EC6638E93
:100D6C0005102A843D8963110512B7E40080938431
:100D7C00843883A7C40C6369F41003A7040D63754E
:100D8C00E41083A6440CB307F44013D767003697DE
:100D9C0091830347070013F83700060833570741C0
:100DAC000D8B05486312070F03D7C41571EF03AE03
:100DBC00840C9388F500138817000A0E93D848000A
:100DCC0005496376C803894E1357280036970347A5
:100DDC000700137338000603335767400D8B630EFF
:100DEC00D70B11E70505330725016369170B638DD5
:100DFC00280763EE280B3307250163611713B385AE
:100E0C0027013388170163F8050593D72500BE9693
:100E1C0003C5060013F73500931717003357F54039
:100E2C000D8B09460DC329AA03A7440C93D62500A4
:100E3C0093F73500BA9603C5060086073357F5407D
:100E4C000D8B631F070EB317F600C98F2380F600B6
:100E5C008505E31BB8FC338628411315490012069F
:100E6C0081452295EFC0221AA289F24062444E8538
:100E7C00D2444249B24905618280B7E7008083D7EA
:100E8C00474E99E3EFF08FB58149F24062444E85AD
:100E9C00D2444249B2490561828005090508E3152F
:100EAC000EF3E39828F5C9B72E856FF02FC1338761
:100EBC00170113552700AA961376370003C80600AE
:100ECC00931516000D463316B6001346F6FF33760F
:100EDC0006012380C6009306F9FF050763881603F5
:100EEC003E998D4583A6440C135627009377370003
:100EFC00B29603C606008607B397F50093C7F7FFB3
:100F0C00F18F2380F6000507E31E27FD83A78416C7
:100F1C00E37CF5F423A4A416A28985BF35D62E85CF
:100F2C00EFF0CFB9AA892DD113164900A285EFC0D5
:100F3C00C20983D7C415B1FB2285EFF02FAAB1B734
:100F4C00B746042037460420374504209386869DF7
:100F5C001306068E9305A02C1305C59AEFB0412BF2
:100F6C007971480006D622D4C53A3247A2461246B9
:100F7C0037740420B7450420938505931305C45E8C
:100F8C00EF106043C2477247E2465246B745042011
:100F9C001305C45E93854595EF10E041B250225481
:100FAC0045618280797162C437EC0080130C8C38F7
:100FBC000326CC0C26D2B7450420B77404209385A5
:100FCC00C58E1385C45E06D622D44AD04ECE52CCE2
:100FDC0056CA5AC85EC6EF10003E03268C0C0A0691
:100FEC00630E061637D90420B7C9042037AA04208B
:100FFC00B7DA0420014B1309C9DC93894983130A1E
:10100C000A59938ACAB739A8B74504209385C59263
:10101C001385C45EEF10203A03268C0C050B0A06D0
:10102C00637ECB12937B3B009377FB0383264C0CA4
:10103C00860BCDCF93572B00BE9683C7060009476E
:10104C001306D003B3D777418D8BE38FE7FA0D47A7
:10105C001306D006E38AE7FA05471306E002E39588
:10106C00E7FA0327CC0C93174B0013064005BA97ED
:10107C009C43E38B27F91306C004E38737F9130667
:10108C004004E38347F913063005E38F57F737D74E
:10109C00042013070789E389E7F637A70420130711
:1010AC00872313061004E381E7F637A70420130700
:1010BC00C71FE38BE7F437B70420130707EE1306BB
:1010CC006004E383E7F437B7042013070710130613
:1010DC002004E38BE7F237C704201307C7A11306DC
:1010EC00D004E383E7F21306800639BF5A84935782
:1010FC002400B69783C70700137734000607B3D7CD
:10110C00E7408D8B81E70504E363C4FE330664413D
:10111C009307F00763F3C702B74504201982938540
:10112C0085901385C45EEF10002983278C0C137BEC
:10113C0004FC8A076374FB02814BB7071000C117CC
:10114C0013164B00B74504207D8E9385459213856D
:10115C00C45EEF10402683264C0CE9BD2254B250DD
:10116C000259F249624AD24A424BB24B224C138585
:10117C00C45E9254B7550520938585F445616F0084
:10118C00700DB7E7008083A7C73991CFD843637739
:10119C00E5009C4389CBD843E36DE5FE198D110521
:1011AC000A05AA979C433E858280411106C622C43B
:1011BC002A84B7E7008083A7C7398847DC4763F8E0
:1011CC00A702B7E6008093868638D84A5C47138618
:1011DC00170050C791078A07BA9780C3DC4AC843E7
:1011EC00DC473E957D15B2402244410182800905C1
:1011FC000E05EFE03FF81DC1B7E7008093878738F5
:10120C00D44B14C1D842D446369758C1D84B184742
:10121C00060718C523260500C8CB65B7B7E70080BD
:10122C0083A7C73988470605EFB01025AA956373C5
:10123C00B50285679387575013975700BA970347A2
:10124C000500B98F0505E399A5FE13F5F70F01E528
:10125C000545828015458280B7E7008093878738E3
:10126C0037470420130707A2D8CB23AA070A82808A
:10127C00011106CE22CC26CA4AC84EC652C456C24A
:10128C005AC02A8BAE895D372A89B7E7008003AA3A
:10129C00C739631A0A0401450DA81104637194043B
:1012AC00084083470500E39A27FF83471500E39620
:1012BC0037FF4E86DA850905EFB0D24E79FD33053E
:1012CC005441098583274A003E95F2406244D2443A
:1012DC004249B249224A924A024B05618280032A52
:1012EC000A00630C0A00930A0A018324CA008A04C8
:1012FC00D694E3F69AFE568465B70145F9B7011109
:10130C0006CE22CC26CA4AC84EC69307F00F63ED10
:10131C00B7062A892E84A93F2DE193093400B7E73B
:10132C00008003A5C74355C1B7E700809387873872
:10133C0083A5870B83A7C70BCE9763E7F506B7E7A3
:10134C0000809387873803A7C70B83A4470BBA94F5
:10135C004E9723AEE70AA2854A85C93D2380A40097
:10136C00A38084002286CA8513852400EFB0F24541
:10137C0026942301040026850D3DF2406244D2449C
:10138C004249B24905618280B75604209386868B08
:10139C00374604201306C69F9305C00B375504200F
:1013AC001305858EEFA0D1660146CE95EFE05FE187
:1013BC0029C5B7E700809387873803A7870B4E971B
:1013CC0023ACE70A83A7470BBDFBCE849307000829
:1013DC0063F4F900930400082685EFE0BFD9B7E762
:1013EC00008023AEA74205C9B7E7008093878738F2
:1013FC0023AC970A23AE070A99B7B7E4008093840D
:10140C008438014683A5C40B03A5440BEFE05FDBD6
:10141C0023AA040A5DBF4E85EFE0DFD5B7E7008055
:10142C0023AEA742CE8469F14E85EFB0F004411192
:10143C0006C622C42A84EFB0526BAA852285C13518
:10144C00B240224441018280411106C622C426C208
:10145C009307F00F63E1A7022A84AE840D05EFE039
:10146C007FCF88C0A300850088400905B240224484
:10147C00924441018280B75604209386868B37466E
:10148C0004201306C6A09305700F375504201305CE
:10149C00858EEFA0F157011106CE22CC26CA4AC880
:1014AC004EC62A849309250083441500A6854E85D3
:1014BC00C13305E5A6854E85953B2300A400A29477
:1014CC00238104002285D5312A894A85F240624461
:1014DC00D2444249B249056182802A892285EFE0D3
:1014EC001FCFE5B7411106C6693903450500B24067
:1014FC0041018280411106C6693103451500B24095
:10150C0041018280411106C6AD390905B240410145
:10151C008280411106C622C42E84A5318347150052
:10152C001CC00905B240224441018280011106CE43
:10153C0022CC26CA4AC84EC652C456C232843689F8
:10154C002320050023A005002320060023A006006D
:10155C00B7E7008083A4C739BDC4AA892E8AB747D0
:10156C000420938707A26380F406B74A0420938A69
:10157C000AA229A82685EFF08FF6832709003E954D
:10158C002320A9008440A1C0638F540383A70900C2
:10159C00850723A0F90083270A00D844BA97232093
:1015AC00FA0093870401D0440A063E96E3F4C7FC84
:1015BC0098430347170014408D06369718C09107BF
:1015CC00E3E8C7FE45BF832709001840BA972320DC
:1015DC00F900F2406244D2444249B249224A924A4A
:1015EC0005618280011106CE22CC26CA4AC84EC69D
:1015FC0052C456C2B7E7008003AAC739630B0A046A
:10160C00B7470420938707A26305FA04B75904204F
:10161C0037790420B74A0420938A0AA239A0032AF6
:10162C000A0063080A0263065A0313040A0183249E
:10163C00CA008A04A294E37494FE104009069385B0
:10164C00098B1305C95EEF0010571104E36794FE74
:10165C00F9B7F2406244D2444249B249224A924A12
:10166C00056182805C41BE951C4163FDB702034756
:10167C00C500058B814705EB411106C622C426C265
:10168C00AA841384050161982104A2850845EFE022
:10169C003FB180C088C485473E85B2402244924405
:1016AC004101828085473E858280411106C622C455
:1016BC0026C24AC02A842E89B284B285653711E9C4
:1016CC008347C400858B85C35C40044063FD970051
:1016DC009D8C08445C402686CA853E95EFB052101E
:1016EC005C40BE9444C0B240224492440249410141
:1016FC008280411106C622C42A8491E185450CC022
:10170C00232204002E85EFE0FFA408C48347C40005
:10171C00F99B2306F400B24022444101828041111E
:10172C0006C622C426C2AA842E848505D937C0C019
:10173C00B24022449244410182800CC12322050014
:10174C0010C58347C50093E717002306F500828078
:10175C00411106C622C426C2AA843284593F04C051
:10176C00B71701209387676B5CC0B2402244924448
:10177C0041018280411106C622C42A845C45858BB6
:10178C0099C723240400B2402244410182800845B9
:10179C00EFE0FFA3FDB78347C500858B9DE74111A3
:1017AC0006C622C426C2AE842A840C41A6950845DE
:1017BC00EFE01F9FAA870C402E95A6950CC01CC469
:1017CC00B240224492444101828001458280411101
:1017DC0006C622C426C22A84AE84693519C94C4077
:1017EC0008442E95A6954CC0B24022449244410127
:1017FC0082800145D5BF411106C622C42A841841F6
:10180C005C41630CF7001C445840BA9723800700D6
:10181C000844B2402244410182808545AD3F65F5C4
:10182C00CDBF411106C622C42E8485454D3719C142
:10183C0023008500B240224441018280411106C63A
:10184C0022C42E849307F00763FDB7049307F07F3F
:10185C0063F2B706C16763EFF506B707110063F3D0
:10186C00F50A9145AD3739C19357240193E707FF2A
:10187C002300F5009357C40093F7F70393E707F899
:10188C00A300F5009357640093F7F70393E707F869
:10189C002301F5001374F403136404F8A301850009
:1018AC0031A085452D3719C123008500B240224453
:1018BC00410182808945213F75D99357640093E794
:1018CC0007FC2300F5001374F403136404F8A3005D
:1018DC008500E9BF8D45E53D71D99357C40093E769
:1018EC0007FE2300F5009357640093F7F70393E783
:1018FC0007F8A300F5001374F403136404F8230130
:10190C0085006DB7B77604209386064E3776042093
:10191C001306064D9305000B377504201305054F70
:10192C00EFA0110F411106C622C426C2AA842E8430
:10193C002E85EFB0921B2A86A2852685BD33B24038
:10194C002244924441018280011106CE22CC26CA47
:10195C004AC84EC62A84B2894441268963F395004D
:10196C002E89639C09001C44CA973E85F240624450
:10197C00D2444249B24905618280CE852285DD314F
:10198C00814765D51C443385290133862441B385B1
:10199C0027013E95EFB0C2645C40BE99232234010E
:1019AC00D9B7411106C622C432840546713F19C10C
:1019BC0023008500B240224441018280411106C6B9
:1019CC0022C432840546493719C123008500B24030
:1019DC00224441018280584181476364B700B307B8
:1019EC00B7405CC18280584163FFE502B386C500F5
:1019FC0063E4E6004CC18280411106C622C426C2B3
:101A0C00B284AE872A8408453306D740B305D50087
:101A1C003E95EFB0E25C5040058E50C0B24022447F
:101A2C009244410182808280011106CE2AC4B717EC
:101A3C0001209387676B3EC62800C12BF2400561DD
:101A4C008280411106C62E85B285EFB0A102B2404C
:101A5C0041018280411106C622C426C24AC02A898D
:101A6C00AE842E85EFB072082A8401C98327490001
:101A7C002A86A6850325090082972285B240224436
:101A8C009244024941018280397106DE22DC26DA59
:101A9C004AD84ED652D456D25AD05ECE62CC66CAF2
:101AAC00AA84AE8C328CA307E100918F1376F70DCC
:101ABC0009CA13060003630BC702130AF100854A17
:101ACC0031A0377A0420130A8A67C14A13FB06082F
:101ADC0063040B0213DBF7013E9B135B1B40338447
:101AEC006741635060055A89D68B2DA0377A042044
:101AFC00130ACA68C14AD9BF13F416000DE03E8B15
:101B0C00CDB7DC404E86D285884082973309394167
:101B1C00635A2001DE89E35659FFCA89DDB73E843A
:101B2C0011A0014B63080C00DC406286E6858840FE
:101B3C008297629B63538002229BD68911A8DC405A
:101B4C004A86D285884082973304244163578000AB
:101B5C004E89E35654FF2289DDB75A85F250625400
:101B6C00D2544259B259225A925A025BF24B624CED
:101B7C00D24C21618280397106DE22DC26DA4AD809
:101B8C004ED652D456D2AA89BE84428A4689A30F15
:101B9C00010009CA63C90504898BBDC39307B00250
:101BAC00A30FF100B9E593070003A30DF100130493
:101BBC00B10193FA0404638D0A088347F101814A49
:101BCC00ADEFCA875287A6867008018EA2854E8516
:101BDC00653D5695F2506254D2544259B259225A2C
:101BEC00925A216182809307D002A30FF100B305B2
:101BFC00B04060083683A54859171308C1000DA0E2
:101C0C0093F74400C5D393070002A30FF10059BF0B
:101C1C007D142300C40063000403E3EC65F8AA857B
:101C2C00B3F7D50233D5D50213860703E3D2F8FEFA
:101C3C003306F700F1BF6000ADBF85475287A6861B
:101C4C0005469305F1014E858135AA8A7D1995BF0C
:101C5C008347F101BDD77800E37587F6A30FF4FE37
:101C6C007D1485B71D7186CEA2CCA6CACAC8CEC6B5
:101C7C00D2C4D6C2DAC05EDE62DC66DAAA8B2E89EA
:101C8C00328A368C3A843E8BC28AC689137776FFA9
:101C9C0089476306F702930786FFDD9B8DC3B776F2
:101CAC0004209386465F377604201306065D930561
:101CBC00000D3775042013058562EFA061559377ED
:101CCC00190095E39377390089EB03270900B7B71F
:101CDC0004209387074F6308F7004A85EFC0600222
:101CEC000605136915009377140889E71307000399
:101CFC006307EB044A85EFF0C0326410634B0500B8
:101D0C0093772400B1C39307B0022306F102930426
:101D1C00D10293770401A9CF89476302FA04A14742
:101D2C00630DFA0CC1476315FA0493070003238073
:101D3C00F40093077C01A380F400890415A863D3F5
:101D4C003A01CE8ABE897DB7937744006410F1D3F3
:101D5C00930700022306F1029304D1025DBF93079F
:101D6C0000032380F40093071C00A380F400890473
:101D7C00238004007C109D8C9378040293B8180087
:101D8C00B308104193F848FD9388C8027C083ECCF8
:101D9C00C1473ECA02C8854763D03709136404049F
:101DAC00A30701001378FC0F81475287CA861008DD
:101DBC004C082808EFE010682A8A034705009307AF
:101DCC00D002630BF716930C0004854763D73707D3
:101DDC004247CE8763D3E900BA8763870C00034779
:101DEC00F10063180716A69763D85711137C1400DB
:101DFC0063000C0A338CFA4009A29307000323807A
:101E0C00F4009377042099E385049DB79307EC00C5
:101E1C00A380F4008904A9BFA3070100937C0404E8
:101E2C0063920C0E1378FC0F7C105287CA86100834
:101E3C004C082808EFE010602A8A014C014993777E
:101E4C00040489C78347F100ADE7BDEC854763D334
:101E5C003701CE8AD6875A87A2864246D2855E85BE
:101E6C0025312A99631D0C0662457C086304F50034
:101E7C00EFE0EFB54A85F6406644D6444649B6498C
:101E8C00264A964A064BF25B625CD25C25618280E4
:101E9C007998B387FA401307000281460146B725AB
:101EAC000520938585C75E85C5362A89130B0003EB
:101EBC0079B785470147814605469305F1005E8554
:101ECC00E1362A99FD1A51B7854701478146268686
:101EDC006C105E85553E2A99B38A9A4085BFE2877D
:101EEC001307000281460146B7250520938585C757
:101EFC005E85593E2A998DBF014C7998130B0003CE
:101F0C00014935BF1378FC0F81475287CA861008E8
:101F1C004C082808EFE010522A8A03470500930763
:101F2C00D002E314F7EA050A9307D002A307F100E5
:101F3C00C247FD173EC811B7130A15009307D0020C
:101F4C00A307F10042477D173AC8CE8763D3E90057
:101F5C00BA87850749BD397106DE22DC26DA4AD8F4
:101F6C004ED652D456D22A8A2E853684BA8ABE8947
:101F7C004287898A9307B00291E693774400B3377E
:101F8C00F0009607B286130600028A85EF80505641
:101F9C00AA849377041095C3930715007D47636E4D
:101FAC00F7001810B304A700130750022380E4FEB7
:101FBC0018103E97230007FEBE84137904048A850B
:101FCC0063090900034701009307F002014963F21A
:101FDC00E702CE875687A2862686528575344A95A7
:101FEC00F2506254D2544259B259225A925A216137
:101FFC0082808547014781460546528571342A897E
:10200C00FD19FD1493051100E9B75D7186C6A2C4D4
:10201C00A6C2CAC04EDE52DC56DA5AD85ED662D49C
:10202C0066D26AD06ECEAA8C328C814B9309500248
:10203C00377D0420130D0D50B77D0420ADA2AE8466
:10204C0079AA93E41400050483470400638F0732D4
:10205C00E389E7FE638CD700638DC700638EB700FE
:10206C00639FA70093E40404BE8AF1BF93E42400A9
:10207C00D9BF93E44400C1BF93E48400E9B703479C
:10208C000400930707FD93F7F70F25460149A54672
:10209C006362F602931729003E9906093A991309CF
:1020AC0009FD050403470400930707FD93F7F70F99
:1020BC00E3F2F6FE9307E0027D5A630AF7028347C8
:1020CC000400938747F993B717003E94034B040021
:1020DC0063030B2C9307BBFB93F6F70F130730032B
:1020EC006367D72693972600EA979C43828703471A
:1020FC0014009307A002631CF7000904032A0C00C8
:10210C00110C9347FAFFFD87337AFA004DBF050493
:10211C00930707FD93F7F70F2546014AA546E3629F
:10212C00F6FE93172A003E9A060A3A9A130A0AFDFB
:10213C00050403470400930707FD93F7F70FE3F239
:10214C00F6FEC1B7130A4C0083270C0099CFCA873F
:10215C005687A6861146B7750420938585636685D8
:10216C00EFF09F92AA9B528C2DA8CA875687A68601
:10217C00154693850D646685EFF01F91AA9B528CD2
:10218C000DA0130A4C0083270C002306F100CA870C
:10219C005687A68605466C006685EFF0FF8EAA9BD7
:1021AC00528C9305140083C705006386071EE388D1
:1021BC0037E9AE84850483C7040099C3E39C37FFD9
:1021CC0063F9951C3384B44083A74C00228603A585
:1021DC000C008297A29B83C70400638E071A13849A
:1021EC00140083C71400638F0718930A00028144FC
:1021FC001307D0029306B0021306000293051002D7
:10220C0013050003B1B5130B4C006C0003250C0037
:10221C00EFF02FB0AA85634C0A00CA875687A686B2
:10222C0052866685EFF05F86AA9B5A8C9DBF324A18
:10223C00EDB7130B4C00032C0C0063040C02634D24
:10224C000A00CA875687A6865286E2856685EFF015
:10225C00BF83AA9B5A8CB1B76285EFB002092A8A58
:10226C00CDB7CA875687A6861946B77504209385BD
:10227C0085646685EFF05F81AA9B5A8C1DB7130AA3
:10228C004C00CA885688A68713071006A946014633
:10229C0083250C006685EFF01F8EAA9B528C11B71C
:1022AC00130A4C00CA885688A68713071006A9463D
:1022BC00054683250C006685EFF0FF8BAA9B528C9C
:1022CC00CDB5130A4C00CA885688A687130710068A
:1022DC00C146014683250C006685EFF0DF89AA9B79
:1022EC00528CC1B5130A4C00CA885688A6871307AE
:1022FC001004C146014683250C006685EFF0BF87AC
:10230C00AA9B528C79BD130A4C00CA885688A687A2
:10231C0013071006C146014683250C006685EFF0B5
:10232C009F85AA9B528CB5BD93077C00E19B138CB7
:10233C0087008843CC43EF1023435288CA875687C3
:10234C00A6865A86AA8566853931AA9B99BD631BD8
:10235C003B0183A74C000546A28503A50C00829780
:10236C00850B81B5B77604209386066537760420F5
:10237C001306065E9305302237750420130585621B
:10238C00EF901169930A000281440347040001494C
:10239C0015B3AE84A9B55E85B6402644964406496D
:1023AC00F259625AD25A425BB25B225C925C025D79
:1023BC00F24D61618280397106CE32D436D63AD86C
:1023CC003EDA42DC46DE301032C68131F240216109
:1023DC0082800347050093178701E18763D80704C0
:1023EC009377F7071377070411CB13070004934671
:1023FC00F7FFF58F0583B3F6E700F5FA03471500F1
:10240C001376070C930600086310D6020505130615
:10241C0000089A0705051377F703D98F03470500C2
:10242C009376070CE387C6FE3E858280BA87EDBFA4
:10243C00130715008347150093F7070C9306000844
:10244C006399D70005078347070093F7070CE38BC5
:10245C00D7FE3A8582806372B50201479306000865
:10246C00FD1583C7050093F7070C958FB337F00064
:10247C003E97E317B5FE3A8582800147EDBF2A8768
:10248C00AA956371B50201459306000883470700BE
:10249C0093F7070C958FB337F0003E950507E3973C
:1024AC00E5FE8280014582809307F00763ECA7006C
:1024BC00B77704209387076AAA9703C5070005819D
:1024CC0005898280014582809307F00763ECA700A1
:1024DC00B77704209387076AAA9703C507000D8175
:1024EC0005898280014582809307F00763ECA70081
:1024FC00B77704209387076AAA9703C50700098159
:10250C0005898280014582809307F00763ECA70060
:10251C00B77704209387076AAA9703C50700198128
:10252C0005898280014582809307F00763E1A70249
:10253C00B77704209387076AAA9703C70700318BE4
:10254C00854719E7130515FA9337150011A0814734
:10255C003E8582809307F00763ECA700B7770420D1
:10256C009387076AAA9703C50700118105898280A2
:10257C00014582809307F00763ECA700B77704202E
:10258C009387076AAA9703C507001581058982807E
:10259C0001458280411106C622C42A84653F11E59B
:1025AC002285B24022444101828013040402CDBF33
:1025BC00411106C622C42A84753F11E52285B2401A
:1025CC002244410182800114D5BF130505FDA547A6
:1025DC0063F5A7001375F5FD651582809387E5FFFC
:1025EC0063EBA70003D7E5FF19E7F91763E5A7002D
:1025FC0003D707007DDB89073385A74005858280DB
:10260C00AA8763E8D504054563E2B6041397150061
:10261C00BA973A96A9C11387E7FF9306E6FF83D7CB
:10262C00E7FF0356E6FF918F63C907026349F00287
:10263C00FD1591CD7917F9168357070003D60600BF
:10264C00918F63C00702E355F0FE0545828001457A
:10265C0082807D558280014582807D558280054532
:10266C0082807D55828093D7460063FBC7041D8E04
:10267C0029C2BD8A1308250085078607BE953287B7
:10268C00054329A883D70500C207B3E71701B3D7C1
:10269C00D700231FF8FE7D170908890583D8E5FFAD
:1026AC00E362E3FE4285B3D7D800231FF8FEE314A0
:1026BC0067FE8357E5FF93B717001D8E3285828026
:1026CC000146EDBF198E39CF3A8E2E83AA888147E9
:1026DC000358030083DE06007698C2972390F80017
:1026EC00C1837D1E890809038906E3130EFE0607C4
:1026FC00B308E500BA9519CEB286468703D8050013
:10270C00C2972310F700C183FD1609078905FDF652
:10271C000606B29881C72390F80089083385A84033
:10272C0005858280BA87AA88F9B7411106C6198E29
:10273C0029CF3A8E2E83AA88814703580300C2976B
:10274C0003D80600B38707412390F800C1877D1E8C
:10275C00890809038906E3120EFE0607B308E50093
:10276C00BA9519CEB286468703D80500C2972310B6
:10277C00F700C187FD1609078905FDF60606B29814
:10278C00C685A93DB24041018280AA888147D1BF4C
:10279C0019CD411106C622C42A840845EFD03FA3A7
:1027AC002285EFD0DFA2B240224441018280828098
:1027BC00411106C622C426C2AA842E84894763F31B
:1027CC00F5000944884409C59C40898363FF870050
:1027DC009C40898B85E393151400EFD07F9C88C4B3
:1027EC000A049C408D8B5D8C80C0B2402244924484
:1027FC0041018280B7760420938686773776042051
:10280C001306C6729305702D377504201305857851
:10281C00EF901120411106C622C426C2AA8431456C
:10282C00EFD05F932A849C4013F717001C41F99B4F
:10283C00D98F13F7D7FF18C18840098113172500CA
:10284C00858BD98F1CC0DC405CC09C448DC30605B5
:10285C00EFD05F9008C49040098206068C44EFA02C
:10286C00C2762285B24022449244410182802324C4
:10287C000400C5BF232005002322050023240500E6
:10288C00828001C51C41898B91C38280411106C68F
:10289C000845EFD0DF93B24041018280411106C65A
:1028AC0022C426C22A84AE84CC4119379C4013F72B
:1028BC0017001C40F99BD98F1CC0D04050C0060695
:1028CC008C440844EFA06270B2402244924441010F
:1028DC00828081E5232205008280411106C622C434
:1028EC0026C2AE842A848945E1352687814763C890
:1028FC0004021440F99AD58F1CC0232204001444FE
:10290C005C401386170050C08607B6972390E700EB
:10291C00418375F7B24022449244410182803307CF
:10292C0090408547F9B7411106C622C426C22A84B5
:10293C00AE848937A6852285693FB24022449244F1
:10294C0041018280411106C60A061366260010C199
:10295C00232205000CC5B685AD3FB24041018280F3
:10296C00011106CE22CC26CA4AC84EC62A84AE8491
:10297C003289B68991452D3D63840900634709046A
:10298C00A6864A851C40F99B1CC023220400B3E494
:10299C0024018DC418445C401386170050C0860770
:1029AC00BA972390D7001317050193D70601D98F37
:1029BC0013570501BE863A85D98FE9FFF240624470
:1029CC00D2444249B24905618280B3069040333506
:1029DC00D000B30420413385A4401C4093E717007A
:1029EC001CC0232204007DB7011106CE22CC26CABE
:1029FC004AC84EC652C4AA8413D7F5011C41F99B90
:102A0C00D98F1CC1B707807FED8FA5CB3707807F8F
:102A1C00638FE70613D775011377F70F930717F832
:102A2C0063CA0706BDCB930617F913D9F641137980
:102A3C00F900369913594940B70680001384F6FF04
:102A4C006D8C558CD94663CDF6045D47B307F740C2
:102A5C003354F400CA85A93B23A2240181476300A7
:102A6C00F90286079315190098443E9723108700A6
:102A7C0041808907E39AF5FE19A08145993DF24002
:102A8C006244D2444249B249224A0561828081455E
:102A9C008935F5B78145353DDDB785451D3DC5B754
:102AAC0093D9F74193D6C901B389D70093F9F900AB
:102ABC00B389D940A51993F9F9001307A7F6135A4E
:102ACC00F741137AFA005297135A4740CA85CD3111
:102ADC0023A2240163080A0013161A0081458844B6
:102AEC00EFA062526381090293071A009844060A08
:102AFC003A9A331734012310EA004147B30937419E
:102B0C0033543401A9BFD28799BF011106CE22CC10
:102B1C0026CA4AC84EC652C49307400263E0E70473
:102B2C002A84AE89368ABA843389C5000E06935539
:102B3C0046008505B539137A1A001440F99AB3E6A4
:102B4C00460114C02322040063FC290B4E85254E3C
:102B5C00E54EC168FD1833F314018DA8B776042037
:102B6C009386067A377604201306C6739305A0362F
:102B7C003775042013058578EF9081691387F7F971
:102B8C0063E6EE06138797FA6372970603288400B0
:102B9C005C4033771701A1CBBE85C28603D60600F5
:102BAC003306C30232972390E6004183FD15890654
:102BBC00F5F58607C29701C72390E7008907B3870D
:102BCC00074185875CC005056301A90283470500A1
:102BDC00138707FDE37AEEFA1387F7FBE3E0EEFACF
:102BEC00138797FC55B7C287F9B74A85330535412A
:102BFC00F2406244D2444249B249224A0561828081
:102C0C004E85EDB7011106CE22CC26CA4AC84EC657
:102C1C00AA893284B684054991C59307F6FFB3841B
:102C2C00F6007D5993153400BD0591814E854936CA
:102C3C0083A70900F99B23A0F90023A209000147EF
:102C4C0081473D460148C28825E029A883A6890012
:102C5C0003A749001306170023A2C90006073697DD
:102C6C002310F70003A5890083A549008605AA95C2
:102C7C00EFF0DF9623A2A900F2406244D24442490D
:102C8C00B2490561828083A5890083A6490013851A
:102C9C00160023A2A9008606AE962390F6004117D3
:102CAC00C687E342E6FEC28783C60400B396E600FD
:102CBC00D58FC207C1832107CA947D1441D8E3552F
:102CCC00E6FED1B7411106C622C42A84032845006A
:102CDC0063150800DC4101459DC39C41858B084070
:102CEC0005893385A74001EDD4419045C285084440
:102CFC00EFF01F911C40858B99C33305A040B24067
:102D0C00224441018280411106C622C42A846303F5
:102D1C00B50069361C40F99B1CC0B24022444101ED
:102D2C008280411106C622C42A846303B500BD36D5
:102D3C001C4013C7F7FF058BF99BD98F1CC0B24001
:102D4C00224441018280011106CE22CC2A846303E5
:102D5C00B500A936504015C61C40858BA9C31C4034
:102D6C00F99B1CC085472317F10005479306E1002A
:102D7C000C442E85EFF07F9B48C0F2406244056105
:102D8C00828085452285EFF0BFA218448547231029
:102D9C00F7005CC01C4093E717001CC0F9BF9305FB
:102DAC0016002285EFF0DFA085472317F1000547B9
:102DBC009306E10050400C442E85EFF0BF9048C0C4
:102DCC001C4093E717001CC04DBF011106CE22CC4E
:102DDC0026CA4AC84EC652C456C2AA892E89CC41AC
:102DEC0099C1328411EECA854E85EFF03FABF240AB
:102DFC006244D2444249B249224A924A05618280D5
:102E0C00130AF600135A4A00D295EFF07F9A03A5E5
:102E1C00890003278900032849003D8811E04144BB
:102E2C00B3040A01B707008093C7F7FFB38AF40015
:102E3C00860A5695C29786073E9763090808C2858D
:102E4C00AA868147C148B388884003560700D18FB2
:102E5C0033D617012390C600C207FD15F916791752
:102E6C00EDF5060833050541414733048740B3D7D8
:102E7C0087002310F50033044041060409042A940A
:102E8C00370600801346F6FF5296060681452285CA
:102E9C00EFA0621799CCB307540183D7070091EBCD
:102EAC0013852A002295FD1489C479158357E5FFF3
:102EBC00FDDB23A299008327090013F7170083A7D2
:102ECC000900F99BD98F23A0F90015B7C28769BFF8
:102EDC00011106CE22CC26CA4AC8AA842E84CC4123
:102EEC0099C1328919EAA2852685EFF03F9BF24001
:102EFC006244D244424905618280EFF07F8BCA86DE
:102F0C0050400C448844EFF00FF6C8C01C4013F737
:102F1C0017009C40F99BD98F9CC0858BE9DB93559E
:102F2C0049002317010003284400E30208FCBD47B5
:102F3C0063FE270518448357070081EF0907814773
:102F4C0085076385070563F3B70409078356E7FF15
:102F5C00E5DA85472317F10063FE05051C44860559
:102F6C00BE9503D705001379F9008547B397270160
:102F7C00FD17F98FA1C325A805479306E1002A8602
:102F8C008C442E85EFF00FF4C8C095B7E3F105F72C
:102F9C001C448605BE9503D705001379F9008547B7
:102FAC00339927017D1933792701E30209F4854709
:102FBC002317F10071F1984485472310F700DCC00A
:102FCC003DB7411106C622C426C24AC02A892E84A6
:102FDC00B28454421046CC410844EFF06FE2634592
:102FEC0005041C409840B98F858BB9E34C4085058E
:102FFC004A85EFF0EFFBD840944450400C44032535
:10300C008900EFF02FEC2322A9001C4013F71700C6
:10301C0083270900F99BD98F2320F900B240224461
:10302C009244024941018280A2872684BE8455BF06
:10303C004C404A85EFF0CFF7D840944450400C44B4
:10304C0003258900EFF06FEE2322A9007DBF01114B
:10305C0006CE22CC26CA4AC84EC62A892E84B284F1
:10306C0054421046CC410844EFF08FD98149634952
:10307C0005041C409840B98F858BA1CB4C4085052D
:10308C004A85EFF0EFF2D840944450400C440325AD
:10309C008900EFF02FE32322A900638709041C4069
:1030AC0093C7F7FF858B03270900799BD98F2320C2
:1030BC00F900F2406244D2444249B249056182802F
:1030CC00A2872684BE8485496DB74C404A85EFF0B3
:1030DC002FEED840944450400C4403258900EFF067
:1030EC00CFE42322A90055BF1C40858B6DBF011175
:1030FC0006CE22CC26CA4AC84EC62A892E84B28451
:10310C00D8415C426374F7003284AE844C401C405E
:10311C00858B054799E39840058BBA954A85EFF066
:10312C002FE903258900032F84004C4083AF8400D2
:10313C0083A244001C409840B98F858B014681E7DF
:10314C001840137617001C40858B944013F816001A
:10315C00B338C000B3081041C20893D80801B30EAD
:10316C00F040C20E93DE0E01330E0041420E135E90
:10317C000E01C1C9AA832E83F289C160FD1025A05E
:10318C00C29633F7D70033471701337717003297BE
:10319C002390E30013D80601C1831356070189035A
:1031AC00090F6304030203570F0033C7EE00BA97ED
:1031BC007D13338762000D8FCE86E363E3FC83D6E9
:1031CC000F00B346DE00890F65BF8605AA9509C6B8
:1031DC0085472390F5008905EFF04FC02322A90005
:1031EC001C409840058B7D8F83270900F99BD98F54
:1031FC002320F900F2406244D2444249B2490561AD
:10320C008280AA85E9B7011106CE22CC26CA4AC80B
:10321C004EC62A892E84B284D8415C426374F7006E
:10322C003284AE844C401C40858B054799E3984012
:10323C00058BBA954A85EFF0AFD703258900832E0D
:10324C0084004C4003AF840083A244001C40858B57
:10325C00054699E39040058A328E1C40858B94403C
:10326C0013F816003306C04042064182B30FF040FB
:10327C00C20F93DF0F0133030041420313530301C9
:10328C00C9C5AA83AE889A89C160FD101DA0C296DB
:10329C0033E7D700318F3377170072972390E30011
:1032AC0013D80601C183135E07018903890E638459
:1032BC00080203D70E0033C7EF00BA97FD18338707
:1032CC0012010D8FCE86E3E4E8FC83560F00B34663
:1032DC00D300090F6DBF8605AA95631A0E02EFF095
:1032EC00EFAF2322A90018409C40D98F13F7170089
:1032FC0083270900F99BD98F2320F900F2406244FF
:10330C00D2444249B24905618280AA85F9B7B776A1
:10331C0004209386467937760420130606729305AB
:10332C0030153775042013058578EF80716E4111C7
:10333C0006C622C426C24AC02A892E84B284D84129
:10334C005C426374F7003284AE844C401C40858B25
:10335C00054799E39840058BBA954A85EFF04FC520
:10336C0003258900032384004C4003AE840003AF83
:10337C00440018409C40B346F70013F8160013475E
:10338C001700058B93C71700858BD9C1AA8FAE8800
:10339C0041667D1605A0B697B346F700F18EC2962E
:1033AC002390DF00C183418313D80601890F0903E1
:1033BC006383080283560300B2963697FD18B30E4A
:1033CC001F01B38EBE40B286E3E7D8FD83560E00D4
:1033DC00B296090EC9B78605AA95630608008547FB
:1033EC002390F5008905EFF06F9F2322A900184068
:1033FC009C40B98F13F7170083270900F99BD98FCD
:10340C002320F900B24022449244024941018280B7
:10341C00AA85E1B7011106CE22CC26CA4AC84EC6EF
:10342C002A84DC41B9CBAE8432895C42B9C7638B48
:10343C00A50481496301A606CC4083274900BE95AB
:10344C002285EFF0EFB6104009820606814508444C
:10345C00EF90723B8322840003AF840003A34400EB
:10346C008328890083254900C9C5931613009696B5
:10347C00330E6040060E814F0DA881452285EFF07A
:10348C004FC571A02E85EFF0EFB8AA84AA89E31579
:10349C0089FA2A8955B73285EFF0CFB72A89AA89DC
:1034AC0061BFFD1589088906A9C1B307DE001A881A
:1034BC007A857E87E30703FE0356050083DE08004A
:1034CC003306D60383DE0700769632972390E70007
:1034DC0041837D1809058907E31008FEB68771D36F
:1034EC002390E600938726006DBFB387574093D592
:1034FC0017404CC09C4003270900B98F13F71700E5
:10350C001C40F99BD98F1CC04E85EFF06FA8F24080
:10351C006244D2444249B24905618280411106C6D7
:10352C0022C426C24AC02A89DC4185CF32841C427F
:10353C00858B85EB5C42A1C32E85EFF0AFADAA84E1
:10354C002285EFF02FAD2A8485454A85EFF06FB8C0
:10355C005C40A1EB2685EFF0AFA32285EFF04FA3E3
:10356C0029A081454A85EFF0CFB6B240224492445F
:10357C000249410182808545EFF0AFB5FDB7268643
:10358C00CA854A85413D854650400C442E85EFF056
:10359C008F8D48C061D12686A6852685A53D5C40C9
:1035AC00D5DB1C4483D70700858BF1DFC9BF39718C
:1035BC0006DE22DC26DA4AD84ED652D456D25AD05F
:1035CC005ECE62CC66CADC42638F0712AA842E845C
:1035DC00328AB68A4C428505EFF08F9D03264A004D
:1035EC000506060681458844EF90F22123A20400CB
:1035FC0083254A0085052285EFF08F9BD285228595
:10360C00EFF0CFA90329840083AB8A0003AB4A00F7
:10361C0083A98400032C4400DA865E86E2854A8501
:10362C00EFE01FFE630105106340051437050080B1
:10363C001345F5FF5A950605B388AB0083D60800F1
:10364C0093970601C18763C407120147939716002D
:10365C0005074207418393960701C1821396070120
:10366C00E35606FE060C4A9C23100C005C408507B2
:10367C005CC093961700CA96637AD902CA868145B4
:10368C0041483308E84083D706003396E7004D8E57
:10369C002390C600B3D7070193950701C181890612
:1036AC005C40139617004A96E3EFC6FC3A8F83D220
:1036BC000800B392E200854663FD6601B386AB0059
:1036CC0083D6E6FF41463307E64033D7E600B3E244
:1036DC00E200370600801346F6FFB386C700860665
:1036EC00CA96B3876741DCC0B297139617004E9603
:1036FC005C406379FB183385A6407915814F416393
:10370C007D137E8E09AAB77604209386467637768B
:10371C000420130606759305A05E37750420130567
:10372C008578EF80F12E2322040085472390F90041
:10373C00DCC083270A0003A70A00B98F858B81CBD5
:10374C009C4093E717009CC05C406399071CF250A7
:10375C006254D2544259B259225A925A025BF24BD9
:10376C00624CD24C2161828023A20400D9B701475C
:10377C00D5BDB387FC40E2973307F0404207418345
:10378C0093DC0701B3F76700B337F000BE9C2390BE
:10379C00E8008908890E63FFD8021358080183D703
:1037AC000E00B397E70133E8070133776800330C59
:1037BC00B70283D70800E37EFCFA33878741E3FA2C
:1037CC00ECFA338797413307874142074183F28CE8
:1037DC007DBFFE8C03D8060063E10C0333880C41DB
:1037EC0013570801B3776800B337F000BA97330862
:1037FC00004123900601A9EB29A03308984123909E
:10380C0006012310B6007916F9165C40FD175CC052
:10381C0079156379FB0683D50600C20583D7E6FFCD
:10382C00DD8DB3D55502AA83E375D5FAAA88DE8E51
:10383C00FE8C7E889DB703D7060076972390E60012
:10384C004183998FFD15D5DFF28EE3F6D3FE9E886A
:10385C005E8CF28E72881358080103570C003317D4
:10386C00E7013368070103D70800B37C680066974B
:10387C0076972390E800935E07018908090CE3EC26
:10388C00D8FC55BF370700801347F7FFBA97860758
:10389C00CA9763E527030146C145B385E54103D7C4
:1038AC000700B356E741D18E2390D7003317B700EA
:1038BC00131607014182F917E3F327FFDC408DC78C
:1038CC00370700801347F7FF3E970607B386E900DA
:1038DC0083D6060091EA0907BA99FD17DCC089C79F
:1038EC00F91903D7E9FF75DB5840E30407E4B70780
:1038FC00008093C7F7FFBA978607B306F90083D603
:10390C00060089073E99E39606E27D1758C0E3024C
:10391C0007E279198357E9FFEDDB21BDFD5548001E
:10392C00EFF06F805000A6852685EFF08FE9568664
:10393C00A2852285EFF0EFE819BD10455C418607A2
:10394C00B2976371F6020147420783D6E7FF558FA2
:10395C00F917E36BF6FE1C41858B99C33307E040E6
:10396C003A8582800147C5BF10455C418607B297F6
:10397C001387E7FF637FF60081472168C2078356F0
:10398C000700D58F6378E6007917E3E907FF014557
:10399C00828081471841058B19C3B307F0409CC145
:1039AC0005458280368399C13383C600032F850079
:1039BC00832F450063830F02854E014881481D4EBD
:1039CC003696C1084208090F8357EFFF33E8070109
:1039DC0063421E03FD1FE3960FFE82801307130044
:1039EC002300F300E30BC7FE3A83E1181358880059
:1039FC00E3521EFF93170801C1831841058B11CBAD
:103A0C0093C7F7FF93F7F70FF697C207C18393DEBF
:103A1C008700E9D51307F3FFA30FF3FEE38FE6FA54
:103A2C003A83E1B7011106CE22CC26CA4AC84EC64B
:103A3C0052C42A8A03298500404106044A946375BE
:103A4C00890413050000B777042083A90776CE8577
:103A5C00EFF06250AA840355E4FFEFF01232A68512
:103A6C00EFE052657914E36489FE83270A00858BA5
:103A7C0081C7B70700803D8DF2406244D244424971
:103A8C00B249224A0561828013050000F9BF638E9A
:103A9C000710797106D622D426D24AD04ECE52CCFB
:103AAC0056CA5AC85EC6AA8A2E843289368B3A8A7E
:103ABC00BE899387E5FF7947636AF7025C41A9E702
:103ACC00CE8719CA0347060001CB05098507A38FCA
:103ADC00E7FE0347090075FB130700032380E7008B
:103AEC00A380070085073385374121A02380090077
:103AFC000145B250225492540259F249624AD24AB8
:103B0C00424BB24B45618280939B17005E85EFC0A0
:103B1C006FE4AA845E8683A58A00EF90024BCE8563
:103B2C004E833386740101489308900313056BFC94
:103B3C000D4E854E59A813070003C1A02685EFC072
:103B4C000FE95A85630209024A85EF90027AB3079E
:103B5C00A900637AF9045A95FD17050B03C70700F2
:103B6C00A30FEBFEE31AABFE83A70A00858B91C76C
:103B7C009307D0022300F50005059307F5FF63FFBB
:103B8C00F9004E878346070003C607002300C700D1
:103B9C002380D7000507FD17E366F7FE2300050019
:103BAC0033053541B9B75A85C1B701458280E30762
:103BBC000AF8B305BB40E393C5F9F687130B230052
:103BCC00A3004301A5FFDA855A839307E6FFE3E4DC
:103BDC0097F642879316070103D70700558FB35604
:103BEC0087022390D70033778702F917E3F497FE07
:103BFC001307070363F3E8002A97130B1300230042
:103C0C00E300E3F6C4FA83D7040081EBA6878907A7
:103C1C00E3FFC7F803D707007DDBE3070AFAB30716
:103C2C00BB40E393C7FBC28751BF1C45584563F8A3
:103C3C00E7001387170018C503C5070082807D5560
:103C4C008280411106C622C42A841C4181EB228544
:103C5C00EFC0EFD7B2402244410182804841EFC00F
:103C6C000FD7F5B7011106CE22CC26CA4AC84EC6CC
:103C7C00AA842E843289B6894145EFC0AFCD23206A
:103C8C00350140C100C54A9440C588C0B7470120E2
:103C9C00938767C3DCC0B74701209387E7C49CC4F4
:103CAC00F2406244D2444249B249056182804111DA
:103CBC0006C622C42A841C492947638CE70225477F
:103CCC00638FE7021C5185071CD15C481CC81C4C37
:103CDC005CC81C444840829708CC5848B5476306DA
:103CEC00F702184CFD57630BF702B2402244410116
:103CFC0082805C4D85075CCD85471CD1F9B71C5182
:103D0C009D07E19B85071CD1C9B7A9475CC8E31E79
:103D1C00F5FC1C444840829708CCE1B75C487D57C1
:103D2C00E385E7FC2947E382E7FCA9471CCC75BF78
:103D3C0018499306700285476308D704930620023E
:103D4C006304D704930750076302F7049377F7FED5
:103D5C0093062006638CD702930720076303F704AE
:103D6C00930720066316F70454491307200781476D
:103D7C00639CE600084D1307700285476306E50057
:103D8C001305E5FD933715003E85828054491306D3
:103D9C0070028547E38AC6FE13062002E39EC6FA2C
:103DAC00E5B7584993072006E306F7FC8147E9BFBE
:103DBC008147D9BF797106D622D426D24AD04ECEAD
:103DCC0052CC56CA5AC85EC62A842E8A81497D595D
:103DDC00A944130B3002930BC005854A21A0228500
:103DEC00F935D68908486301250363179500E30864
:103DFC000AFE1C54EDF709A8EFE00FEB15E11C4887
:103E0C0063836703638077054E85B25022549254C6
:103E1C000259F249624AD24A424BB24B4561828006
:103E2C0022857135C1B7228559351C48E38C27FB97
:103E3C00E38A97FA2285A53D1C48E38527FBE39B83
:103E4C0097FE4DB75C48E39197FC22858D35228512
:103E5C00B93D49BF5D7186C6A2C4A6C2CAC04EDEBA
:103E6C0052DC56DA5AD85ED662D466D26AD06ECE9E
:103E7C002A84232405048145353F5C4C1CDC1850F6
:103E8C0058DC5C5063C90700635AF002154738C010
:103E9C00FD175CD029A0194738C085075CD0B64007
:103EAC00264496440649F259625AD25A425BB25B96
:103EBC00225C925C025DF24D6161828041C51C54B2
:103ECC00D1E391473CC09304F7FF48581858B70703
:103EDC00008093C7F7FFBA978607B306F50083D621
:103EEC000600E38ED4FA63E5960289073E9563FEDD
:103EFC00D4007D1718D85C50FD175CD08357C5FFD4
:103F0C007915E3E8F4FEE38CF4F889473CC041BF33
:103F1C005C54637FF70058581C589386170014D8CC
:103F2C008607BA97239097005C5085075CD085BFB5
:103F3C00A10793951700EFC0AFA648D85C54A10712
:103F4C005CD4D1BF0448FD576395F40023200404CE
:103F5C00B9B72285F13B2AC6630305242320040448
:103F6C007D5AB77D0420938DCD7A930744043EC4CB
:103F7C0019A413072007639EE704584893072006EB
:103F8C00631DF704324D89442D4721A085442947F0
:103F9C00014D3C40B9E738C0A1E81848930720020E
:103FAC00130970026314F7001309200222850133F0
:103FBC001C48854A638227050C486380451F81494C
:103FCC00054C294B930CC00599AA85442D47014DEE
:103FDC00C9B781442947014D6DBF324D85442947EE
:103FEC004DBFE38BE7FA65BD2285D1318947E39656
:103FFC00F4FA22856D3955B75C486307F9420C48D1
:10400C00854A75BF85092245EFD05F8319A2E685E5
:10401C002245EFD0BF828149638D440FB707110051
:10402C0063EAF40C9307F00F63F1973E23208405A9
:10403C008149C5A0A144F9A6DA84E9A6AD44D9A664
:10404C00B144C9A63840AD476301F7049307800714
:10405C0089496388F4009307500791496383F400FE
:10406C00A149FD19814422859931832B04015E8578
:10407C00EFE08FC96306053A92045E85EFE0EFD45A
:10408C00AA94FD19E39149FF79B7E6852245EFD053
:10409C00EFFA51B7378504201305C59AEF9020111C
:1040AC00938904FD9D4763F73701E6852245EFD0E0
:1040BC00EFF895B75C48938707FD1D47636BF702D4
:1040CC002285EFF0DFBE0448938404FD8E09CE9464
:1040DC005C48938707FD1D47E36FF7F22285EFF0ED
:1040EC001FBD8E041C48938707FDBE942DB7B544A5
:1040FC0035B7CE843C40E39767F3A6852245EFD0D5
:10410C00EFF3814939A093F5F50F2245EFD06FF10C
:10411C0081492285EFF0BFB90C48638E4503637A61
:10412C005C0363FE5903E38F25EDE39E95FD228529
:10413C00EFF0FFB70448E31C0DEC938764FF130703
:10414C00E006E36FF7F48A07EE979C438287814978
:10415C00C9B7E39865FD63F459018D473CC0CE8522
:10416C002245EFD05F8785452285A9312285EFF066
:10417C003FBCE30605D21C4813075007E388E7E071
:10418C0013072006E397E7DE584893072007E31E42
:10419C00F7E2324D89442D47EDBB81497DBF268521
:1041AC00EFE08FB2AA8451E108489307F005630E43
:1041BC00F5069307F00763EAA706EFE0EFB263108A
:1041CC00051218489307E0026306F7101848930786
:1041DC008002630BF72C81493789042013098996D7
:1041EC00930480029387D4F993F7D70F93B71700F2
:1041FC00CA9785091389170083C41700638F042A93
:10420C00E31297FE2285EFF09FAA930710026382B8
:10421C00F41A9307E002638DF41A050993841900CC
:10422C00130A3006930A50061DA49D473CC0930404
:10423C004404834504012685EFD0AFDE2285EFF0E0
:10424C001FA70848FD57630EF5029309F005130AE2
:10425C00F0077D5921A8834504012685EFD06FDC3A
:10426C002285EFF0DFA40848630D2501EFE0CFA510
:10427C007DF10848E30135FFE36FAAFCEFE0CFA620
:10428C0079F92685EFD02FD7AA89B7840420938497
:10429C00C4AA0149130A20028C404E85EF904202B9
:1042AC0001C9E34E05BE05099104E31749FFC5BEDC
:1042BC00350923202405C147E313F9BEB7E7008075
:1042CC0083A7874493B71700B307F040898BB507D2
:1042DC003CC0F1B64848EFE02FA1E30905EE1C48BD
:1042EC001307E0026398E702A5473CC01309440496
:1042FC000C484A85EFD08FD42285EFF05F9BFD5997
:10430C00A54A130AE002130BA006130CA004930B8E
:10431C005004ADA8214738C013070003E398E7FC0D
:10432C005C4893E707029387E7F959478144E36FA9
:10433C00F7FAB72440008504B3D4F40085887DB720
:10434C0023205405930550064A85EFD02FCF2285A4
:10435C00EFF0FF950C48938755FDF59B85EB4A854F
:10436C00EFD0CFCD2285EFF09F940DA00848EFE061
:10437C00AF9705E90C48638B450315B66388850335
:10438C004A85EFD0AFCB2285EFF07F920848E30847
:10439C0035B189E49377F5FDE38477FBEFE0CF92B9
:1043AC0071D50C4863844501E39A65FD23205405BF
:1043BC00C1BF18489307D0036305F70085473CC07D
:1043CC00F9BC2285EFF0BF8E930710043CC0C1BC32
:1043DC0018486306F7009307A0043CC0C9B45848BA
:1043EC00E31BF7FE2285EFF09F8C2285EFF03F8CCC
:1043FC00B1473CC06DB41C5485071CD44DB49D44CE
:10440C0011A0A5443C40E38A67CF3840AD47E31F79
:10441C00F7C093F5F40F2245EFD0AFC08149D5B961
:10442C00232084058144DDBE2285EFF05F88228540
:10443C00EFF0FF878D4A49B6034719001C486317F4
:10444C00F7022285EFF0BF86A68909098504834708
:10445C000900E38347FF639B570183471900184802
:10446C00E315F7FE2285EFF09F84A689B787042019
:10447C00938707A8BE9983C709003CC013F7B70FF1
:10448C0093062004E309D7F693064004E385D7F698
:10449C00930630046306D70013075004E391E7A09A
:1044AC001C54FD171CD4E5BA2285EFF05F803789C8
:1044BC0004201309899681498DB32285EFF02FFFD3
:1044CC0085473CC0E9BA411106C622C426C24AC07F
:1044DC002A89AE8413054005EFB0DFC72A84232058
:1044EC0025019C405CC1DC401CC59C445CC58544DA
:1044FC0044CDF9571CD12322050223240502A947D8
:10450C005CD504D95145EFB0FFC448D893050002DF
:10451C0013054404EFD0EF9D5C5823900700232C27
:10452C000400232A0400232804002285EFF02FF82E
:10453C002285EFF0CFF72285EFF06FF72285EFF0B1
:10454C007F915C5C6384970095473CC02285B240A8
:10455C0022449244024941018280797106D622D4C8
:10456C002A844808EFF00FF0D2473EC0E2473EC223
:10457C00F2473EC48A852285B937B2502254456130
:10458C00828015C5411106C622C42A845C45484167
:10459C00829713054404EFD0EF9D4858EFB03FC30A
:1045AC002285EFB0DFC2B24022444101828082807A
:1045BC003307B5009307F7FF9376F607A30FD7FEE3
:1045CC000547635AB7001D82FD17136706F8238051
:1045DC00E700E31AF5FE8280144101471E0783C7EA
:1045EC00060013F6F70732978506E207E187E3C763
:1045FC0007FE14C13A858280011106CE22CC2E848E
:10460C00930715003EC683460500A14763EED7020B
:10461C009397260037870420130747B3BA979C4318
:10462C00828709052AC63245F240624405618280C0
:10463C0015052AC6CDBF0D052AC6F5B70D052AC628
:10464C00DDB76800513FC5B7E54763E5D7000905FD
:10465C002AC6D1BF680049376800BD3F69D4B2474C
:10466C00AA973EC6C9B71C41C9E3011106CE22CC9C
:10467C0026CA4AC84EC652C4BA843689B2892E8A12
:10468C002A845C4118456372F7045C4408441307A0
:10469C00150018C40E05AA9793158A00A1818843AA
:1046AC00370700FF798DC98D8CC303C70900A3811F
:1046BC00E7002392270123939700F2406244D244EF
:1046CC004249B249224A05618280E1070546939529
:1046DC0037004845EFB0DFAE11C548C45C40E10778
:1046EC005CC065B785471CC0C9BF8280411106C636
:1046FC00B967ED8F09676382E702B786042093865A
:10470C00C6DA37860420130686B59305500C378518
:10471C0004201305C5E0EF70B12FD205D1818A05B5
:10472C00B78704209387C73CBE951C51014781462F
:10473C0090418C5F0D3FB24041018280411106C611
:10474C0022C426C24AC02A842E8532891C4C81453B
:10475C0011A0A685938415009D83E5FF8905EFD0F4
:10476C000F87A1472300F500104CA6850505893558
:10477C005C48184C6371F702584C1C4C938617001C
:10478C0014CC8A07BA9723A02701B2402244924442
:10479C000249410182809384870093952400484C00
:1047AC00EFB01FA048CC44C8C1BF411106C622C4FB
:1047BC0026C2AE8432849545EFD06F8123009500DC
:1047CC009307150015052380870021848507E39C3A
:1047DC00A7FEB2402244924441018280411106C698
:1047EC0022C426C23284A9476385F502AE8493574E
:1047FC000601B1EF8D45EFC09FFD23009500A3008E
:10480C008500218023018500B2402244924441015D
:10481C0082809357C60081EF8945EFC05FFB9357A9
:10482C008400A9072300F500A3008500F1BFB7861B
:10483C000420938606CF37860420130686B9930589
:10484C00A01B378504201305C5E0EF70711CB786DB
:10485C000420938646D037860420130686B9930528
:10486C00F01B378504201305C5E0EF70711A7971C0
:10487C0006D622D426D24AD04ECEAE890051244040
:10488C009D476382F4042A89A1476387F404A547F2
:10489C006388F406938764FF0547637FF7068945B1
:1048AC004E85EFC0DFF285472300F500A30095008D
:1048BC002285EFF02FDA0545B2502254925402595A
:1048CC00F249456182802C446844EFC05FA32A867C
:1048DC00A9454E852137E9BFA28601462C44684480
:1048EC00EF6090399377150099C7135615408D4595
:1048FC004E85653D75BF2A86CE854A8581354DBF6F
:10490C002287814605462C446844EF60504D2A8628
:10491C00CE854A85253569BF2C440A85EFC07FDDDD
:10492C0030446C440A85EFC05FD82285EFF08FD2FB
:10493C003C40E387F4FED91705470145E37EF7F6C3
:10494C009245A94763E3B7022245EFC05F9B15C1AF
:10495C00938564FFB335B0002A8691054E85BD3D25
:10496C000A85EFC03FE1054581BF2245EFC05F904E
:10497C00F9BF22459245A9476389F400EFE030580E
:10498C002A86CE854A855D3BE1BF0146EFE0105398
:10499C002A86C5BF011106CE22CC2AC603470500C4
:1049AC00A147631EF7002E8405052AC66800EFF0A8
:1049BC00BFC208C03245F240624405618280B786AE
:1049CC000420938646D2378604201306C6B6930578
:1049DC002015378504201305C5E0EF7071030347DC
:1049EC0005008D476315F70223A005002A86814731
:1049FC0013080002050603470600B316F70098419A
:104A0C00558F98C1A107E39707FF150582804111C7
:104A1C0006C6B7860420938606D437860420130670
:104A2C0046B893059015378504201305C5E0EF7043
:104A3C00217E011106CE6C005D373245F2400561D6
:104A4C0082805D7186C6A2C4A6C2CAC04EDE52DC8C
:104A5C0056DA5AD85ED662D466D26AD06ECEAE849E
:104A6C00328AB68A3A89834707001307A002639CEF
:104A7C00E7009C45B29783C707008DC71307600AF0
:104A8C006382E70275A41387F7FD1377F70F894646
:104A9C0063E2E60880453305C400034705008D47F3
:104AAC006309F70083AB4400B38B4B41D6870145B8
:104ABC0035ACDC413E942C001D376307A41E034724
:104ACC0005008D47E310F7FE130B1002930B200229
:104ADC00130C30028D4919A8A2473247D98F3EC416
:104AEC006304A41C83470500E39E37FB6C00C53DA3
:104AFC0083470900E38267FF63897701E39287FFAD
:104B0C00A2473247F98F3EC4E1BFA2473247B98F63
:104B1C003EC4F9B71387C7FD1377F70F894663E5D2
:104B2C00E61403AB85003305CB00034705008D4726
:104B3C00E31AF7F6DC413E9B2C005535AA8763053A
:104B4C00AB16090583C9170003C727008D47E31B64
:104B5C00F7F4930B7003130C9003130DF002930DE9
:104B6C000003B70C0040FD1CA1A03247FD47E3CB6E
:104B7C00E7F2A247B3D6EC40E3C6F6F2B70600C0A4
:104B8C00B3D6E640E3C0D7F2B397E7003EC4224762
:104B9C0093171700B98FE3C707F063078B10130542
:104BAC00240083491400034724008D47E31CF7EECF
:104BBC006C0035352A84E38A79FB638E890363871D
:104BCC00A905638AB90593071003638BF90493074E
:104BDC003003E389F9EC93075003638FF9049307CF
:104BEC0040036393F906B245E38E05EA2245EF7064
:104BFC0001092AC469BF3247FD4763D3E7003EC6AB
:104C0C003247A247B3D7E7403EC451B7A247324719
:104C1C00BA973EC4ADBFA2473247998F3EC485BFF9
:104C2C00B2452245EF60F17EE31E05E6A24732470E
:104C3C00B387E7023EC4A1BFB245E38505E6224532
:104C4C00EF7021022AC4A1B7B7860420938686D5BB
:104C5C00378604201306C6BA930530243785042002
:104C6C001305C5E0EF70C15A13077002E39CE7E22D
:104C7C0088453295034725008D47E315F7E2034439
:104C8C0015000905EFF0FFDA2AC49307F002630D53
:104C9C00F400930700036301F4029307D003631637
:104CAC00F4021345F5FF2AC423A2440122468D4584
:104CBC002685EFF09FAFADA83305A0402AC493170B
:104CCC0015003D8DE35205FEF1BBB786042093869B
:104CDC0086D7378604201306C6BA93050026378577
:104CEC0004201305C5E0EF70A1525A85130B150073
:104CFC009D83E5FFDE87814985099D83F5FF1304BC
:104D0C00250033063401D2852685EFC0FFC3AA8463
:104D1C0083470900E9072300F5005686DA85050567
:104D2C00EFF01F895E86CE8533858400EFF05F88B7
:104D3C00B640264496440649F259625AD25A425B0E
:104D4C00B25B225C925C025DF24D6161828041112A
:104D5C0006C622C426C26370B502AE8401440504A3
:104D6C008545EFF07F89E36C95FE2285B2402244A5
:104D7C009244410182800144CDBF411106C6854554
:104D8C00EFF09F87B24041018280411106C68145F8
:104D9C00EFF09F86B24041018280011106CE22CCF9
:104DAC002AC603470500E54763F3E7022E84050591
:104DBC002AC66800EFF05F826800EFF0FF81B2470F
:104DCC003E9508C03E85F240624405618280B786FC
:104DDC000420938646D9378604201306C6BB930558
:104DEC00B03C378504201305C5E0EF70614201111A
:104DFC0006CE22CC2A8408418346050091CE654715
:104E0C00637FD700E9056380B6028545EFF0CFFEDE
:104E1C00F240624405618280050508C0D5BF854516
:104E2C00EFF08FFDF5B76C008D3F08C03245CDB764
:104E3C00011106CE22CC26CA2AC603470500E54737
:104E4C0063FBE702B2843684930715003EC68347A2
:104E5C00050099179CC16800EFF00FF888C0680036
:104E6C00EFF08FF7B2473E9508C03E85F2406244A2
:104E7C00D24405618280B7860420938646D9378652
:104E8C000420130606BD9305403D37850420130509
:104E9C00C5E0EF70E137011106CE6C00FD3DB24765
:104EAC003385A74013351500F2400561828075717A
:104EBC0006C722C526C34AC1CEDED2DCD6DADAD882
:104ECC00DED6E2D4E6D2EAD0EECE2ACCAE8B328459
:104EDC0002D0930700063ED202D413050030EFB087
:104EEC006FA92AD602D802DA02DC02DEDEC082C644
:104EFC00630305469307800309C89307E4FF93B740
:104F0C001700B307F04093F7A70313972700B78751
:104F1C0004209387C73CBA9701478146904383A5E9
:104F2C008B030810EFF02FF44145EFB0AFA22A8DA0
:104F3C002ACEC145EFC0EFFB814CB7870420938785
:104F4C00C73C3EC6B7070001FD173EC8056A130BE8
:104F5C00FAFFB9AB854CA9AB854C99AB854C89ABA9
:104F6C0063880C54E37894FE93171400CA9783D784
:104F7C002700FD76FD8E6392460503A60B04B3F75E
:104F8C006701131714004A97FD756300F6020504B8
:104F9C00637C940683574700B3F6B700639F4601C2
:104FAC000907B3F76701E394C7FEEA850810EFF031
:104FBC001F8C630C0540814CE5A98967639FF60043
:104FCC009306140063EB960206042299835529007C
:104FDC000810EFF0AFF1814CE1A9B786042093865D
:104FEC00C6BE37860420130606BE9305904337854C
:104FFC0004201305C5E0EF70A1216E874A86D68583
:10500C000810EFF04FE6C9B7854C5DA1B7860420B8
:10501C00938646C037860420130606BE930580444B
:10502C00378504201305C5E0EF70811E8545724558
:10503C00EFC0EFF9230005006379940A931714006D
:10504C00CA9783D727007D777D8F631F4707B3F7F8
:10505C00670103A70B046315F70693191400CA998B
:10506C009D4C81A083A58B0403A5CB04EFC02FA975
:10507C002A86A9456A85EFF06FF635A05E85EFE0CC
:10508C007FDD05046370943E83D749007D777D8F67
:10509C00631C4703B3F76701890903A70B0463116A
:1050AC00F702E38197FD79F883071900E3D807FC31
:1050BC004256050632D88D456A85EFF00FEF7DBF5D
:1050CC0063150430854CEDA66E87930614004A8652
:1050DC00D6850810EFF02FD90604229983552900A4
:1050EC000810EFF0AFE0814CE1A663978406639D56
:1050FC000436814C83278D003385B70103274D007F
:10510C003E97637BE508628405048545EFF0CFCEBE
:10511C0083278D0003274D003E97E367E5FE034789
:10512C0009009546630ED706B1466309D706834638
:10513C00190013F70604133717003307E040B3FCCC
:10514C00EC00E206E18663CF06043385B7015DC04F
:10515C00E289E28462CAADA0B78604209386C6C0F9
:10516C0037860420130606BE9305D04737850420E6
:10517C001305C5E0EF70C10985070907E3FC97F635
:10518C008356070033F6B600E31846FFB3F6660104
:10519C00E374D5FE854CCDB7628451B7854C41BFC5
:1051AC00854C71B7854C55B7D24785073ECAE2840A
:1051BC008545EFF06FC4938719006308F400BE892E
:1051CC00834705008504EDD7C5B763960C0085476A
:1051DC0052476303F702A6857245EFC0CFFFB307B2
:1051EC0094404A87D6866E86EA850810EFF07F8554
:1051FC00814C7DACA284C5B783278D00BE9D19A8B8
:10520C0085456E85EFF04FBFAA8D93071C00638117
:10521C00892B3E8C83C70D00E5F783258D00054651
:10522C00B385BD407245EFC00FFCC5B78547E3059C
:10523C00F4D245CC814C9307F4FF93F919006388A1
:10524C00090003574900FD76758F6300470D05472C
:10525C006390E70C638E0C2485474A87D6866E864E
:10526C00EA850810EFF0EFFD814C99A4337C6C01BA
:10527C0003A70B0463198705B1C35E85EFE09FBDDF
:10528C000504B3F78400858B139717004A97035CCA
:10529C0027007D773377EC00E30A47FD89676316B7
:1052AC00F7026E87930614004A86D6850810EFF035
:1052BC008FBBE2850810EFF06FC3DDAAEA850810FA
:1052CC00EFF0EFDA75BF05043DACB796042093867A
:1052DC00865237860420130606BE93058052378506
:1052EC0004201305C5E0EF60B172B78604209386E5
:1052FC0046C137860420130606BE9305D052378567
:10530C0004201305C5E0EF60B1709357140081B70A
:10531C004A87D6866E86EA850810EFF08FF2814CAC
:10532C0041AA025C63160C0283A70B04D9EF8327F6
:10533C004D00639C070EB7850420938505CE37B5C9
:10534C0004201305C5CCEFA040692A8482C205A0B5
:10535C008547631CFC04B7850420938585C437B549
:10536C000420130585B2EFA040672A8482C232550F
:10537C00EFA0FFE571E85E85EFF0AFA096476247BE
:10538C001CC3A6475CC3B6471CC73A85BA402A441F
:10539C009A440A49F659665AD65A465BB65B265C5D
:1053AC00965C065DF64D49618280B7860420938633
:1053BC00C6C137860420130606BE930500563785F2
:1053CC0004201305C5E0EF60B16483A70B041547F7
:1053DC006385E7020947638EE702D9170547E36C3B
:1053EC00F7F4B7850420938585CB37B504201305D6
:1053FC00C5CCEFA0805E2A8491BFB785042093852D
:10540C0005C737B504201305C59FEFA0005D2A849E
:10541C0035BFB7850420938545C837B504201305DF
:10542C00C59FEFA0805B2A8415B7425605068D45B3
:10543C006A85EFF08FB783278D00BEC2F257BEC4CA
:10544C003255EFA0DFD805BF814603A68B0383A599
:10545C000B002285EFA000665E85EFF08F9222850F
:10546C00EFA01FCDE31A94CE13072900E287814CDD
:10547C00FD75194531B383DD670093F70903414787
:10548C00E380E7AE13070002639DE706E3860CBAE0
:10549C00E30E04B69307F4FF8607CA9783D7270059
:1054AC007D77F98F0D67E383E7B88547E3EF87F0E6
:1054BC00A257E38807E6025CE31C0CE8FD173ED418
:1054CC008E073257BA9703C737000A07B24636978A
:1054DC000329070003D4470083AA07004247B3FA05
:1054EC00EA008349190093F4F90051F4832D4D001F
:1054FC0093F709034147E387E7A613070002E38705
:10550C00E7F8E3800CD88947E382F4D28547E307B8
:10551C00F4A493771400E38E07D08D47E397F4EA55
:10552C00854C11BB084509CD411106C622C440412A
:10553C00EFA0FFC9228565FCB24022444101828064
:10554C008280011106CE22CC26CA4AC84EC652C44D
:10555C00AA842E89328AB6891305C002EFA09FC295
:10556C002A8404C123242501231645019D47638DFC
:10557C00F4008547638AF400B7870420938707718A
:10558C00BE9483C7040011A883470900D917A2074A
:10559C0003471900D98FC207C1832317F400A30A4C
:1055AC00340191472311F40213050002EFA09FBAB6
:1055BC0008D42285F2406244D2444249B249224A7C
:1055CC0005618280411106C622C42A840855EFA0C9
:1055DC001FC02285EFA0BFBFB24022444101828090
:1055EC000356450205C608555C41638EF5009307CA
:1055FC008500014705076309C7003E85A10783A6FF
:10560C00C7FFE399B6FE8280014582800145E5BF64
:10561C00411106C622C426C24AC02A842E89B284ED
:10562C00C13709C923800400B24022449244024984
:10563C0041018280835524028357440263F7B702E9
:10564C00085483574402138717002312E4028E0771
:10565C003E9523000500A30005002311050023221D
:10566C00250185472380F400C1B799058E050854A0
:10567C00EFA01FB308D48357240299072311F40217
:10568C00C1B7411106C611A03E855C41F5FF893FAB
:10569C00B24041018280797106D622D426D24AD0FA
:1056AC004ECE2A89AE89B2845C4185C3C04311CCED
:1056BC00A6853E853537A28775D983470500F9172E
:1056CC0093F7F70F0947637BF70023800900B2506B
:1056DC00225492540259F2494561828091472380A9
:1056EC00F9000324490031C05C40114999CF1306DD
:1056FC00F100A6852285EFF0BFF18347F100B1C719
:10570C002300250140405C40FDF3B78604209386BE
:10571C00C66B37860420130686679305700737859A
:10572C0004201305C56AEF60B12EB786042093865A
:10573C00466937860420130686679305500737851C
:10574C0004201305C56AEF60B12C83470500094797
:10575C006388E702F51793F7F70F0547E379F7F638
:10576C00B78604209386066D378604201306866759
:10577C0093055008378504201305C56AEF6051293D
:10578C008D472300F500A1B78357C5018507C207D4
:10579C00C183231EF50058558356070263F4F600A7
:1057AC002310F70282808347050005476387E700D3
:1057BC000D47638AE70001458280034515004D15AE
:1057CC00133515008280411106C6EFF08FA61335F4
:1057DC001500B2404101828083470500054763876D
:1057EC00E7000D47638AE7000145828003451500F9
:1057FC004515133515008280411106C6EFF06FA3D5
:10580C003335A000B24041018280411106C622C44A
:10581C0026C2AA842E843285B685BA869040EFF0D3
:10582C005FD2DC545CC18C540A04A29588C1B2408E
:10583C0022449244410182808357C50189C7FD17D8
:10584C00231EF5008280411106C6B796042093866C
:10585C0006CD37860420130686799305E00A379522
:10586C0004201305C5CEEF60B11A011106CE22CC6F
:10587C0026CA4AC82A892E85B68483C705006906BC
:10588C00638BC70099C34A858296F2406244D24426
:10589C004249056182806C00EFF02FD02A84B24718
:1058AC00E305F5FEA2854A8582942285EFF0EFCCC4
:1058BC002A84B247E398A7FEC9BF411106C6B78632
:1058CC0001209386C6E4130670064537B2404101A9
:1058DC008280411106C6B7860120938686F4130692
:1058EC0070096137B24041018280411106C683C7FD
:1058FC000500D917A20783C51500DD8D0859EF40A7
:10590C001034B24041018280411106C60347550054
:10591C008547630EF700AE865055B79504209385E6
:10592C00455E0859EF30306CB240410182804855D9
:10593C00EF30F063D5BF411106C6034755008547CC
:10594C00630EF700AE865055B79504209385455FDE
:10595C000859EF305069B240410182804855EF3010
:10596C001064D5BF411106C6034755008547630E29
:10597C00F700AE865055B79504209385455D0859C0
:10598C00EF307066B240410182804855EF30306193
:10599C00D5BF011106CE22CC26CA2A842E850458E6
:1059AC006C00EFE03FFF1C5032470A07BA978C435C
:1059BC002685EF409024F2406244D24405618280F7
:1059CC005C4599E791C503C70500E54763E3E7002C
:1059DC008280011106CE22CCAE872A84740030005E
:1059EC004C003E85EFF0CFC4A2475CC4F240624449
:1059FC00056182801C4591C38280411106C622C478
:105A0C0026C2AE842A84B28537B504201305C5CCD2
:105A1C00EF90B07C08C4A68522855D37B240224445
:105A2C00924441018280011106CE22CC26CA4AC87A
:105A3C002A84AE84485583474501898B8DEB83C5F9
:105A4C000500938765FF93F7F70F3D486360F804F3
:105A5C00D915A20583C71400DD8D8347640085C367
:105A6C00835785018507231CF500054999A83786BE
:105A7C000420130606CE2285EFF0DFF7A9A083578A
:105A8C0065018507231BF500054925A86906638276
:105A9C00C504E906638CD50669076399E51226856A
:105AAC00EFF0AFAE83450500D915A205834715006D
:105ABC00DD8D58548347470193E72700230AF700ED
:105ACC00154963960512F2406244D244424905617D
