:020000042001D9
:100000009711FF5F93810133977202009382020080
:10001000739052301701FFDF1301C1FE9700FFDF1D
:10002000938040FE638300008290732540F18145F8
:1000300001460D209700FFDF9380C0FC6383000022
:100040008290970200009382C20073905230032383
:100050000000F5BF06849711FF5F9381A12D170162
:100060000060130121FA137101FF01E197420400BE
:100070009382C2A81703FF5F1303C3F89713FF5FB0
:10008000938383AB638C6200635A730003A5020001
:1000900091022320A3001103E34A73FE9732040068
:1000A0009382C2851703FFE71303C3359713FFE756
:1000B00093834355638C6200635A730003A5020067
:1000C00091022320A3001103E34A73FE1713FF5F7D
:1000D000130383A697F3FF5F938343BC63577300B7
:1000E000232003001103E34D73FE11C2029617751E
:1000F0000200130545F6EF605271EF601279F327A5
:1001000010303707010013078702F98F99C7F327CB
:1001100000300967D98F7390073005459725040093
:100120009385C5EC17260400130686EC3120EF609A
:08013000926FA28082808280A0
:10013800011122CC26CA37F40080B7F4008006CE1D
:100148004AC84EC652C456C25AC0B7090180EF9079
:10015800D16237DA0080EF907151B71A008013042A
:10016800048A378B0420370900809384049213850E
:100178000900EFB030500D65130585EDEFB0505113
:1001880093050A3413850AB40529EF90B131EFA01D
:10019800A07FEF90915EEF10C217EF603254EFF03E
:1001A800216CEF30F24213050B9A23240408EF1058
:1001B800E260EFC031750327C92085476313F70252
:1001C800378504209D458146014613058598EFF043
:1001D8005115AA8505CD1305F025EFF09156EF903E
:1001E800015C8327C920B5E7EF0092607DD9378588
:1001F800042013050599EF90516323A0040023A25E
:100208000400232604082326040A95B7B7450720C7
:1002180003C705009307D0046311F70203C715004D
:1002280093070005631BF70003D625008146910557
:100238001305F025EF4040035DB7B7650420054678
:100248009385451F1305602CEFB0E058EFB0806C24
:1002580049BFEF00B26659BFB7E700803705008095
:100268009387C77A13054521130700402322050009
:10027800232405002326050023280500232A05003A
:10028800232C050023A0070023A2070023A40700AE
:10029800D8C798CBD8CB814605468545710523AC90
:1002A80007006F60F248B70700809387C72323A22F
:1002B800070023A4070023A60700828037F70080E1
:1002C8001307078A1C47411106C699E3EF90416757
:1002D8009443C8C3854514C713858700EF60B26B84
:1002E8004111814522C406C62A84EF00B00E09E5F3
:1002F80001C42285EFB0E072B240224441018280FD
:1003080081456F00300D411122C406C62A84C93FB9
:1003180009E501C42285EFB0C070B2402244410112
:1003280082804111054622C406C62E84EF0010398A
:1003380009E501C42285EFB0C06EB24022444101F4
:1003480082806F00B0376F00D021411106C69377C5
:10035800F500C1EF37F800801308088A8327C80C16
:100368006365F5080327080D6371E5088326480CC3
:100378001D8D93556500B388B600118103C608002A
:1003880093773500139717003357E6400D8B0543D5
:10039800631D67060327881663E4E5049355250063
:1003A8000D4389488607B317F30093C7F7FFAE9646
:1003B800F18F2380F6008326480C05059355250008
:1003C800B387B60003C60700937735001397170065
:1003D8003357E6400D8BE30717FDB2404101828099
:1003E8002324B81603C6080055BFB7E6032037E62E
:1003F800032037E503209386C6AD130686A193052F
:10040800F0211305C5AEEF90C153B7E6032037E6D8
:10041800032037E50320938686AF130686A193054C
:1004280010221305C5AEEF90C15101113D0526CA32
:1004380006CE22CC4AC84EC693544500D1CC37F9D3
:1004480000801309098A8357C915D9E78357E91525
:1004580093B9170099C703270916832749166376A6
:10046800F708032789168325890C01446374B706A6
:100478000326490C0DA80504637D940893F6C7006C
:1004880095EE05046371941293F6070385EE05044F
:10049800637E941093F7070C95EB0504637B941027
:1004A80005076379B702B307E60083C7070093F629
:1004B8003700F1D293F6C7000144E1D693F607035B
:1004C8000144F1D693F7070C0144E1DB0507014429
:1004D800E36BB7FC63850902F24062448147D2446A
:1004E8004249B2493E8505618280EF906140032709
:1004F80089168325890C0144E36CB7F6E1BFEF90B8
:10050800213F032789168325890C8549E362B7F6BD
:10051800E1B70A07B30687408547138816006317B3
:10052800F4009307170089832324F91693572800AA
:100538003E96034506009377380093951700854744
:10054800B397B700C98F2300F6008906094563648D
:10055800D7020326490C93D5260093F736002E962A
:10056800834506008607B317F500CD8F2300F600F4
:100578008506E370D7FE8327C90C032709161208DE
:10058800C297BA94131644003E85814523209916D4
:10059800EF60F23BF2406244AA87D2444249B24932
:1005A8003E85056182800A070507ADB70A07090776
:1005B80095B70A070D07B9BF93F705FF3387A7401B
:1005C800130610043357C702411122C437F40080C0
:1005D8001304048A2328F40C814506C62322A40C9C
:1005E80093166700958F3A862326F40C2324E40C8F
:1005F800EF60F235C167232EF414FD57232004164B
:100608002322F41623240416B24022444101828096
:10061800B7F700809387078A03D7C7150507239E76
:10062800E7148280B7F700809387078A03D7C71536
:100638007D17239EE7148280B7F7008003D5C79FF4
:100648003335A000828037F600809306068A83D56A
:10065800C61537F70080130587979307068A85051F
:1006680037F8008013038797239EB61423A0061635
:1006780023AA060C23ACA6141306068A938E470BEE
:100688001307879785480D4E1308889F094F144212
:1006980093F5F6009DE983A5C70C63E8B60203A5A8
:1006A800070D63F4A60203A5470C8D8E93D566004B
:1006B8002E9591828342050093F536008605B3DFB7
:1006C800B24093FF3F0063821F0D6379E30883A361
:1006D800470C8322C7FF711723ACE71481468506B0
:1006E800B385D20013D525001E95834F05008D894B
:1006F8008605B3D5BF408D89E383E5FF03A5C70C05
:100708009206920289821695E9D28A06AA968322CF
:10071800050013F7F20005EF03A7C70C63E9E2022F
:100728003387E24083AF070D9353670011839375B6
:100738003700860563FDF20183AF470C9E9F83C394
:100748000F00B3D2B34093F23200638D120111054A
:10075800E31FD5FA03A78715E36BE3F61106E398C1
:10076800CEF28280B315BE00B3E575002380BF00CA
:1007780083A58715938F450063F6050123ACF7150C
:1007880098C1F1B723AA170DD9B7B315BE00B3E5C1
:1007980055002300B50083A5871563F80501138765
:1007A800450023ACE71494C10DB723AA170D2E8773
:1007B80029BF638305128A0537F70080B7F80080E0
:1007C80037FE00803303B5001307078A938888979C
:1007D80005488D4E130E8E9F094F1C4193F6F70066
:1007E8009DEA8326C70C63E8D7020326070D63F446
:1007F800C7020326470C958F93D667003696834F1A
:10080800060093D6470093F736008607B3D5FF4016
:100818008D896386050D8327871563FCF80A832372
:10082800470C9386C7FF83A2C7FF232CD7148147A1
:1008380085073386F200935526009E9583CF0500E1
:100848000D8A060633D6CF400D8AE303E6FF8325DB
:10085800C70C9207920289839695C1C38A07AE97FF
:1008680083A2050093F6F20085EE8326C70C63E9A0
:10087800D202B386D240832F070D93D366009182AC
:1008880013F63600060663FDF201832F470C9E9F80
:1008980083C30F00B3D2C34093F2320063880201CE
:1008A8009105E39FF5FA8327871585BF3396CE0018
:1008B800336676002380CF0003268715930F460002
:1008C8006376C601232CF71514C2D9BF232A070D56
:1008D800C1BF1105E313A3F08280B6873DBFB3976C
:1008E800FE00B3E7F7012300F6008327871563F9B5
:1008F800C70113864700232CC71494C3B28731BF9E
:10090800232A070D19BFB7F700809387078A83A6A4
:10091800870C03A7470D8A067DCF37F80080B7F804
:100928000080130888970D4E894E05439388889F49
:1009380023AA070C23AC0715F9CE014521A005050C
:100948006378D50C83A5470C13562500137735001B
:100958002E960346060006073357E6400D8BE31034
:10096800C7FF83A687151387460023ACE71488C200
:10097800637AE80883A2470C9306C7FF832FC7FF53
:1009880023ACD714014705073386EF00935526009B
:10099800969503CF05000D8A06063356CF400D8A7B
:1009A800E303D6FF83A5C70C1207920F0983FE95B0
:1009B80079C70A072E9783AF050093F6FF0085EEE7
:1009C80083A6C70C63E9DF02B386DF4003AF070DD8
:1009D80093D26600918213F63600060663FDEF0196
:1009E80003AF470C169F83420F00B3DFC24093FF4B
:1009F8003F0063876F0A9105E39FE5FA03A7871510
:100A0800E36AE8F683A6870C05058A06E36CD5F247
:100A180003A7470D11FF01480146094E0D43854EB6
:100A280099E6B1A06301D50705066372D60403A54C
:100A3800470C9355260013773600AA9583C80500FE
:100A4800060733D5E8400D89630DC503E31C65FC33
:100A58003317EE001347F7FF337717012380E500BC
:100A680083A6870C050601488A06E362D6FC03D7ED
:100A7800C71523A407167D17239EE714828036879F
:100A8800C5BDE30308FA3317E3001347F7FF3377CD
:100A980017012380E50083A6870C05488A0669B7F5
:100AA8003316CE00336656002300CF0003A6871501
:100AB800130F46006376160123ACE71514C225BF51
:100AC80023AA670C0DBFB7F700809387078A83A610
:100AD800C70C03A7070D83A8870C03AE470C158F17
:100AE80018C12322050023240500232605002328F6
:100AF8000500232A0500232C05008A0801438142AA
:100B0800014F814501470146814681430548894E89
:100B18007296834706008606B3D7D7408D8B6388C5
:100B28000707C1CB6396D701050323226500850516
:100B380005076382E80213562700B307CE0083C770
:100B4800070093763700939F1600B3D7F7418D8B34
:100B580099C3E39F07FB638105056395D501544954
:100B6800850654C9144D63F3B6000CCD638AE802B8
:100B78006387070513562700729683470600937606
:100B880037008606B3D7D7408D8BE39C07F905035A
:100B980023226500854569BF1449850614C9D9B75C
:100BA80063F3E3032326E501638FE800FA83014F2B
:100BB800D1B7850223245500050F814595BFE3E38E
:100BC800E3FF014F45BF120392022322650023244D
:100BD8005500828001113D0526CA06CE22CC4AC89E
:100BE8004EC693544500D1CC37F900801309098AC1
:100BF8008357C915D9E78357E91593B9170099C7DA
:100C080003270916832749166376F70803278916E9
:100C18008325890C01446374B7060326490C0DA883
:100C28000504637D940893F6C70095EE0504637187
:100C3800941293F6070385EE0504637E941093F7E8
:100C4800070C95EB0504637B941005076379B702DD
:100C5800B307E60083C7070093F63700F1D293F68F
:100C6800C7000144E1D693F607030144F1D693F790
:100C7800070C0144E1DB05070144E36BB7FC63851E
:100C88000902F24062448147D2444249B2493E8552
:100C980005618280EF80D145032789168325890C59
:100CA8000144E36CB7F6E1BFEF809144032789164E
:100CB8008325890C8549E362B7F6E1B70A07B306CD
:100CC80087408547138816006317F40093071700B9
:100CD80089832324F916935728003E960345060076
:100CE80093773800939517008547B397B700C98F56
:100CF8002300F600890609456364D7020326490CD8
:100D080093D5260093F736002E968345060086076E
:100D1800B317F500CD8F2300F6008506E370D7FEE4
:100D28008327C90C032709161208C297BA94131609
:100D380044003E85814523209916EF604241F240E8
:100D48006244AA87D2444249B2493E8505618280FD
:100D58000A070507ADB70A07090795B70A070D0778
:100D6800B9BF37F800801308088A8357C815D1EF30
:100D780049CD411106C69377F500C9EB8326C80C07
:100D88006366D5088327080D6372F5080326480CA7
:100D9800158D935865003303160193564500834516
:100DA800030093F736001397170033D7E5400D8BF0
:100DB8000545631DA7060327881663F6E800232464
:100DC80018178345030013D526000D438948860765
:100DD800B317F30093C7F7FF2A96ED8F2300F600A9
:100DE8000326480C850613D52600B307A60083C53D
:100DF800070093F736001397170033D7E5400D8B9C
:100E0800E30717FDB240410182808280B7E60320E4
:100E180037E6032037E503209386C6AD130686A17F
:100E28009305F0211305C5AEEF80B131B7E6032075
:100E380037E6032037E50320938686AF130686A19D
:100E4800930510221305C5AEEF80B12F9377F500F7
:100E5800A9E337F700801307078A8326C70C63685E
:100E6800D5020326070D6374C5020326470C158DAA
:100E780013576500329711810347070093763500B1
:100E880086063357D7400D8B85466307D7003E85C6
:100E9800828081473E858280894585073307F50032
:100EA80093562700B29683C606000D8B060733D7E4
:100EB800E6400D8BE303B7FE9207D1BF630D05141F
:100EC800011106CE22CC26CA4AC84EC6638E05102A
:100ED8002A843D8963110512B7F400809384048A3B
:100EE80083A7C40C6369F41003A7040D6375E410A9
:100EF80083A6440CB307F44013D767003697918351
:100F08000347070013F837000608335707410D8BCE
:100F180005486312070F03D7C41571EF03AE840C9D
:100F28009388F500138817000A0E93D848000549DE
:100F38006376C803894E135728003697034707007E
:100F4800137338000603335767400D8B630ED70BB6
:100F580011E70505330725016369170B638D28071A
:100F680063EE280B3307250163611713B385270147
:100F78003388170163F8050593D72500BE9603C586
:100F8800060013F73500931717003357F5400D8BFC
:100F980009460DC329AA03A7440C93D6250093F745
:100FA8003500BA9603C5060086073357F5400D8B02
:100FB800631F070EB317F600C98F2380F600850557
:100FC800E31BB8FC338628411315490012068145F6
:100FD8002295EF60C217A289F24062444E85D2443E
:100FE8004249B24905618280B7F7008083D7C79F1D
:100FF80099E3EFF08FB58149F24062444E85D244BF
:101008004249B2490561828005090508E3150EF3D6
:10101800E39828F5C9B72E856FF02FC133871701DC
:1010280013552700AA961376370003C806009315B0
:1010380016000D463316B6001346F6FF3376060142
:101048002380C6009306F9FF0507638816033E99B7
:101058008D4583A6440C1356270093773700B29624
:1010680003C606008607B397F50093C7F7FFF18F0D
:101078002380F6000507E31E27FD83A78416E37C7B
:10108800F5F423A4A416A28985BF35D62E85EFF0E2
:10109800CFB9AA892DD113164900A285EF6062073E
:1010A80083D7C415B1FB2285EFF02FAAB1B7B7E6F5
:1010B800032037E6032037E50320938686B113061D
:1010C80006A29305A02C1305C5AEEF809107797190
:1010D800480006D622D4C53A3247A24612463714EB
:1010E8000420B7E50320938505A71305C417EF105F
:1010F800C027C2477247E2465246B7E503201305A8
:10110800C417938545A9EF104026B2502254456173
:101118008280797162C437FC0080130C0C8A032624
:10112800CC0C26D2B7E50320B71404209385C5A2BA
:101138001385C41706D622D44AD04ECE52CC56CAEE
:101148005AC85EC6EF10602203268C0C0A06630E8E
:10115800061637690420B7590420374A0420B76AAD
:101168000420014B130989239389C912130ACAEE73
:10117800938ACA0439A8B7E503209385C5A61385C1
:10118800C417EF10801E03268C0C050B0A06637E1D
:10119800CB12937B3B009377FB0383264C0C860B87
:1011A800CDCF93572B00BE9683C706000947130679
:1011B800D003B3D777418D8BE38FE7FA0D4713063A
:1011C800D006E38AE7FA05471306E002E395E7FA53
:1011D8000327CC0C93174B0013064005BA979C4382
:1011E800E38B27F91306C004E38737F91306400495
:1011F800E38347F913063005E38F57F73767042071
:10120800130707D6E389E7F637470420130747B9DA
:1012180013061004E381E7F637470420130787B560
:10122800E38BE7F4375704201307C78313066004DA
:10123800E383E7F4375704201307C7A513062004F0
:10124800E38BE7F2375704201307C7301306D0049F
:10125800E383E7F21306800639BF5A8493572400C4
:10126800B69783C70700137734000607B3D7E7405C
:101278008D8B81E70504E363C4FE3306644193075D
:10128800F00763F3C702B7E503201982938585A4A5
:101298001385C417EF10600D83278C0C137B04FC97
:1012A8008A076374FB02814BB7071000C117131636
:1012B8004B00B7E503207D8E938545A61385C4179B
:1012C800EF10A00A83264C0CE9BD2254B2500259F3
:1012D800F249624AD24A424BB24B224C1385C41798
:1012E8009254B7D50420938545E245616F005004B8
:1012F800B7F7008083A7478B89CBD8436369E5009C
:10130800198D11050A05AA979C433E8582809C4346
:10131800E5B7411122C437F4008026C29304048A39
:10132800DC484AC02A898847DC4706C61304048A71
:1013380063E8A70209050E05EFE09FFC11E5DC480C
:1013480088470605EFA0E06D5C48D843D4471CC128
:101358009C47369758C186071CC52326050048C8F0
:101368005848B24022445C479244138517009107BD
:101378008A0748C7BA9723A027015C430249FD178B
:101388003E95410182808567AA9593875750636788
:10139800B50013F5F70F11E1054582801397570043
:1013A800BA97034705000505B98FD5B7B7F7008089
:1013B80037E703209387078A130707B6D8CB23AAF2
:1013C800070A8280011126CA52C456C25AC006CEE4
:1013D80022CC4AC84EC62A8B2E8A7537B7F70080AA
:1013E80083A4478BAA8A99E0014581A003A9C40078
:1013F800938904014E840A094E9963642401844048
:10140800DDB7084083470500639B570383471500F2
:10141800639747035286DA850905EF50324D05E197
:1014280033053441C04009852295F2406244D244D4
:101438004249B249224A924A024B0561828011040C
:101448006DBF011106CE22CC26CA4AC84EC652C468
:101458009307F00F63F2B702B7F6032037E60320CD
:1014680037F50320938606901306C6B39305C00B81
:1014780013050593EF80E14C2A8A2E89A13771E57F
:1014880037F400809307048A03A5470B93043900B7
:101498001304048A15C58327C40B8325840BA697D8
:1014A80063FFF5040146A695EFE0BFE929E183252E
:1014B800C40B0325440B0146EFE0BFE8232A040AC6
:1014C80093070008A68963F4F400930900084E8581
:1014D800EFE01FE3232AA40A25E52685EFE05FE273
:1014E800232AA40AA68929ED2685EFA080538327FD
:1014F800840BA697232CF40A8327440BF1D3832764
:10150800C40B8329440BCA85BE945285BE99232EE9
:10151800940A953D2380A900A38029014A86D28593
:101528004E9913852900EF50D23E230109006244E9
:10153800F240D2444249224A4E85B2490561D1BBA4
:10154800232C340B232E040A5DBFF2406244D2449C
:101558004249B249224A05618280411122C406C625
:101568002A84EF50126DAA8522852244B240410197
:10157800C9BD011106CE22CC9307F00F63F2A70272
:10158800B7F6032037E6032037F503209386069045
:101598001306C6B49305700F13050593EF80613ADF
:1015A8002A840D052EC6EFE0BFD3B24588C1A3003B
:1015B80085008841F2406244090505618280011175
:1015C80022CC4EC606CE26CA4AC8834415009309C3
:1015D80025002A84A6854E85F5330DE1A6854E851E
:1015E8005D332300A400A294238104002285624471
:1015F800F240D2444249B249056121BB2A89228579
:10160800EFE07FD4F24062444A85D2444249B2496D
:1016180005618280411106C6E139B24003450500E3
:1016280041018280411106C6E131B24003451500EF
:1016380041018280411106C66539B2400905410160
:101648008280011106CE2EC6653183471500B2454A
:10165800F24009059CC105618280011122CC26CA8D
:101668004AC806CE23200500B7F7008023A005004E
:1016780003A4478B23200600B7E403202A8923A06C
:101688000600938404B619C0631C94009C42184257
:10169800F2406244BA979CC2D244424905618280B2
:1016A8008327090085072320F90058449C41BA97ED
:1016B8009CC15C44130704018A07BA976360F70268
:1016C800228536C632C42EC2EFF04FF8B24600402B
:1016D80022469C4292453E9588C275B70843032826
:1016E80006001107034515000D08429508C2F9B711
:1016F8000111B7F7008022CC03A4478B4EC6B7E987
:10170800032052C456C206CE26CA4AC8938909B6CF
:1017180037FA0320B71A042019C0631B3401F240BA
:101728006244D2444249B249224A924A05618280BF
:101738004444130904018A04CA946364990000406C
:10174800E1BF0326090093058A8F1385CA17090686
:10175800EF00B0411109D5B7411122C440411C41E5
:1017680006C626C22E9463F187020347C500814747
:10177800058B01EF4104AA84619808452104A285DC
:10178800EFE03FBA88C480C08547B2402244924403
:101798003E854101828041114AC02E89B28522C40A
:1017A80026C206C62A84B284453F11E98347C4008D
:1017B800858B85C35C40044063FD97009D8C5C402D
:1017C80008442686CA853E95EF5012165C40BE94A2
:1017D80044C0B240224492440249410182804111EE
:1017E80022C406C62A8491E185450CC02322040040
:1017F8002E85EFE0FFAE8347C40008C4B240F99BD2
:101808002306F400224441018280411122C42E841F
:10181800850526C206C6AA84D937B240C0C022446C
:101828009244410182808347C5000CC123220500F0
:1018380093E7170010C52306F5008280011122CC1A
:1018480006CE2A8432C6613F3246F240B7170120DD
:1018580000C262449387E7795CC2056182805C4577
:10186800411122C406C6858B2A8481E70845EFE02A
:101878009FAD23240400B240224441018280834763
:10188800C500858B85EB411126C2AE840C4122C46C
:101898002A840845A69506C6EFE0BFA81C4008C4E0
:1018A800B2403307F500A6971CC0224492443A85FB
:1018B8004101828001473A858280411122C426C2B3
:1018C80006C62A84AE84493D19C94C4008442E9561
:1018D800A6954CC0B2402244924441018280014501
:1018E800D5BF18415C41411122C406C62A84630C45
:1018F800F7001C445840BA97238007000844B240B8
:1019080022444101828085459D3F65F5CDBF411147
:1019180022C42E84854506C64D3719C1230085008B
:10192800B240224441018280411122C406C6930775
:10193800F0072E8463EBB7008545413719C12300B2
:101948008500B2402244410182809307F07F63E220
:10195800B70289459D3775D5935764001374F4030E
:1019680093E707FC136404F82300F500A30085003F
:10197800C9BFC16763FAF5028D45813779D193579D
:10198800C40093E707FE2300F5009357640093F71C
:10199800F7031374F40393E707F8136404F8A30038
:1019A800F5002301850071BFB707110063E2F50256
:1019B800B71604203716042037150420938606141A
:1019C800130606139305000B13050515EF707177C1
:1019D8009145E5353DD59357240193E707FF23004B
:1019E800F5009357C40093F7F70393E707F8A300AC
:1019F800F5009357640093F7F7031374F40393E720
:101A080007F8136404F82301F500A301850015BF46
:101A1800011122CC2A842E8506CE2EC6EF507221C3
:101A28002A8622856244B245F2400561ADB30111B0
:101A38004EC68329450022CC26CA4AC806CE2A8427
:101A48003289AE8463E33501CE8463050902CA8511
:101A58002285193381470DC11C443305990033860B
:101A68009940B38597003E95EF50026C5C403E99D3
:101A7800232224011C44A697F2406244D2444249DE
:101A8800B2493E8505618280411122C432840546EF
:101A980006C6713F19C123008500B24022444101A6
:101AA8008280411122C43284054606C6493719C1CD
:101AB80023008500B2402244410182805841814779
:101AC8006364B700B307B7405CC18280544163FFC9
:101AD800D5023387C5006364D7004CC182804111A9
:101AE80022C42A840845AE8726C2B305E500B2841D
:101AF8003E953386E64006C6EF5002635040B2403A
:101B0800058E50C022449244410182808280011196
:101B1800B71701202AC49387E779280006CE3EC666
:101B28001D2BF240056182802E85B2856F80A155FC
:101B3800011126CAAA842E8522CC06CE2EC6EF50C5
:101B4800520F2A8411C52A86DC40B2458840829704
:101B58002285F2406244D2440561828039714ED6B2
:101B68005AD062CC328B918F06DE22DC26DA4AD834
:101B780052D456D25ECEA307E1001376F70DAA8998
:101B88002E8C59CA13060003630EC7081309F10007
:101B9800054A13F4060841CC094433C48702B384C8
:101BA8008740635D8008A28AD28B63D34A01D68BB3
:101BB80083A7490003A509005E86CA85B38A7A41CE
:101BC8008297E34350FF630A0B0083A7490003A5EC
:101BD80009005A86E28582975A94635290022694A5
:101BE800D28A63D34401A68A83A7490003A50900C2
:101BF8005686CA85B38454418297E34390FE228572
:101C0800F2506254D2544259B259225A925A025B43
:101C1800F24B624C21618280371904201309892014
:101C2800414A85BF371904201309C921D5BF93F448
:101C3800160099E03E84B5B7BE8471B7014461B718
:101C48005D71A6C24EDE86C6A2C4CAC0A30F01003B
:101C5800AA89BE8439C663D005049307D002A30FAE
:101C6800F100B305B040001825435917130E0102BF
:101C7800B3F7D50233D5D502138607036374F3008F
:101C88003306F7007D142300C4006303C40363E133
:101C9800D502AA85F1BF898BB5C39307B002A30FFC
:101CA800F100F1F193070003A307F1021304F10215
:101CB80013F904048347F10163080904014999CF22
:101CC80042878547A68605469305F1014E8546C697
:101CD80042C46935B24822482A89FD181018A686D8
:101CE800018EA2854E85C68742878D3DB640264423
:101CF8004A9596440649F2596161828093F74400F7
:101D0800CDD39307000261BFF1DB1810E37887FC9D
:101D1800A30FF4FE7D14D9B71971A2DCA6DACAD8CC
:101D2800CED6D2D4D6D2DECE3A89BE8B86DEDAD0F3
:101D3800E2CCE6CAEAC8EEC6137776FF8947AA8AD4
:101D4800B2843684C289468A6306F702930786FFFF
:101D5800DD9B8DC3B71604203716042037150420E1
:101D680093864618130606169305000D1305851B62
:101D7800EF70313D93F7150095E393F7350081EB4C
:101D88009841B75704209387C7E46309F7002E8565
:101D9800EFA0F02B9315150093E51500937719081C
:101DA80089EB930700036396FB0063D34901D2894B
:101DB800014A2E852EC6130B0102EFD0F019DA87DF
:101DC800B245634B0500937729008DCB9307B0028A
:101DD8002300F10293071102137709011378F40F16
:101DE80029C309476393E402130700032380E7002C
:101DF80013071800A380E700890725A01377490077
:101E0800DA8779DB93070002E1B721476392E4168A
:101E1800130700032380E7001377092063170714CB
:101E28008507238007003384674193770902814837
:101E380099C39308C002C147130C01033ED462D270
:101E480002D6854763D4470113690904A30F01002B
:101E5800937C090463880C1281472687AE8670102C
:101E68002C104810EFD00055834705001307D00207
:101E7800AA8D6399E700A30FF100B257930D1500DF
:101E8800FD173ED6854763DC47113257D287635327
:101E9800EA00BA8763870C000347F10111C385077D
:101EA800A29763DB370F13771900338DF94081440C
:101EB80019E3EA84014D1379E9FF930B000389CCF8
:101EC800B7B50420A687130700028146014693850B
:101ED800C5AC56856131AA84638A0C028347F10137
:101EE80099CB85470147814605469305F1015685FB
:101EF800B531AA94FD1919C885470147814622863C
:101F0800DA855685A139AA94B3898940854763D370
:101F18004701D2893256CE875E87CA86EE855685B6
:101F28003539AA94630E0D00B7B50420EA87130764
:101F38000002814601469385C5AC56850531AA94B1
:101F4800125563048501EFE00FC0F65066542685EC
:101F58004659D654B659265A965A065BF64B664CDD
:101F6800D64C464DB64D096182801307E80059B535
:101F78004147E398E4EA130700032380E7001307C7
:101F880078018DBDAE86DA87268770102C10481030
:101F9800EFD04042AA8DFDB5014D814429BF014DC6
:101FA80081441DBF397126DA4ED652D456D2B68432
:101FB80006DE22DC4AD8898A2A8ABA8ABE892E8510
:101FC80042879307B00291E693F74400B337F000D5
:101FD8009607B2868A8513060002EF70706093F741
:101FE80004102A8495C3930715007D47636EF70094
:101FF80018103304A700130750022300E4FE18103A
:102008003E97230007FE3E8413F904048A8563047F
:102018000902034701009307F002014963EDE70055
:10202800854701478146054652850D3E2A89FD1997
:102038007D1493051100CE875687A6862286528581
:10204800313EF25062544A95D2544259B259225AFA
:10205800925A216182805D71A2C4A6C24EDE56DA10
:102068005AD85ED662D466D286C6CAC052DC6AD056
:10207800AA89B2840144930A5002130BD002B71BF9
:102088000420371C0420B71C04202E89834709002C
:1020980099C36395570563FC250183A7490003A5E8
:1020A8000900330AB940528682975294CA8583C779
:1020B8000500638D07281389150013070002814660
:1020C8001306B0029305000213051002130800035B
:1020D8008347090091E725452948A9A005097DB747
:1020E8006396670193E616000509DDB76395C70097
:1020F80093E62600D5BF6395B70093E64600EDB793
:102108006395A70093E68600C5B76393070793E630
:10211800060413070003C9BFB38707030509AE9771
:10212800938707FD83450900138605FD1376F60F8F
:10213800E374C5FE1305E0027D566395A504834547
:1021480019001306A0026387C50205090146254543
:10215800A94803480900930508FD93F5F50F636343
:10216800B5023306160305094296130606FDD5B7D0
:10217800814795B790400909938544006353060049
:102188000146AE84034509009305C0066313B500F4
:102198000509034D0900630B0D1A930540066309F1
:1021A800BD1463E4A50793050005630EBD0663EB44
:1021B800A5039305BDFB93F5F50F09456378B514A1
:1021C800630C5D17B7160420371604203715042052
:1021D8009386061E13060617930530221305851BE2
:1021E800EF702176130620066307CD086368A60BF7
:1021F80013068005E316CDFCBE883A88138A44008E
:10220800B68713071004C146D5A093051007630FBE
:10221800BD0863E2A5039305700663F9A50F1306CD
:102228000007E31FCDF8BE883A88138A4400B687B2
:1022380013071006C9BF930550076301BD0A93052C
:102248008007E302BDFE93053007E31BBDF68C4013
:10225800138A4400C1C17D556316A6022E853EC669
:102268003AC436C22EC0EF50C21C2A86B247224753
:102278009246824501A89040138A440001CE114637
:1022880093858C1C4E85EFF07F8D2A949305190059
:10229800D284E5BB154693050C1DEDB79040138A13
:1022A80044006C08230EC1000546E9BF88406C084D
:1022B80032C63EC43AC236C0EFF0AFB83246AA853D
:1022C8007D55138A440082461247A247E31CA6FAAA
:1022D80072464DBF194693858B1D6DB7BE883A88E7
:1022E800B687138A440013071006A946014611A8A9
:1022F800BE883A88B687138A440013071006A94691
:1023080005468C404E85EFF0BF9341B79D04E19898
:10231800CC40884032C63EC43AC236C0EFB04259BB
:102328003246A247124782463288AA856A864E8577
:10233800138A8400853991BF83A7490003A5090042
:102348000546CA8582970504268A89B72285B6403C
:10235800264496440649F259625AD25A425BB25B05
:10236800225C925C025D61618280397132D43010E6
:1023780006CE36D63AD83EDA42DC46DE32C6E139F7
:10238800F2402161828083470500139787016187A6
:102398006352070293F7F70713070004B3F6E70041
:1023A80081EE050593060008034705001376070C20
:1023B8006309D6003E8582809346F7FFF58F058333
:1023C800F1BF9A071377F7030505D98FF1BF050504
:1023D800130700088347050093F7070C6383E7009A
:1023E80082800505C5BF8147930600086364B50070
:1023F8003E858280FD1503C705001377070CE307A8
:10240800D7FE8507E5B7AA87AA9593060008014570
:1024180063E3B700828003C707001377070C6303E1
:10242800D70005058507EDB79307F00763ECA7000C
:10243800B717042093870723AA9703C507000581C8
:1024480005898280014582809307F00763ECA70025
:10245800B717042093870723AA9703C507000D81A0
:1024680005898280014582809307F00763ECA70005
:10247800B717042093870723AA9703C50700098184
:1024880005898280014582809307F00763ECA700E5
:10249800B717042093870723AA9703C50700198154
:1024A80005898280014582809307F00763E2A702CD
:1024B800B717042093870723AA9703C70700854700
:1024C800318B09E7130515FA933715003E8582808D
:1024D8008147EDBF9307F00763ECA700B717042007
:1024E80093870723AA9703C507001181058982806E
:1024F800014582809307F00763ECA700B717042013
:1025080093870723AA9703C5070015810589828049
:1025180001458280411122C406C62A84653F19C13B
:10252800130404022285B2402244410182804111F1
:1025380022C406C62A847D3F11C101142285B240F7
:10254800224441018280130505FDA54763F5A700D4
:102558001375F5FD65158280F91563E5A50083D728
:102568000500FDDB8905898D13D51540828093D739
:10257800460063F0C704139717001D8EBA95854867
:102588003287BD8A83D705006307170103D8250062
:102598004208B367F800B3D7D700C207C183231036
:1025A800F5007D170905890571FF91E37D163285D0
:1025B80082800146EDBF198EBA880148814763942D
:1025C80008020607B306E500BA953688328715EF84
:1025D8000606369689C785472310F600090633058F
:1025E800A6400585828033830501338E0601035397
:1025F8000300035E0E00FD1872939A9733030501DA
:102608002310F3000908C1835DBF83D805007D1737
:102618000908C697231FF8FE8905C1834DBF198E87
:102628003A8381488147631D03000607B308E50024
:10263800B2862E97468885EA0606B385C80029BF64
:1026480033881501035808007D13C2973388160193
:1026580003580800B3870741330815012310F80011
:102668008908C187C9B783550700FD160908AE97C1
:10267800231FF8FE0907C1877DBF411126C2AA841E
:10268800314522C406C6EFD0BFC59C402A8413F743
:1026980017001C41F99BD98F13F7D7FF18C1884041
:1026A800858B098113172500D98F1CC0DC405CC0BD
:1026B8009C4489EB232404002285B240224492449E
:1026C800410182800605EFD0BFC108C490408C4408
:1026D80009820606EF40F223C5B7939715003E9589
:1026E8003E9699E101458280791579168357050050
:1026F80003570600998F63C5070089E7FD15D5B70D
:102708007D5582800545828011CD411122C42A84DD
:10271800084506C6EFD03FC322852244B240410196
:102728006FD07FC28280411122C426C206C6894763
:10273800AA84094463E3F5002E8488449C4009C5B3
:1027480013D72700637E8702898B8DC3B7160420B1
:102758003716042037150420938686301306C62BB7
:102768009305702D13058531EF70A11D9315140085
:10277800EFD03FBB9C400A0488C48D8B5D8C80C021
:10278800B2402244924441018280411122C42E84E5
:10279800894526C206C6AA84793763510402B3055F
:1027A800804005479C4023A20400F99BD98F9CC018
:1027B80089E9B2402244924441018280A2850147BE
:1027C800D5B7DC409844938617008607D4C0BA97DB
:1027D8002390B700C181E9BF23200500232205000B
:1027E80023240500828019C51C41898B81E708458F
:1027F8006FD07FB58280411122C42E84CC4126C27D
:1028080006C6AA840D371C408844B24013F7170047
:102818009C40F99BD98F9CC05C400C44DCC0504064
:1028280022449244060641016F40B20E81E52322FC
:102838000500828099BF011122CC06CE2A842EC6BB
:10284800613F22856244B245F2400561C5B713175E
:10285800260010410CC5232205000D8A598E10C18F
:10286800719A136626002300C500B685C1B7011109
:1028780022CC2E84914526CA32C636C406CEAA84F6
:102888005D35A246324695CA63590602B3058040B3
:10289800B337B0003306C0401D8E93F7160094403E
:1028A80023A20400F99ADD8E94C0B3E7C50089EB32
:1028B800F2406244D24405618280A2858146F1BF1C
:1028C800DC409844938617008607BA97D4C02390B3
:1028D800B70093170601C181DD8D4182F9B7011157
:1028E8004EC606CE22CC26CA4AC852C4184193D72F
:1028F800F501AA89799B5D8FB707807F18C133F7E7
:10290800B70019EB23A20900F2406244D2444249BD
:10291800B249224A05618280E306F7FE13D47501A5
:102928001374F40F130714F8E34E07FC11EB624419
:10293800F240D2444249B249224A85450561B1B5BF
:10294800B70480009387F4FFED8F130A14F9C1468A
:10295800DD8CD947334ADA0263C2E706DD4733879D
:10296800E740B3D4E40001490144D2854E85653B74
:1029780023A2490101C803A5890013161400814543
:10298800EF40E27C6301090283A789001317140052
:10299800BA97339724012390E70041473309274129
:1029A800B3D424010504E3018AF683A78900131729
:1029B8001400BA9723909700C180EDB72507130438
:1029C800A4F61379F7003344D40245B7011106CEB3
:1029D80022CC26CA4AC89307400263F2E702B71618
:1029E800042037160420371504209386063313066F
:1029F800C62C9305A03613058531EF609174338991
:102A0800C5000E06AE849355460085052A843AC64D
:102A180036C4113BA24623220400268593F71600EC
:102A28001440254E6543F99ADD8E14C03247636918
:102A38002501F2406244058D4249D24405618280F5
:102A480083470500938607FD6378DE009386F7FBCE
:102A58006367D302938697FCE3FDE6FC0C445C4075
:102A68002E863E88631408028607AE9781C6239097
:102A7800D70089078D8F85875CC005054DBF938674
:102A8800F7F9E368D3FA938697FAF9B783580600FB
:102A98007D180906B388E802C696231FD6FEC182B0
:102AA800D1B7011122CC26CA06CE2A84854489C50D
:102AB8009307F6FFBE96FD5493153600BD05918128
:102AC800228536C632C485311C402246B246F99B5F
:102AD8001CC02322040081473D4809EE4C400844AD
:102AE8008605AA95EFF05FA748C0F2406244D24439
:102AF800056182800147634DF80083C506007D1695
:102B0800A696B395F5004D8F42074183A10765F658
:102B18004C400844C11793881500860523221401E8
:102B2800AA952390E50055BF54412A8781E6DC41E8
:102B380001459DCF411122C49C41004306C6858BA7
:102B4800137514003385A74005E1DC417D5563E921
:102B5800F600054563E6D70090450847B685B53EBB
:102B6800058819C03305A040B24022444101828043
:102B78008280411122C406C62A846303B500A539A0
:102B88001C40B240F99B1CC0224441018280411183
:102B980022C406C62A846303B500B1391C40B2407A
:102BA80013C7F7FF058BF99BD98F1CC0224441013D
:102BB8008280011122CC06CE2A846303B500253910
:102BC800504011EE85452285B93E184485472310AB
:102BD800F7005CC01C4093E717001CC015A01C4000
:102BE80013F7170015C30C44F99B1CC0054785470C
:102BF8009306E1002E852317F100EFF05FA248C08D
:102C0800F240624405618280930516002285213EC8
:102C18000C445040854705479306E1002E8523174D
:102C2800F100EFF05F9948C075B7DC4101114AC85F
:102C380006CE22CC26CA4EC62A8991C309EA624426
:102C4800F240D244B2494A85424905616DB69304BF
:102C5800F6009180AE89B38597003284EFF0BFAC5F
:102C68001376F4008327890083A6890083A5490089
:102C780011E24146370700801347F7FF3384B40059
:102C88003305E40006052E97AA9706074145BA962C
:102C98002E88BE8801473306C54063100806F956DA
:102CA800B385D5023357C700139614007916B38637
:102CB800D402AE972390E70081458906B6973E85F2
:102CC800EF40E248AA8719C4131714003E97035728
:102CD800E7FF21C32322890083A70900F240624449
:102CE80013F7170083270900D244B249F99BD98FFB
:102CF8002320F90042490561828003D506007D182A
:102D0800F918498F3355C7002391A8004207F916CF
:102D180069B77D144DBF01114AC82E89CC4126CA16
:102D280006CE22CCAA8499C1328419EACA8526859E
:102D3800EFF07FACF2406244D244424905618280A0
:102D4800EFF07F9E03264900832589008844A286E8
:102D5800EFF0FF81C8C0832709002A8613F7170000
:102D68009C40F99BD98F9CC0858BE9D78326490065
:102D7800935744002317010001476384E600631456
:102D8800F702E3F9D7FA0327890086073D88BA973F
:102D980083D707000547331487007D147D8C15C839
:102DA8002317E10031A88325890013151700AA9578
:102DB80083D5050089CD05472317E100E3E5D7FC56
:102DC8008C4401EE85472390F500DCC0A5B70507C4
:102DD8006DB78357E100B9DFE5B705479306E10012
:102DE8002E85EFF04FFDC8C0B1B7411122C45C4237
:102DF8002E84CC4126C24AC006C62A89B28463EA18
:102E0800F50063EBB70010460844EFF01F8D6355DB
:102E18000500A2872684BE841C4098404C40B98F88
:102E2800858B95EF85054A85EFF0FF8FD840944450
:102E380050400C4403258900EFF0EFF72322A90046
:102E48001C40B240224413F717008327090092441C
:102E5800F99BD98F2320F9000249410182804A85D4
:102E6800EFF07F8CD840944450400C4403258900EF
:102E7800EFF0EFFAE1B7011122CC5C422E84CC418D
:102E880026CA4AC806CE4EC62A89B28463EBF50024
:102E9800814963ECB70010460844EFF01F8463567D
:102EA8000500A28785492684BE841C4098404C4072
:102EB800B98F858BB9C385054A85EFF0DF86D84081
:102EC800944450400C4403258900EFF0CFEE2322B0
:102ED800A9001C4013F71700638409001347170063
:102EE80083270900F2406244F99BD98F2320F90017
:102EF800D2444249B249056182804A85EFF0BF82D7
:102F0800D840944450400C4403258900EFF02FF139
:102F18007DBFD8415C42011122CC4AC806CE26CAE0
:102F28002A892E846374F70032842E8618404C4018
:102F38008547058B19E31C42858BBE954A8532C6A9
:102F4800EFF06FFE3246032384004C4004420040F9
:102F580003258900032E8600B3479400858B8322BE
:102F68004600814699E39376140005888588330FD7
:102F7800D040B30F8040B3089040420FC20FC20840
:102F8800C1632288A680135F0F0193DF0F0193D8D6
:102F980008012E86AA8EB382B240FD130DEA86057B
:102FA800AA9589C685472390F5008905EFF0CFDA01
:102FB80083270900658CF240F99B5D8C23208900EA
:102FC80062442322A900D244424905618280835782
:102FD80003007D164687B3C7FF003E98B387C2003B
:102FE8006367F60003570E00090E33C7E80006971B
:102FF800B377E800B3C7E701B3F77700B697239034
:10300800FE00935007011358080193D60701890E53
:10301800090369B7D8415C42011122CC4AC806CEDF
:1030280026CA2A892E846374F70032842E861840B3
:103038004C408547058B19E31C42858BBE954A8514
:1030480032C6EFF04FEE032384004C400040324676
:103058000325890013771400032E86008322460077
:103068000442854719E393F7140005888588330FD0
:10307800F040B30F8040B3089040420FC20FC2081F
:10308800C1633E872288A680135F0F0193DF0F017B
:1030980093D808012E86AA8EB382B240FD1305E6A6
:1030A8008605AA9525C7B7160420371604203715B4
:1030B8000420938646321306062B93053015130514
:1030C8008531EF601108835703007D16C686B3C7A4
:1030D800FF003E98B387C2006367F60083560E0070
:1030E800090EB3C6D8008696B367D800B3C7E70100
:1030F800B3F77700BA972390FE0093D006011358D0
:10310800080113D70701890E090351BFEFF0CFC497
:1031180083270900458CF240F99B5D8C23208900A8
:1031280062442322A900D244424905618280D841E1
:103138005C42411122C426C24AC006C62A892E848E
:10314800B2846374F7003284AE8418404C408547DB
:10315800058B19E39C40858BBE954A85EFF0AFDC63
:103168001C4098404C400325890003AF44000323CA
:10317800840003AE840033C6E700C16693C7F7FF37
:103188001347F7FF13781600858B058BAE88AA8E38
:10319800FD16330FBF40639F08028605AA95630694
:1031A800080085472390F5008905EFF0EFBA232240
:1031B800A90018409C40B2402244B98F13F7170069
:1031C800832709009244F99BD98F2320F9000249EB
:1031D8004101828003560300FD18B30F1F01369684
:1031E800B297368663E6F80103560E00090E369646
:1031F800329733C6E700758E42962390CE004183FE
:10320800C18313580601890E090371B7DC41011106
:1032180022CC06CE26CA4AC84EC62A8481C75C423A
:10322800B28491EB23220400F2406244D244424922
:10323800B249056182802E89639EA506EFF0EFC32F
:103248002A89AA8963938400AA84DC4083254900DB
:103258002285BE95EFF02FCD1040084481450982A4
:103268000606EF30D26E032849007955832E840074
:103278003305A802032F890083A88400CC40931645
:103288001800F69601473386A600A5ED58C0984069
:1032980083270900F240D244B98F13F717001C4066
:1032A80042494E85F99BD98F1CC06244B2490561D9
:1032B8006FF08FC58149E31AA6F8EFF00FBCAA8416
:1032C800AA8961B7035E060083DF08007D173E9E6A
:1032D8008357030009060903B387F703F297231FEF
:1032E800F6FEC18365F336871386260081C72390CF
:1032F800F60032873307D7410587FD158908B2865E
:1033080059B77A8342878147F1BFDC41411126C210
:1033180006C622C44AC0AA8481C71C42858B89CBB1
:10332800B240224423A2040002499244410182800F
:103338005C4289EB2244B2409244024985454101EE
:103348006FF0AFC42E853284EFF02FB32A8922851F
:10335800EFF0AFB22A8485452685EFF00FC35C40B5
:1033680095C31C4483D70700858B89C74A86A685E1
:103378002685693D0C44504085462E85EFF02F9FE9
:1033880048C001ED4A85EFF02FB822852244B240AB
:103398009244024941016FF02FB74A86CA854A858F
:1033A800B53575BFDC42397106DE22DC26DA4AD82B
:1033B8004ED652D456D25AD05ECE62CC8DE3B716D2
:1033C800042037160420371504209386462F130649
:1033D800062E9305A05E13058531EF6081562E8475
:1033E8004C42B68AB28485052A89EFF0CFB3D04023
:1033F80003258900814505060606EF30525523222C
:103408000900CC4022858505EFF0EFB1A68522851D
:10341800EFF06FBE03AA4A00032C440063614C0915
:103428008329840003AB8A00832B8900636C8A0795
:103438005A86E2854E85EFF04FAA25E12322040043
:1034480085472390FB002322F9009C4003A70A002C
:10345800B98F858B9DC78327090093E71700232021
:10346800F9005C4099CFFD554800EFF0CFBC500003
:10347800CA854A85EFF07F975686A2852285EFF0A8
:10348800DF96F2506254D2544259B259225A925A93
:10349800025BF24B624C2161828063550500232256
:1034A800090065B7131E1A00791E3305CB0183572F
:1034B80005008148139707014187635D07081317C3
:1034C8001C003386E9002310060093071C00090737
:1034D80041485CC04E97CE86814E3308184163E35D
:1034E800E608835605000547B3961601637A470137
:1034F8000357E5FFC145B38515413357B700D98E4A
:10350800B38747412322F9008607F917C16EDE9772
:10351800090EFD1E58406367EA0606077917C1467B
:103528004E978145B3861641637F3715B7060080ED
:1035380093C6F6FF0327490009CBB307D7008607D0
:10354800DE9783D70700638E0714B706008093C6FB
:10355800F6FFB1AA86078508C207C208C18393D8B7
:10356800080189BF83D50600890633931501B3D5B1
:1035780005013363D301939E0501239F66FE93DE05
:103588000E01B1BF035306008355E6FFB303C641DE
:1035980042033363B3003353D3021E8FDA82014CE4
:1035A800814F636ACF02035F06006365EC09330F3E
:1035B800EC41B305E0412310B60093550F01337F6A
:1035C800DF01333FE0012E9F630A0F061E88DA8F62
:1035D8008145014569A883D5020093DF0F01B395A2
:1035E8001501B3EFF50133F5DF01330865028355A3
:1035F8000F006376B800338505416365AC02B305F7
:10360800BC40C2953305B04013DC0501B3F5D501C4
:103618004205B335B00041812E9C2310AF008902CA
:10362800090F41B73385854133050541420541817D
:10363800014CE5B7330F8F412310E6012390670053
:103648007D17F917791658C0F1B583D20F0041815B
:103658000908B392120133E5A2008352E8FF890FEB
:10366800AE92B375D5019695231FB8FEC181E36E5E
:10367800C8FC035506007D13AA952310B600C18126
:10368800330FBF4091B783570700791733D61741D7
:10369800B397D7004D8E939507012311C700C181B9
:1036A80061B57D172322E90071B57D1758C05840D0
:1036B800E30D07D8B307D7008607CE9783D707004F
:1036C800EDD761B35C41144501478607B69763E9B6
:1036D800F6001C41858B99C33307E0403A85828008
:1036E80003D6E7FF4207F917518FD5B7584114455C
:1036F800814706073697216663EAE6001841058B7D
:1037080019C3B307F0409CC105458280791763F857
:10371800C70003580700C207B367F800F1BF0145A7
:103728008280368899C13388C600832E8500032E8F
:103738004500054F014781489D4F369663130E009B
:10374800828083D70E004207C1085D8F63C51F01C1
:10375800890E7D1EE5B70323050093170701C18372
:1037680013731300630B030093C7F7FF93F7F70F67
:10377800FA97C207C18313DF870093F7F70F81C950
:103788001303F8FFA30FF8FE639966008280130302
:1037980018002300F800E305C3FAE11821831A880A
:1037A80075B7797122D440414AD0B717042003294C
:1037B80085004ECE83A9072F060426D206D6AA84F2
:1037C8004A9413050000636F89009C40858B81C76C
:1037D800B70700803D8DB250225492540259F249E5
:1037E80045618280CE85EF90920B2AC60355E4FF8F
:1037F8007914EF90126DB245EF904220E9B76385D6
:103808000710797122D44AD052CC32893E8406D628
:1038180026D24ECE9387E5FF79462E8A637DF60041
:10382800230004000145B250225492540259F2492F
:10383800624A456182804441AA899DE42285631FCA
:103848000900930700032300F500A3000500050500
:10385800018DD1BF0509A30FF7FE3A8583470900FB
:1038680013071500E5FBF1BF860426853AC636C462
:10387800EFC01FA783A589002686EF309209A246CC
:1038880032472A882283A28533069500130E9003B7
:10389800938666FC8D4E32858147791563730503DF
:1038A800938707036373FE00B6972380F50093841C
:1038B8001500C28763E3C70235C7854791A8A68567
:1038C800D9BF83580500C207B3E7F800B3D8470348
:1038D800B3F7470323101501C9B703D507001DE542
:1038E8008907C9BF7D15834705008504A38FF4FEAA
:1038F80099A003C6070083460700FD172300C700E9
:10390800A380D7000507B1A0014582804DDB814720
:10391800338564406317D50193842500A380E500AF
:103928002683D1DF4285EFC01FA2630809004A85BC
:10393800EF3032304A95E367A9FA83A70900858BEF
:1039480091C79307D0022380F40085049387F4FF7E
:103958002287E360F7FA2380040033858440E1B5C9
:103968001C45584563F8E7001387170018C503C5B9
:10397800070082807D5582801C41411122C406C601
:103988002A8481C74841EFC01F9C22852244B24047
:1039980041016FC05F9B011122CC2A84414506CEAC
:1039A8002EC632C436C2EFC0BF93B24522469246F5
:1039B8004CC10CC5B7470120B29514C14CC59387BB
:1039C80087965CC0B74701209387079808C01CC436
:1039D800F240624405618280184993077002630BC4
:1039E800F706930620028547630FD702930750070F
:1039F8006308F7009377F7FE930620066397D702CC
:103A08005449130670028547638FC60013062002C7
:103A1800638BC600930720076319F70093072006F6
:103A2800638FF60081473E85828093062006814792
:103A3800E31BD7FE544913072007E396E6FE084D1B
:103A4800130770028547E300E5FE1305E5FD93378C
:103A58001500D1BF8547C1BF1849411122C406C608
:103A6800A9472A84631AF7045C4D85075CCD85470E
:103A78001CD05C4848401CC81C4C5CC81C4482973D
:103A8800584808CCB547631AF700A9475CC86316BD
:103A9800F5001C444840829708CC1C4C7D5763991C
:103AA800E70058486306F700A9476303F7001CCCF2
:103AB800B240224441018280A5461C516314D700BC
:103AC8009D07E19B85076DB7011122CC26CA4AC81C
:103AD8004EC652C456C25AC006CE2A842E8A0149FE
:103AE800FD59A944930A3002130BC0050848631D09
:103AF8003501F24062444A85D2444249B249224AD9
:103B0800924A024B05618280631A950063040A0099
:103B18001C54E5D3228589370549C9BFEFE0DF90FA
:103B280001C52285153FD9B71C48639A57012285DC
:103B380025371C48E38C37FBE39B97FE45BFE39A88
:103B480067FB5C48E39797FA22853937D9BF5D71DF
:103B5800A2C46ECE86C6A6C2CAC04EDE52DC56DAF3
:103B68005AD85ED662D466D26AD023240504814529
:103B7800AA8D993F03A7CD0103A44D0223ACED0202
:103B880003A70D0223AEED0263570402194723A0D1
:103B9800ED04050423A28D02B64026449644064946
:103BA800F259625AD25A425BB25B225C925C025D65
:103BB800F24D6161828011C4154723A0ED047D1484
:103BC800D1BF45C583A68D02CDE203A60D0313041C
:103BD800F7FF37070080914603A54D031347F7FF0A
:103BE80023A0DD04B306E6008606AA9683D606005F
:103BF800E304D4FA63FB860483A5CD02636DB600A3
:103C0800A1058605EFC0EFF103A7CD0223AAAD02F7
:103C1800210723A6ED0203A70D0383A64D03130670
:103C280017000607369723A8CD022310870003A79D
:103C38004D02050723A2ED0285B783A64D027D1626
:103C480023A8CD02FD1623A2DD0203A60D03B306A9
:103C5800E6008606AA9683D60600E360D4FE0947E6
:103C6800E30CD4F223A0ED0405BF83A40D017D5716
:103C78006395E40023A00D0405B76E85B13BAA89BE
:103C8800630C052823A00D04054BA94B930CC00514
:103C980013844D0403A70D0193065007630CD70A3C
:103CA80093062006631DD70083A64D01130720073E
:103CB800CE846380E60205492D47814429A813066E
:103CC800200701496319C70803A74D01CE8463166D
:103CD800D70809492D4783A60D04D9E223A0ED048E
:103CE800630909006E858D3B09476314E9006E85F9
:103CF800A53383A60D0113072002130970026394EC
:103D0800E600130920026E85813B03A70D01054AD1
:103D1800631B270103A74D016317E9006E852D3B3F
:103D28006E851D3B0D4A014CFD5A83A50D01638F1D
:103D3800551D63146A01638B751D63664C03E28528
:103D48002285EFD0BFD785456E85BD3B6E8569312D
:103D580031F199B5054929478DB705492947A5BFC7
:103D6800E380E6F815BD631AB900CA852285050CFB
:103D7800EFD09FBB6E85CD314DBF639095196E8591
:103D8800E13903AD0D0181C89305C0052285EFD047
:103D9800BFB9EA85FDA093062006630FDD1263E232
:103DA800A6079306E004630EDD0E63E5A6039306FB
:103DB80020026306DD04930670026302DD04014CF1
:103DC800E30A7DFB93050DFD9D46E3EFB6FA0D4C26
:103DD8001D4DCDA863059D03930610069D456309F7
:103DE800DD0A93065005E31FDDFC83A60D04AD47ED
:103DF800639AF6049305C0052285EFD0FFB2EA85E1
:103E080041A893064007630BDD0C63E0A603930605
:103E1800E0066307DD0C930620076305DD0C9306B7
:103E28006006E311DDFAB145A5A093066007630DAE
:103E3800DD0AE36CDDFA13068007094CE314CDF8BC
:103E480081452DA813065007114CE30BCDFE214CDC
:103E5800C5BF6E852EC6EFF03FC003A70D013A859A
:103E68003AC4EFE06FE2630705362247B2453A8568
:103E7800139D4500EFE02FEDB305AD007D1CE31A5F
:103E88005CFD014CE38855EFB707110063FDF506AB
:103E980003A70D04631C77052285EFD0FFA8014C0A
:103EA800D1BD3715042013050538EF70D0796E851C
:103EB8002EC4EFF07FBAA24583A60D018E05938626
:103EC80006FDB69583A64D01938606FDE36BDDFAE4
:103ED8007D1CE31E0CFC75B7A1455DBFA5454DBF14
:103EE800A9457DB7B5456DB7AD455DB79307F00FEB
:103EF80063EBB700AD476318F70093F5F50F22851C
:103F0800EFD0FFA069BF23A06D0551BFE3794CE353
:103F18000D4723A0ED0425B52685EFE0EFD2AA844E
:103F280003A50D0189E81307F0056306E5001307EB
:103F3800F0076373A70A1D4713844D049375F50FA3
:103F480023A0ED042285EFD09F9C6E85EFF0DFB0B3
:103F5800FD541309F0059309F00703A50D0163113A
:103F680095042285EFD0FF97B7140420AA8993847B
:103F780044480144130920028C404E85EF30C24862
:103F880029E5350423A08D044147E317E4C037F73A
:103F98000080832607963D47E38606CC3547D9B18E
:103FA800EFE08FCA11E903A50D016307250163E559
:103FB800A900EFE06FCB55D583C50D012285EFD061
:103FC8001F956E85EFF05FA949BFE34705BC05045F
:103FD8009104E31324FBC9B6EFE00FC935C983A5E3
:103FE8000D011307E0026396E508254723A0ED04B9
:103FF80013844D042285EFD03F936E85EFF0DFA543
:104008007D5A1309E002A549930AA004130B500432
:1040180003A50D01E30245B9D1E41377F5FD631358
:10402800670993055006228523A03D05EFD0DF8F51
:104038006E85EFF07FA283A50D01138755FD759B53
:1040480061FB2285EFD05F8E6E85EFF0FFA0C9B7C8
:1040580083A60D011307E0026397E60003A54D014F
:10406800EFE08FC02DFD3714042001491304C43339
:104078009DA8214723A0ED0413070003E39AE5F662
:1040880003A74D01D946136707021307E7F963E849
:10409800E6003724400005043354E400058893748F
:1040A8001400B9B7EFE04FBA01C983A50D01639FAA
:1040B800250123A03D0571B703A50D01EFE0CFBA97
:1040C8006DF503A70D01E30227FFF9B413F7F5FD1A
:1040D800E31957F7F9BF9384D4F993F4D40F91E017
:1040E8000504050905048344040089C403A70D01D8
:1040F800E31397FE6E85EFF03F9699E005479DB66E
:1041080013071002639EE40083A60D011307D00372
:10411800E396E6FE6E85EFF03F941307100499B618
:104128001307E0026395E40203A70D0163169700E5
:1041380003A74D01630597001307A00425B66E85F4
:10414800EFF09F916E85EFF03F91314721BE050456
:10415800CA8693093006130A50068344040013875D
:10416800D4F91377D70F15E30347140003A60D01FD
:104178000509631AE6006E85EFF01F8ECA8663860E
:1041880044010904D9BFE39E34FF371704201307FD
:1041980087453697034707001306200423A0ED043C
:1041A8009376B70F6386C600130640046318C700EA
:1041B80003A78D02050723A4ED02F9BA13063004FC
:1041C8006386C60093065004E318D79C03A78D02A4
:1041D8007D17D5B723A06D0581455DB9011126CAA4
:1041E800AA841305400506CE22CC2EC6EFC04F8FF9
:1041F800B2452A84314604C11105EF209271F9575E
:1042080085441CD0A9475CD444CC2322040223242F
:10421800040204D85145EFC0AF8C9305000248D87A
:1042280013054404EFD0AFDB5C58228523900700C8
:10423800232C0400232A040023280400EFF0DF8144
:104248002285EFF07F812285EFF01F812285EFF034
:104258001F905C5C6384970095473CC02285F240C0
:104268006244D24405618280797122D42A84480844
:1042780006D6EFF04FF24C0831460A85EF207269F6
:104288008A852285A13FB2502254456182800DC59E
:10429800411122C45C452A84484106C68297130509
:1042A8004404EFD0CFDB4858EFC0EF892285224481
:1042B800B24041016FC02F8982802E951377F6078F
:1042C8009307F5FFA30FE5FE898D3387B700634396
:1042D800E00082801D82FD17136706F82380E7003F
:1042E800EDB718418147834607009E07050713F677
:1042F800F607E206E186B297E3C706FE18C13E85D7
:1043080082800111930715003EC606CE03470500BB
:10431800A14763E6E702B7160420931727009386A0
:10432800C650B6979C43828715052AC6F240324587
:10433800056182800D05D5BF68006537C5BFE547B3
:1043480063E4E7000905D5B768002EC4593F680043
:10435800493FA245E1DDB247AA973EC6C1BF411118
:1043680022C42A841C4C4AC02E8506C626C232891D
:1043780081459D8393841500B1E78905EFD0EFD37C
:10438800A1472300F500104CA68505053D371C4CB8
:10439800444863EA9700484CA10493952400EFB081
:1043A8005FF848CC44C81C4C584CB2409386170060
:1043B80014CC8A072244BA9723A0270192440249C1
:1043C80041018280A68575B7411122C426C206C65E
:1043D8004AC0A9473284935486006393F5049357DF
:1043E800C6008DC3B7160420371604209386866C42
:1043F800130606579305A01B371504201305C56D32
:10440800EF5021548945EFD04FCBA90423009500E4
:10441800A3008500B24022449244024941018280AF
:104428009357060181CFB7160420371604209386C8
:10443800C66E130606579305F01B7DBF2E898D4562
:10444800EFD0AFC723002501A30085002301950005
:10445800D1B71C41BDEF011126CA1C45AE844C41A1
:1044680022CC4AC84EC652C406CE3A89B689328A88
:104478002A8463E7B7024845E10505468E05EFB093
:104488005FEC19E985471CC0F2406244D2444249B6
:10449800B249224A056182805C4048C4E1075CC099
:1044A8000C445C44138715008E0518C4AE978843E6
:1044B800370700FF93958400798DA181C98D8CC33E
:1044C80003470A002392370123932701A381E700BA
:1044D80065BF8280B967ED8F89666384D702B71696
:1044E8000420371604203715042041119386467995
:1044F800130606539305500C1305C56D06C6EF50F9
:104508004144D205D181B7270420938747DA8A0529
:10451800BE951C51904101478C5F81461DBF4111DA
:1045280022C42E84954506C6EFD02FB98D472300A7
:10453800F500114781478507B306F50023808600FB
:104548002184E39AE7FEB2402244410182807971D6
:1045580022D4005126D24AD0244006D64ECE52CC80
:104568009D472E89639EF4002C446844EFC07FED7C
:104578002A86A9454A85893D2285EFF04FDD79A82D
:10458800A147AA896391F4022C4468440146A28693
:10459800EF50B06A937715002A868DC3935515405E
:1045A8004A85B53FD1BFA547639EF4002C446844B3
:1045B800054622878146EF50B07B2A86CA854E85FC
:1045C800793B5DBF938764FF054A6366FA082C440C
:1045D8000A85EFD0CFA030446C440A85EFD0AF9B5A
:1045E8002285EFF0CFD63C40E387F4FED917054784
:1045F80001456376F7029245A947224563E9B70268
:10460800EFC03FE405C9A94791456383F400954588
:104618002A864A85553B0A85EFD06FA40545B250D6
:10462800225492540259F249624A45618280EFC08D
:104638007FD9C9BFA94722459245639BF40001462B
:10464800EFD060402A86CA854E85EFF05FD1E1B78A
:10465800EFD06043C5BF89454A85EFD00FA6230038
:104668004501A300950009BF011106CE2AC60347DC
:104678000500A1476302F702B71604203716042085
:10468800371504209386C6701306465493052015E3
:104698001305C56DEF50E12A05052AC668002EC42A
:1046A800EFF03FC4A245F24088C1324505618280DF
:1046B800034705008D476304F702B7160420371631
:1046C8000420371504204111938686721306C655B7
:1046D800930590151305C56D06C6EF50812623A0D6
:1046E80005002A86814713080002050603470600CD
:1046F800B316F7009841A107558F98C1E39707FFB4
:104708001505828001116C0006CE5D37F2403245F6
:10471800056182805D71A2C4CAC052DC56DA86C6C1
:10472800A6C24EDE5AD85ED662D466D26AD06ECEA3
:1047380083C706001307A0022A842E89B28A368A04
:10474800639BE7021C45AE9783C70700638907127E
:104758001307600A6385E712B64026449644064963
:10476800F259625AD25A425BB25B225C925C025D99
:10477800F24D616182801387F7FD1377F70F894641
:1047880063EAE60604458D473385B4000347050010
:104798006317F70E832944002C00193FCE94130B9E
:1047A80010028D49930B2002130C300263199500F7
:1047B800A245232224012285EFF07FD671BF8347CB
:1047C8000500639E370B6C00E53583470A00639745
:1047D8006701A2473247D98F3EC4C9BF63967701A4
:1047E800A2473247B98FCDBFE39287FDA247324730
:1047F800F98FDDB71387C7FD1377F70F63EDE6165B
:10480800032B85008D473305BB000347050063185C
:10481800F70644402C00693DB70B0040AA89269B47
:104828000D4C930C7003130D9003930DF002FD1BB8
:10483800E38069F983C729001385290083C4190017
:10484800639F87036C00AD35AA8963949409324746
:10485800FD4763C6E702A247B3D6EB4063C1F60241
:10486800B70600C0B3D6E64063CBD700B397E700DE
:104878003EC4224793171700B98FE3DB07FA032BCF
:104888004400D6870145330B2B419D83930B1500BC
:1048980063980714DA8781499D838509F5FF930496
:1048A800250033863401CA852285EFD04F98834787
:1048B8000A002A845686E9072300F500DE850505E7
:1048C800EFF0BF9F5A86CE8533059400EFF0FF9E28
:1048D80061B5639CA4013247FD4763D3E7003EC638
:1048E8003247A247B3D7E74061B76396B401A247FE
:1048F8003247BA97B5BF930700036396F400A247FF
:104908003247998FB5B793071003639CF400B245FB
:104918002245EF40713A25F5A2473247B387E702AF
:1049280081BF93073003E38CF4F493075003639932
:10493800F400B245A9D52245EF40D13C2AC415BFA1
:10494800930740036382F402B71604203716042045
:1049580093860674130646589305302437150420A9
:104968001305C56DEF40F17DB245E38A05F0224598
:10497800EF40D13AE1B713077002E392E7F0084538
:104988008D472E9503472500E31BF7EE834415005A
:104998000905EFF03FD72AC49307F002E38AF4E051
:1049A80093070003639BF4003305A0409317150099
:1049B8002AC43D8DE35E05DED9B59307D003638D28
:1049C800F400B716042037160420938606761306DB
:1049D80046589305002659B71345F5FF2AC4C9BBA5
:1049E8005E8565B5411122C426C206C6AE8401445F
:1049F800636895002285B240224492444101828036
:104A080085450504EFF0FF8FE5B785456FF07F8F8B
:104A180081456FF01F8F011106CE2AC60347050096
:104A2800E54763E2E702B716042037160420371576
:104A380004209386C677130646599305B03C1305A0
:104A4800C56DEF40117005052AC668002EC4EFF049
:104A58005F896800EFF0FF88B247A245F2403E95B3
:104A680088C13E8505618280011122CC2A840841D3
:104A780006CE0347050019E7050508C0F240624461
:104A880005618280E54763E6E7008545EFF07F87AB
:104A9800F5B7E905E31BB7FE6C00B53F08C0324522
:104AA800F1BF011106CE2AC603470500E54763E2B8
:104AB800E702B7160420371604203715042093861A
:104AC800C6771306865A9305403D1305C56DEF401A
:104AD8005167930715003EC683470500680036C432
:104AE80099179CC132C2EFF0CFFF124608C2680086
:104AF800EFF02FFFB247A246F2403E9588C23E85AE
:104B08000561828001116C0006CE3137B247F24050
:104B18003385A740133515000561828019712AC0B5
:104B28009307000613050030CAD886DE2E89A2DC5A
:104B3800A6DACED6D2D4D6D2DAD0DECEE2CCE6CA47
:104B4800EAC8EEC632C202C83ECA02CCEFB04FFB7A
:104B58002ACE02D002D202D402D64AD802DE630894
:104B6800054012469307800319C609479307A00317
:104B78006303E6008147B7240420138744DA8A07D1
:104B8800BA97904383258903014781460808EFF0C7
:104B98005F8C4145EFB0CFF4C1452A84EFC03FC4D4
:104BA800938744DA3EC2B7070001FD17814D3EC422
:104BB8007D7C056AE247C24B638B0738639B0B38E1
:104BC8007247FD173ECC8E07BA9703C73700924647
:104BD80083AA07000A073697044303DD47002247E4
:104BE80083CC140083D96700B3FAEA0013FBFC00F6
:104BF80063140D008329440013F70C034146630B2B
:104C0800C70213060002630AC70C63840D2E094706
:104C18006317EB2805476305ED0263180D32B716D5
:104C28000420371604209386C65E1306865B930518
:104C3800D05295A863040D00638D0D0863646D015F
:104C4800854D8DBF931B1D00B387740183D7270043
:104C580033F78701631C47031307FAFFF98F03270C
:104C68000904631AF706A2850808EFF05F8E35E19C
:104C7800832709041547639CE734B71504209385F7
:104C880085643745042013058535D5AC89676302EB
:104C9800F702B7160420371604209386465C1306DD
:104CA800865B93059043371504201305C56DEF40C7
:104CB800514993061D0063F866014E872686D685FE
:104CC8000808EFF00FF9DE9483D524000808EFF008
:104CD8007F80814DC5B5050D95B763800D04631DB3
:104CE8000D00B7160420371604209386C65D1306F8
:104CF800865B9305804445BF9307FDFF8607A6970B
:104D080083D727000D67B3F787016396E7088545C2
:104D18002285EFC09FBA230005009D4D63616D0990
:104D2800631CAB0F938624000147814D63616711B3
:104D38000844014B4E951C4458403E976369E51062
:104D480003C7040095466305D700B1466313D7002F
:104D5800854D03C714009376070491C2814D6207FD
:104D6800618763530700854D338537018146814C40
:104D7800014D6393660F63950D008546630BDD0E49
:104D8800E6852285EFC09FD3A6865686CE852285E6
:104D9800EFF05F983DBF8547E304FDEAD1BD931767
:104DA8001D00B38CF40003D72C0033768701631AF7
:104DB80046059307FAFF7D8F832709046390E7046C
:104DC800639DB701832589040325C904EFC06FE7F4
:104DD8002A86A9452285EFF02FDF631C0D00838703
:104DE800140063D807008255228585052ED0EFF080
:104DF8000FF34A85EFE0BFD5050D0DB7E3020DE4CB
:104E080085BDD6854E8793061D0026860808EFF0D7
:104E18004FE483D52C005DBDB71604203716042057
:104E28009386465E1306865B9305D047ADBD83D750
:104E3800060033F68701631946011306FAFFF18F5E
:104E480019466373F600854D05078906C5B585457E
:104E5800050BEFF00FCBC5B503460500850C19C24D
:104E6800050D814C854536C6EFF0AFC9B2468506BB
:104E780009B71C44BE99E38E6BE583C7090091EB23
:104E88000C4405462285B385B940EFC03FC4850B65
:104E9800DDB74E858545EFF0CFC6AA89CDBF05475A
:104EA800E300EDDA13771D00E30907D60D47E31198
:104EB800EBDC054793F71C001306FDFF89CB83D76E
:104EC8004400B3F787016394470113561D008547D3
:104ED800E31CF6EAE30F07DE45BD1306FAFFB3FB52
:104EE800CB0003260904E31476D31DCF4A85EFE0EF
:104EF8001FC63377AB01058B131617002696835B05
:104F08002600050D33F68B01E30946FD8967630228
:104F1800F602B736042037160420938646E81306AF
:104F2800865B9305805241B3A2850808EFF02FE213
:104F3800C9B7D68508084E87EA862686EFF06FD16E
:104F4800DE850808EFF00FD9B5B10147A5B7638E24
:104F58000B048547638DFB00B71604203716042021
:104F68009386465F1306865B930500562DBBB715DF
:104F78000420374504209385056213054548EF90C2
:104F8800C0352A8402DA7245EFB0EFBB3DC803266C
:104F980089038325090081462285EF90E03F4A85F1
:104FA800EFF0EFAE2285EFB06FB183270904E391EC
:104FB80007CC5C40E38E07CA825522858505EFF051
:104FC8000FD61C4401443EDAB2573EDC6DBF094798
:104FD8006397E700B71504209385C5655DB1D917B8
:104FE8000547374504206369F700B7150420938502
:104FF80005691305856261B7B71504209385856B2C
:10500800CDBF4A85EFF0AFA802454C183146EF20D6
:105018004210F65066540245D6544659B659265A97
:10502800965A065BF64B664CD64C464DB64D096112
:105038008280084511E18280411106C622C44041A0
:10504800EFB06FB0228565FCB240224441018280F6
:10505800011126CAAA841305C00222CC2EC632C466
:1050680036C206CEEFB02FAAB245224604C10CC5FF
:105078002316C5009D472A8492466385F400854718
:10508800639DF40283C7050003C71500D917A2075B
:10509800D98FC207C1832317F4009147A30AD4000C
:1050A8002311F40213050002EFB08FA308D4F240D5
:1050B80022856244D2440561828037250420130585
:1050C800050D269583470500F9B7411122C42A84A6
:1050D800085506C6EFB02FA722852244B2404101E9
:1050E8006FB06FA603564502814663E5C600814747
:1050F8003E858280185593973600BA97D843E309BE
:10510800B7FE8506DDB7411122C426C24AC006C6CD
:105118002A842E89B284F93709C923800400B24051
:1051280022449244024941018280835524028357D4
:10513800440263EDB700085499058E05EFB06F9EE1
:105148008357240208D499072311F4028357440291
:105158000854138717008E072312E4023E95232074
:1051680005002322250185472380F4004DBF5C41BB
:1051780091E38DBF3E85E5BF797122D4404126D2A7
:1051880006D64AD04ECEAE8425E0238004002DA05A
:105198001306F100CE852285BD378347F10089C704
:1051A8002300950040408DA8834705000947639C6C
:1051B800E7008D472300F500B2502254925402595B
:1051C800F24945618280F51793F7F70F0547E375B4
:1051D800F7FEB7260420372604209386060913060F
:1051E800060593055008A9A0B289A28703A947001C
:1051F800E30D09F83E85CE85EFF0DFEECA877DD551
:10520800834705000947F91793F7F70FE36FF7F698
:1052180091472380F40091445C40BDFBB7260420ED
:10522800372604209386C6061306060593057007DD
:105238003725042013050508EF40A1706307B50062
:105248000345050013351500828005458280834794
:105258000500034715000905D917A207D98F9CC176
:1052680082808357C50158558507C20783560702B0
:10527800C183231EF50063F4F6002310F702828031
:10528800411126C2AA843285904022C42E84B68554
:10529800BA8606C6EFF0DFDB8C54DC540A04A2950C
:1052A800B24022445CC188C192444101828001110C
:1052B80022CC2A842E856C0006CE513FB245085870
:1052C800EF402035F240624405618280397122DC6A
:1052D80026DA5AD006DE4AD84ED652D456D25ECEF8
:1052E80062CCAA842E84328B99C683C7450193E782
:1052F8008700238AF500DC54231D64019C43D5E311
:10530800A28562548858F250D2544259B259225A4E
:10531800925AF24B624C5A86025B21616F405011DF
:105328009C5713193A003E9983470900F51793F7DC
:10533800F70F63EEFB02814A3DA0105493973A00A1
:10534800B29703C70700631F870183254900DC4321
:10535800639AF50003562900885836C68509EF3048
:105368003058B246850A83574402E3C8FAFC050A56
:10537800DC5403D74702E345EAFAE38309F8A28538
:1053880062548858F250D2544259225A925AF24BD7
:10539800624C36874E86DA86B259025B21616F40CD
:1053A800B00C014A8149854B114CD9B78357050088
:1053B8009DE3B72604203726042037250420411111
:1053C8009386C662130686139305E00A130585645F
:1053D80006C6EF400157FD172310F5008280011122
:1053E80026CA06CE22CC4AC883C705006906B684F9
:1053F8006399C7022E872A896C003A85EFF0AFE1DE
:10540800B2472A846318F500F2406244D244424904
:10541800056182804A85A28582942285EFF0EFDEBD
:10542800C5B7FDD38296CDB7B76601209386660AC5
:10543800130670066DB7B78601209386265A1306A1
:10544800700971BF011122CC4AC84EC606CE26CAC1
:10545800AE89B2853686B786012083446500032964
:10546800450123030500232A05009386E6D22A84F2
:10547800BD371C449DEB8355640191C98357440192
:1054880099E70858EF4020630858EF40C016835644
:10549800440103566401CE852285B3349000EFF0B1
:1054A800FFE223039400232A2401F2406244D244F9
:1054B8004249B24905618280011122CC2A842E8595
:1054C8006C0026CA06CEEFF0AF9E0347540085470E
:1054D800AA84631BF7005C54B245AA8603C7570128
:1054E80009462285EFF0DFD932471C5426860A0781
:1054F800BA978C43228593068004A937F240624408
:10550800D24405618280797122D42A842E856C0860
:1055180026D206D632C6EFF0AF99834654008547A7
:10552800AA8432476398F600F245AA861D4622856A
:10553800EFF01FD52685EFF04FCD72471C542A8611
:105548000A07BA978443228593060004A685EFF0DC
:105558007FEFB250225403D5E40092544561828013
:10556800AA875055034555000547AE866315E500E3
:1055780032856F30C050885BB7350420938505F4B9
:105588006F30C05601114AC806CE22CC26CA83C73E
:1055980005001389150099CF0D47AE842A846392BC
:1055A800E7026C002685EFF0AF902A89B2450858CB
:1055B800EF309074F24062444A85D2444249056112
:1055C80082800547639DE7001389250083C5150080
:1055D8009147E381F5FE0859EF30B06AE1BF114702
:1055E8006390E70283C7240083C515000859A20702
:1055F800DD8DEF30307C2685EFF02FC12A895DBF25
:105608009546639ED70283475500638AE700085989
:10561800B75504209385053CEF30D07BE9BF83C79D
:10562800250003C515006C00A2075D8DEFC06F81D2
:10563800B2450058EFC02045AA852285F1BF1387DF
:1056480067FF1377F70FBD4663ECE6006C0026850D
:10565800EFF0FFBFB2452A892285EFF07FF099BFAE
:1056680021476390E7026C002685EFE0FFFF324791
:105678001C502A890A07BA978C430858EF3090754E
:1056880015BF65476363F702B71604203726042061
:1056980085659386C6771306862F938565A4372577
:1056A800042013058564EF40C129740030004C00C4
:1056B8002685EFF00FBFAA84A2450858EF30F03EC8
:1056C800924713972700B72704209387476CBA9708
:1056D8009C4389EFB73604203726042085659386D6
:1056E800C6801306862F9385C5A455BF3246A68566
:1056F800228582971C4489C75C4499E3A2475CC40D
:1057080032494DBD411122C42A842E8506C626C2BF
:10571800AE84EFF08FAFAA852285EFF0BFE6228531
:105728002244B240A685924441016FF0BFE5411181
:1057380022C406C62A84EFF0FFE408582244B24087
:1057480041016F301074411122C406C62A84EFF05B
:105758007FE308582244B24041016F30307C011188
:1057680022CC06CE2A846396C500F24062440561C5
:105778008280228532C6EFF0FFE0AA853246E5B77F
:10578800411122C406C62A84D93F08582244B2408F
:10579800AD4541016F40402B797122D42A842E8572
:1057A80026D24AD006D64ECE2E89B284EFF0EFA587
:1057B800034705009307100C6303F702B72604207C
:1057C80037260420856537250420938686541306DA
:1057D800C6299385958E13058564EF408116EFF0F1
:1057E8002FA36C00EFE0DFEC034754008547AA893C
:1057F800631BF7005C54B245CA8603C75701268667
:105808002285EFF0FFA732471C5481460A07BA9752
:105818008C4301462285EFF07FAB4E85EFF0EF9E7B
:10582800AA852285EFF01FD699476396F400085899
:105838008145EF4080110858814601468545EF4073
:10584800204AB250225492540259F249456182804A
:10585800411122C406C626C24AC02A846398C500DC
:105868000859B945EF30F041894505A883C70500B7
:105878001307E00AAE84639AE7020859B945EF3086
:1058880050402685EFF00FA865F12685EFF04F9878
:10589800AA852285EFF01FCF8D4508582244B240D3
:1058A8009244024941016F40202C1307F00A639784
:1058B800E7042E853289EFF0AF95AA852285EFF0AF
:1058C8007FCC034705009307000B6303F702B73645
:1058D8000420372604208565372504209386C69C36
:1058E8001306C62D9385159B13058564EF40610546
:1058F800EFF00F92AA85E31EA9F8BDB7EFF09FC895
:10590800A5B7011122CC2A84085926CAAE84B94504
:1059180006CE32C6EF30F036228562443246F24077
:10592800A685D24405616FF0BFF2011106CE22CCE4
:1059380032C62A84EFF01FC5EFF08F8DAA85228525
:1059480062443246F24005616FF09FF0011122CCAB
:1059580026CA4AC806CEAA843689014491C532C6E9
:10596800EFF05FC232460544631B2601A2856244FC
:105978008858F240D244424905616F40C013B2854D
:105988002685EFF03FC02A860504F9BFB2862E8629
:1059980081456FF0BFFB011122CC26CA4AC84EC60A
:1059A80006CEAA843289B689EFF0DFBD2A8463194E
:1059B8002401F2406244D2444249B24905618280DE
:1059C800A2852685EFF01FBC2A848858CE85EF4033
:1059D800A007F1BF89466FF01FFC85466FF0BFFB3B
:1059E80081466FF05FFB411122C406C62A84EFF09E
:1059F8007FB908582244B240994541016F4040029E
:105A080001114AC80329050122CC26CA4EC652C430
:105A180006CE930719002A84AE84B289368A1CC937
:105A2800639D340108586244F240D244B249224A84
:105A3800CA85424905616F305015A6852285EFF069
:105A48007FB4AA84E38EA9FC08584A86D285EF3031
:105A5800905BF9B781466FF0BFFA85466FF05FFA41
:105A6800797126D2AE8422D4B2852A84268506D6B8
:105A78004AD052CC66C24ECE56CA5AC85EC662C416
:105A8800EFE05FF62A89A6852285EFF0BFAF8D4744
:105A9800AA8C014A63D72701032A040193071A0035
:105AA8001CC8B72A04208549054B930B9009130C91
:105AB800A009938A8A0D9387190063CB27058D4720
:105AC80063D5271104480858938714001CC8A68575
