:020000042001D9
:100000009711FF5F9381013897B201009382C2DCA0
:10001000739052301701FFDF1301C1FE9700FFDF1D
:10002000938040FE638300008290732540F18145F8
:1000300001460D209700FFDF9380C0FC6383000022
:100040008290970200009382C20073905230032383
:100050000000F5BF06849711FF5F9381A13217015D
:100060000060130121FA137101FF01E197E2010021
:10007000938242DF1703FF5F1303C3F8938341CCDE
:10008000638C6200635A730003A50200910223206F
:10009000A3001103E34A73FE97E20100938282DC1E
:1000A0001703FF5F130303F69703FF5F938383F543
:1000B000638C6200635A730003A50200910223203F
:1000C000A3001103E34A73FE138341CC9733FF5F10
:1000D000938343F263577300232003001103E34D1E
:1000E00073FE11C2029617B501001305C5D4EFA027
:1000F0007151EFA0B157F3271030370701001307F4
:100100008702F98F99C7F32700300967D98F739059
:100110000730054597D501009385C54917D60100DD
:1001200013068649B128EFA0114FA28082808280F9
:10018000411106C6EF60E049EF60D06CF5BFB727BC
:1001900000809387472323ACF1D02380070082801F
:1001A000B72700809387076123AA070623A60700C5
:1001B00023A4070023A0070023ACF1D82382070063
:1001C000828037150080930785B49C5B89C713052F
:1001D00085B46FA0D167828037150080930785B4FE
:1001E0008C5B130585B46FB041124111054506C6FD
:1001F000EF901006F165938505200545EF90300DD1
:1002000089450545EF90E07B37B50220FD55130584
:10021000853EEF00B02C37B50220FD551305053F94
:10022000EF00D02B37B50220FD551305853FEF00B9
:10023000F02A37B50220FD5513058540EF00102A3E
:1002400037B50220FD5513058541EF00302937B53C
:100250000220FD5513058542EF00502837B50220D6
:10026000FD5513058543EF00702737B50220FD5576
:100270001305C544EF009026B24037B50220FD5566
:100280001305054641016F0070250D712AD637B55B
:1002900002202ED413058547FD55232E1114232C3F
:1002A0008114232A91142328211523263115232470
:1002B00041152322511523206115232E7113232C60
:1002C0008113232A91132328A113EF0030212257F1
:1002D000B25637B602201306464893050010081898
:1002E000EFA0F014FD550818EF00501F1304803ED6
:1002F000EF00B02401E57D1491217DF8EF00F0239B
:100300006305050C37B50220FD551305C549EF00FF
:10031000F01C1304803EEF00B0226312050E7D1422
:10032000312975F8EF00D0214DC1EF0070212A8CE2
:10033000EF0010212A89EF00B020AA89EF00502099
:10034000AA8CEF00B0202A8DEF0050202A8AEF00FF
:10035000F01FAA8AEF00901F2A8BEF00D01EAA8BF5
:10036000EF00701E2A84EF00101EAA84EF00B01D5B
:100370001375F50FA180418093D88A0013580A01A4
:1003800093D68900135609012AC893F4F40F137405
:10039000F40F93DB8B01137BFB0F37B5022026C6CE
:1003A00022C45EC25AC093F8F80F1378F80F93571F
:1003B0008D0113F7FC0F93F6F60F1376F60F935596
:1003C0008C011305C54AEF5050608320C1150324EA
:1003D000811583244115032901158329C114032A9A
:1003E0008114832A4114032B0114832BC113032C82
:1003F0008113832C4113032D011335618280EF009B
:10040000F014E30E05F0EF001014E30A05F019BF35
:1004100037B50220FD55130585476F00300C6F007E
:1004200030124D7123261114232481142322911498
:1004300023202115232E3113232C4113EF50C06BA1
:100440000DE181448320C1140324811426850329EE
:100450000114832441148329C113032A8113716178
:100460008280EF5070432A8437B50220FD55130572
:10047000454FEF00B006EF50D041034745009307CA
:1004800030076312F708EF50D04137B602202A87B1
:10049000A28613064650930500100818EFA0207995
:1004A000FD550818EF009003EF50B040834705005A
:1004B000A5C7EF50703F2AC6EF50B03FB24637B6DF
:1004C00002202A87A28713064654930500100818B5
:1004D000EFA0E0750818EFA0901137B60220AA86A9
:1004E0001306C65AD1456808EFA06074FD55680828
:1004F000EF00C07E130450068944630B950A7D14F7
:1005000029D02D2CDDBFEF50D03937B602202A87F5
:10051000A2861306465241B7EF50103937B6022073
:10052000AA86228713068657930500100818EFA0A5
:1005300000704DB729457D14EFA0601409C4FD2A51
:100540002A89E359A0FE0145EF00007C2A84E34A92
:1005500009EEE30805EEEF50B0418144B549294A60
:100560008347440085CB8347040063933703834765
:100570001400639F470183472400639B370183472F
:1005800034006397470113054400EF30906DAA844F
:100590000504F9B737B60220CA861306065CD145B2
:1005A0006808EFA0C068FD556808EF00207359BDCA
:1005B000FD550818EF0080721304803E49B737B527
:1005C00002204111FD551305453606C622C4EF0031
:1005D000E07037B50220FD5513054538EF00007077
:1005E000EF0000762A84EF0000761345F5FFB3652F
:1005F00085002244B24093D6850013D6050137B555
:10060000022013F7F50F93F6F60F1376F60FE1813C
:100610001305053941016F00206737B50220FD55EC
:10062000130505346F00806B011106CE22CC2A849D
:100630003122680002C6EF00206D08C0F24062441B
:10064000324505618280797106D622D42A84EFA0D2
:10065000007A37B60220AA861306064ED1456800F6
:10066000EFA0E05CFD556800EF0040672285FD5576
:10067000EF00C066B25022544561828037B5022037
:10068000FD551305053C99AD37B50220FD55130501
:100690000535A9A551BF29712AC62E85232E111211
:1006A000232C8112232A9112232821132E84EFA0B8
:1006B0000074B717008003A607B8B2462A879305CF
:1006C0000010AA840818EFA080560818EFA0207226
:1006D0002A898D2537B6022033872401AA8613067E
:1006E000463DD1456808EFA08054FD556808FD23BC
:1006F000B1200818FD5541232285FD55C5238320CF
:10070000C11303248113832441130329011331618D
:10071000828001111547A94605469305F10005455C
:1007200006CEA3070100EF90F03CFD576354A000F4
:100730008347F100F2403E850561828039715ECECB
:1007400062CC66CA6AC8B7CC022022DC26DA4AD854
:100750004ED652D456D25AD06EC606DE014A553F06
:10076000014B814D814A8149814401440149938C67
:100770004C83938B0171138C0172138D81E8634458
:10078000054EC94763EC271D93172900E6979C4344
:100790008287B54763020A049386C1CC631BF500C8
:1007A0002388017223A00600014A814401440149C3
:1007B00015A098429307F00F014963CDE700938796
:1007C0000173130617003E972300A700B29790C24B
:1007D000238007003D3F65B7E30BF5FCA947E3081D
:1007E000F5FC9307B0026317F50083A4818205042A
:1007F0000949CDB79307E0036309F5469307300530
:100800006317F50083A4818005040549E1B79307C8
:10081000F0046315F50083A40182FDB7930750042B
:100820006315F50083A44183C5B79307700563176B
:10083000F50083A401830504114969BF93072006CD
:100840006315F50083A4C182C1B7054723A6E1CC97
:10085000938701732380A700A3800700054AB1B7DF
:1008600083A4C181B387840083C70700E38EA7F800
:1008700083A48182B387840083C70700E386A7F837
:1008800083A4C183B387840083C70700E38EA7F6E0
:1008900083A44182B387840083C70700E386A7F659
:1008A00083A44181B387840083C70700E39FA7EE39
:1008B00005040D4905B783A74181338787000347A6
:1008C00007006302A70283A70181338787000347DC
:1008D0000700630AA70083A7818133878700034746
:1008E00007006313A700BE840504A147E3D487EE85
:1008F00029BF83A40183B387840083C7070063955E
:10090000A70005049547DDB783A4C180B3878400A1
:1009100083C70700E387A7FE83A48183B38784008E
:1009200083C70700E393A7E8E9BFB387840083C7C1
:100930000700E39CA7E60504B387840083C707008C
:10094000E39A07E883A701826386970083A78180E3
:10095000639897002388017223A601CC054531A82E
:1009600083A741836386970083A7C182639697021A
:100970002388017223A601CC7D55F2506254D254D3
:100980004259B259225A925A025BF24B624CD24CF3
:10099000424DB24D2161828083A70183E38C97FA97
:1009A00083A7C18063979700238801CC23AE01CC35
:1009B00055B783A781836396970005472388E1CCC9
:1009C00051BFB717008083A747B8E38597F883A77F
:1009D000C181639097022388017223A601CCB717C7
:1009E00000802386072823AC01CC4D49EF70A0215D
:1009F000D5B383A78182639E97002388017223A6C3
:100A000001CCB71700802386072823AC01CC1549F9
:100A1000D1B383A7C183639D97002388017223A666
:100A200001CC23000D0023AA01CC814925495DB3E7
:100A300083A74182639997002388017223A601CC82
:100A40008149414941BB83A741816397970023AE08
:100A500001CC014B3D49BDBB83A701816395970044
:100A600023A001CEFDB783A78181E39097D423A271
:100A700001CEC5B7930705FD25476369F700A94770
:100A8000B389F902AA99938909FDA9B39307C00212
:100A9000E312F5D423A431CD19492DBB930705FDED
:100AA00025476369F700A947B38AFA02AA9A938A8D
:100AB0000AFD0DB39307C0021D49E30DF5D021498E
:100AC00011BB9307A003E317F5D0D5BF938681CD63
:100AD0009C421307F07F634FF7001387170098C2FB
:100AE000B71600809386C628B6972380A70036974E
:100AF00023000700FD1AE34F50CD8DB5930705FD88
:100B000025476369F700A947330BFB022A9B130BA8
:100B10000BFDC9B183A74181639097021387C1CDB3
:100B20001C43A20733EB67012320670193072002D0
:100B3000014BE311F5CA95B983A70181639597002D
:100B4000138701CEF1BF83A78181E39197FE1387BD
:100B500041CEF9B7930705FD2547E372F7F29307F6
:100B6000C002E319F5C62949B5B19307C002E313E2
:100B7000F5C6814D2D49B9B9930705FD2547636930
:100B8000F700A947B38DFD02AA9D938D0DFD99B184
:100B90009307C002E310F5C431492DB99307C00291
:100BA000E31AF5C2814A354935B1930705FD25475A
:100BB000E37BF7EE9307C002E31EF5C0394919B98C
:100BC00003A741CD9306F007938741CD63CBE600A1
:100BD000930617006A9794C32300A700EA96238020
:100BE0000600FD1AE34850BF1147E389EDD623A064
:100BF000070065BE930705FD2547E372F7E89307F5
:100C0000A003E319F5BC8D4763D33701814993975E
:100C10002900E29723A0070045496DBE930705FD13
:100C20002547636EF7001397290062971443A9477D
:100C3000B387D7023E95130505FD08C361BE930730
:100C4000C002E319F5B893972900DE9723A00700A7
:100C5000494949B6930705FD2547E361F7D0139746
:100C600029005E97E1B7528509BB094539B3814533
:100C700005456F9000582E86AA8505456344C0003F
:100C80006F8090466F80D046397122CC2ED232D4FC
:100C900036D62A865410930500101385017306CEAC
:100CA0003AD83EDA42DC46DE36C626CAEFC0300706
:100CB000938501730545EF80304313044006EFF040
:100CC000FFA7AA8411E515457D14EF90501B65F828
:100CD000F24062442685D24421618280411122C4BF
:100CE00006C626C2130440067937EFF03FA5AA8452
:100CF00011E515457D14EF90901865F8B240224437
:100D00002685924441018280938781CD19C1984301
:100D100018C13715008023A007001305C52882805D
:100D2000938741CD19C1984318C123A007001385AB
:100D300081E8828003A581CC828003C501CD8280B9
:100D400003A5C1CD828003A541CE828003A501CE3B
:100D500082808D4763E9A7009317250013850172F0
:100D60003E95084182800145828083A781CE094754
:100D70006391E70441113725008006C6130745BB80
:100D8000130650069306E002834707008DCF638564
:100D9000C7000507E39AD7FE130545BBEF90504BFC
:100DA000EF50213C0905719913652500B2404101BE
:100DB0008280054701456390E702372500801305CF
:100DC00045BB6F30006A130545BBEF90D048060560
:100DD00013651500E1BF8280411122C626C44AC2B4
:100DE0004EC00148FD15130EC0051303E006A94EC1
:100DF000130F2007B54F93024007A54313042006A5
:100E0000A14413096006B149B30705016353B8064D
:100E10000347060039CF630ED8042380E700930808
:100E200016006316C7050347160031C36302670245
:100E30006369E300630A8702630527032380E700F1
:100E400011A8630DE701E31B57FE2380770019A06B
:100E50002380D7011386180005087DB72380F7018A
:100E6000D5BF23803701FDB723809700E5B7B2884F
:100E7000D5B7238007003244A24412498249410178
:100E80008280011126CA83A541CF06CE22CC4AC852
:100E90004EC683C705000145B5C7938441CF0547BA
:100EA00080408347040091CB938727FD93F7F70F8A
:100EB0006375F700050480C0E5B70D8C9307000447
:100EC00063D48700130400043729008022861305A9
:100ED00049C3EF909078930949C34E94130549C3D1
:100EE00023000400EF903037984023A8A1CE834719
:100EF00007000545938727FD93F7F70F6364F50017
:100F0000050798C0F2406244D2444249B2490561A3
:100F10008280411122C4138481CF1C4006C613F77E
:100F2000170001CB9387C1CF9843050798C30145AC
:100F300019A813F7270005CB138701CF144391EEAF
:100F4000893711E50545B2402244410182801C40A9
:100F5000ED9B93E727001CC0D9BFFD1693E7170050
:100F600014C31CC0C1B7313F71DD1C40DDB793878E
:100F700081CF98439376170099CA1386C1CF144244
:100F80000145FD1614C281EA799B98C3828003A5AE
:100F900001CF3325A0008280411122C4138481CF68
:100FA0001C4006C613F7170001CB9387C1CF9843A7
:100FB000050798C3014519A813F7270005CB138728
:100FC00001CF144391EE753D11E50545B240224431
:100FD000410182801C40F59B93E747001CC0D9BFAC
:100FE000FD1693E7170014C31CC0C1B7593D71DD4E
:100FF0001C40DDB7938781CF98439376170089CA49
:101000001386C1CF1442FD1614C299E2799B98C38E
:1010100001458280411126C24AC037290080AE8630
:101020002A8693050008130549BB938481CF22C407
:1010300006C65D3380409377140089CF83A7C1CF64
:10104000014599E3799880C0B24022449244024914
:10105000410182809377240091CF938701CF9843F9
:1010600011E7054723A4E1CE0545F9BF7D1798C3D5
:101070000145D9BF93774400EDD7B725008093850C
:1010800045C3130549BBEF90904301E523A004003D
:1010900065BF1364140080C0E1BF411126C24AC07D
:1010A00037290080AE862A8693050008130549BBC0
:1010B000938481CF22C406C6053380409377140001
:1010C00089CF83A7C1CF014599E3799880C0B24009
:1010D000224492440249410182809377240091CFB7
:1010E000938701CF984311E7054723A4E1CE054537
:1010F000F9BF7D1798C30145D9BF93774400EDD759
:10110000B7250080938545C3130549BBEF90303B5D
:1011100001E523A0040065BF1364140080C0E1BF93
:10112000411126C24AC037290080AE862A8693051F
:101130000008130549BB938481CF22C406C66939D0
:1011400080409377140089CF83A7C1CF014599E3ED
:10115000799880C0B2402244924402494101828081
:101160009377240091CF938701CF984311E70947E4
:1011700023A4E1CE0545F9BF7D1798C30145D9BF2A
:1011800093774400EDD7B7250080938545C31305B9
:1011900049BBEF90D03201E523A0040065BF136482
:1011A000140080C0E1BF797122D44AD04ECE23AA68
:1011B000B1CE52CC56CA5AC85EC623A0A1D023A233
:1011C000A1D023A601CE06D626D223A401CE138415
:1011D00001D0138941D09389C1CE930A2002054AD8
:1011E000130BF005930BC00508409307B007834429
:1011F0000500639CF4002320A90023A04901693B5A
:1012000071E11C4085071CC0C5B79307D0076394E4
:10121000F400CD33F5B79307B0056398F4002320AD
:10122000A90023A04901F531E1BF9307D0056394DC
:10123000F400353BF1B7639C5403050508C00C402E
:1012400083C7050091CF638D57016397770183C7EB
:10125000150099C385050CC01C4085071CC0C5B787
:10126000898D2320A90023A0B9006D3351BF938736
:1012700004FD93F7F70F2547637AF7009307D00231
:101280006386F4009307E002639FF404A546938706
:1012900004FD93F7F70F63F8F600938734FD93F797
:1012A000F70F6369FA001C401387170018C083C446
:1012B0001700F1FC0C402320A900898D23A0B90060
:1012C00085352DC9EFF0FFBBB250225413451500F0
:1012D00092540259F249624AD24A424BB24B1375B8
:1012E000F50F4561828093F7F4FD9387F7FB93F741
:1012F000F70F65476374F700639C6403E54693F753
:10130000F4FD9387F7FB93F7F70F63F4F600639907
:1013100064011C401387170018C083C41700E5F050
:101320000C402320A900898D23A0B900BD3351BFF3
:10133000050508C0E39A04EA71B7937635000947BA
:10134000AA876394E60071998280137715001305CC
:10135000000011CB411113D5174006C6EF403136BE
:10136000B2404101828082809C4113F7370005EF33
:10137000984395463D8B6318D702D843937737003F
:101380009DE31C43994613F6F700631ED600918334
:10139000914663FAF6005C4BB7060002F916F58F2A
:1013A00093E717005CCB7D5582809C4113F7370093
:1013B00035EB984395463D8B6316D706011126CA37
:1013C000C44306CE22CC4AC893F73400A9E79C4018
:1013D000194793F6F7006390E60491831147637C05
:1013E000F702C048B70700FFC84005845D8C93171B
:1013F000140093E71700DCC889372A898844353FF1
:10140000EF40B1202AC64A85EF4031203246AA85F6
:101410002285EF20A02FF2406244D24442497D55FC
:10142000056182807D558280411106C6EF1090458E
:10143000B2407D554101828088419377150091CB60
:101440004111058506C6EF101058B2407D55410187
:1014500082807D558280411106C6EF10303DB2403A
:1014600006051365150041018280884193771500B8
:1014700091CB4111058506C6EF10F03CB2407D5579
:10148000410182807D558280411106C6EF10503D9A
:10149000B2400605136515004101828079714AD07A
:1014A0002A8941851375F50F06D622D426D237C472
:1014B00002204ECE52CC5AC85EC6368BB28B56CA6C
:1014C0002E8AEF10F1630326049783264497EF00DA
:1014D000113FEF401149AA89135589401375F50F43
:1014E000EF1011620326049783264497EF00313DE5
:1014F000EF403147AA841375F90FEF10716003268E
:101500000497832644972684EF00713BEF40714592
:101510002A89A6854E85EF40C1276353A0004E84DB
:10152000CA852285EF40E1266343A0004A84A68550
:101530004E85EF40412ECE8A63430500A68ACA85B8
:101540005685EF40412D63430500CA8A23208B0056
:10155000D6852285EF4061562A8B930500002285AF
:10156000EF40C11D1DC9A2855A85EF30517823A0D7
:10157000AB00D6852285EF40611C1DE1930700007A
:101580002320FA00B250225492540259F249624A7E
:10159000D24A424BB24B4561828013050000C1BF65
:1015A000CE852285EF408119B7CA022029E1CA857C
:1015B0002685EF408150DA85EF307173CA852A8421
:1015C0002685EF404125930500006354050083A55F
:1015D0004A962285EF30D1402320AA0003250A0035
:1015E00083A54A96EF30B1702320AA0061BFA6857B
:1015F0002285EF40A11409EDCE854A85EF40E14BED
:10160000DA85EF30D16EB7C7022083A58796D9B7A8
:10161000CA852285EF40811271F1A6854E85EF4083
:10162000C149DA85EF30B16CB7C7022083A5C796F0
:1016300055B77971B7C7022062C42E8C83A547962F
:1016400006D622D426D2328456CA5AC85EC666C28C
:101650004AD04ECE52CCEF404124AA8AEF40E17AE4
:10166000AA84EF40D105AA855685EF40014537CBC6
:101670000220AA8C0325CB95E285EF400144A28588
:10168000EF40A121E285AA8A6685EF400121AA8563
:101690000325CB95EF406142A285EF400120AA8B44
:1016A0000325CB95E685EF404141E285EF40E11E01
:1016B000AA850325CB95EF404140A285EF40E11D6F
:1016C0009947B3E7F40215476361F70237C7022071
:1016D0008A0713074794BA979C4382875689AA8939
:1016E000228A21A05689A2895E8AB7C4022083A5D6
:1016F00004965285EF40611AEF40217183A504964C
:10170000131405013705FF00698C4E85EF40E11881
:10171000EF40A16FC16783A50496FD1722057D8D5B
:10172000498C4A85EF406117EF40216E1375F50F24
:10173000418DB250225492540259F249624AD24A1F
:10174000424BB24B224C924C456182802A89A2893D
:10175000568A61BF2289DE89E5BF2289D6892A8A15
:1017600069B75E89D689ADBF9C4113F71700630E38
:10177000071E39714AD813D517402E8974084C08B2
:10178000300822DC26DA06DE4ED652D456D2B7C452
:1017900002202933724483A5C4952285EF30117A43
:1017A000631C050E624537C40220EF40E17CB7C7D9
:1017B00002202A86AE8603A5879883A5C798EF10D6
:1017C00001450326049983264499EF00517F03269F
:1017D000049983264499EF00612FEF4091182A84E1
:1017E0000325490037C90220EFF03FB50326899948
:1017F0008326C99932C436C6EF4001782246B246E4
:10180000EF50E17EEF40F11593050000AA89EF400B
:101810008100635A0500B7C7022083A5C7974E858C
:10182000EF30111CAA892285EF4001752A8AAE8A01
:101830004E8593050000EF3071703DE503268999D0
:101840008326C9995285D685EF007107B7C7022054
:1018500083A6479703A60797EF007176EF407110B4
:10186000EF40A15A931705013707FF00C166F98FB2
:10187000FD1613178500758FD98F1375F50F5D8DC4
:10188000F25062540605D2544259B259225A925A21
:101890001365150021618280B7C7022083A5879751
:1018A0002285EF30917F25BFB7C7022083A5079817
:1018B0002285EF30116E635DA00003258999832591
:1018C000C9995286D686EF108134EF4091092A8457
:1018D0002285EF40616AB7C70220AE8A83A5C79709
:1018E0002A8A4E85EF30B140B7C7022083A587977B
:1018F0002A892285EF303172B7C9022037C402200D
:101900006348A00203A6099A83A6499A5285D68500
:10191000EF00C11B0326849A8326C49AEF00217A24
:10192000EF40310483A5C4952A864A85193389BFBF
:10193000B7C7022003A5079B83A5479B5286D6867F
:10194000EF10E12C03A6099A83A6499A83A4C495B3
:10195000EF00C1170326849A8326C49AEF002176EC
:10196000EF4031002686AA85C9B7014582809C4197
:1019700013F717006309072039714AD813D51740A8
:101980002E8974084C08300822DC26DA06DE4ED692
:1019900052D45AD25ED0B7C40220EFF03FB07244A6
:1019A00083A5C4952285EF307159631605106245F1
:1019B00037C40220EF40415CB7C702202A86AE86BA
:1019C00003A5879883A5C798EF106124032604997F
:1019D00083264499EF00B15E032604998326449937
:1019E000EF00C10EEF40E1772A8403254900B7C913
:1019F000022037C90220EFF05F9403A6899983A6DD
:101A0000C9992A8A8325C997524532C436C6EF3010
:101A1000D168D285EF30C17CEF4001562246B246F4
:101A2000EF50E15CEF40E173930500002A8AEF304C
:101A3000915E635805008325C9975285EF30417A3E
:101A40002A8A2285EF4041532A8BAE8B528593051B
:101A50000000EF30B14E25E903A6899983A6C99904
:101A60005A85DE85EF00A165B7C7022083A6479798
:101A700003A60797EF00B154EF40A16EEF40E138A5
:101A8000931705013707FF00C166F98FFD1613177D
:101A90008500758FD98F1375F50F5D8DF2506254E7
:101AA0000605D2544259B259225A125B825B136521
:101AB000150021618280B7C7022083A58797228500
:101AC000EF30B15D15B7B7C7022083A5079822850F
:101AD000EF30314C635DA00003A5899983A5C999B6
:101AE0005A86DE86EF10A112EF40A1672A84228574
:101AF000EF408148AE8B8325C9972A8B5285EF3002
:101B0000111FB7C7022083A587972A892285EF3046
:101B10009150B7C9022037C402206349A00203A62E
:101B2000099A83A6499A5A85DE85EFF0307A032612
:101B3000849A8326C49AEF008158EF40816283A57E
:101B4000C4952A864A85EFF0DFAE89BFB7C7022069
:101B500003A5079B83A5479B5A86DE86EF10210BC2
:101B600003A6099A83A6499A83A4C495EFF0107638
:101B70000326849A8326C49AEF006154EF40615E85
:101B80002686AA85C1B7014582809C4113F71700BC
:101B90006305071A397113D517407408300822DC21
:101BA0002E844C0806DE26DA4AD84ED652D456D2B7
:101BB000B7C40220EFF09F8E83A5C497524537C962
:101BC0000220EF30914DAA894840EFF00FF703262D
:101BD00089998326C99932C436C6EF40E139224635
:101BE000B246EF50C140EF40C157930500002A8430
:101BF000EF3071426358050083A5C4972285EF300A
:101C0000215E2A842285EF4021372A8AAE8A4E85BA
:101C100093050000EF30913239ED03268999832630
:101C2000C9995285D685EF008149B7C7022083A69E
:101C3000479703A60797EF009138EF408152EF4096
:101C4000C11C931705013707FF00C166F98FFD1608
:101C500013178500758FD98F1375F50F5D8DF250B1
:101C600062540605D2544259B259225A925A136507
:101C7000150021618280B7C7022083A507982285BD
:101C8000EF303131635DA000032589998325C9991F
:101C90005286D686EF00B177EF40A14C2A84228588
:101CA000EF40812DAE8A83A5C4972A8A4E85EF30F6
:101CB0001104B7C7022083A58797AA842285EF3035
:101CC000913537C9022037C40220B7C902206349C1
:101CD000A0020326099A8326499A5285D685EFF0F9
:101CE000F05E0326849A8326C49AEF00413DEF40BC
:101CF000414783A5C9952A862685EFF09F9385B72E
:101D0000B7C7022003A5079B83A5479B5286D686AB
:101D1000EF00F16F0326099A8326499A83A9C99592
:101D2000EFF0D05A0326849A8326C49AEF00213913
:101D3000EF4021434E86AA85C1B7014582809C4170
:101D400013F7170063080720397122DC13D51740F9
:101D5000740830082E844C0806DE26DA4AD84ED69F
:101D60005AD052D456D237C90220EFF02FF3832530
:101D7000C9975245B7C40220EF303132F24983A5EA
:101D8000C4952A8B4E85EF30711B631D050E62458D
:101D9000B7C90220EF40411EB7C702202A86AE868F
:101DA00003A5879883A5C798EF00716603A60999D4
:101DB00083A64999EF00B12003A6099983A6499902
:101DC000EFF0D050EF40E1392AC64840B7C90220B1
:101DD000EFF0AFD603A6899983A6C999B24532C060
:101DE00036C2EF30E13FEF40211902469246EF50F4
:101DF0000120EF400137930500002A84EF30B12124
:101E0000635805008325C9972285EF30613D2A84F8
:101E10002285EF4061162A8AAE8A5A859305000012
:101E2000EF30D11125E903A6899983A6C999528576
:101E3000D685EF00C128B7C7022083A6479703A61F
:101E40000797EF00D117EF40C131EF30117C9317A6
:101E500005013707FF00C166F98FFD1613178500CE
:101E6000758FD98F1375F50F5D8DF250625406058D
:101E7000D2544259B259225A925A025B1365150044
:101E800021618280B7C7022083A587974E85EF30F6
:101E9000D1201DBFB7C7022083A507982285EF3048
:101EA000510F635DA00003A5899983A5C999528646
:101EB000D686EF00D155EF40C12A2A842285EF4013
:101EC000A10BAE8A8325C9972A8A5A85EF302162F1
:101ED000B7C7022083A587972A892285EF30B113DF
:101EE000B7C9022037C402206349A00203A6099A99
:101EF00083A6499A5285D685EFF0503D0326849AF1
:101F00008326C49AEF00A11BEF40A12583A5C495A9
:101F10002A864A85EFF0EFF189BFB7C7022003A5F3
:101F2000079B83A5479B5286D686EF00514E03A69A
:101F3000099A83A6499A83A4C495EFF03039032601
:101F4000849A8326C49AEF008117EF408121268668
:101F5000AA85C1B701458280797122D426D24AD0A0
:101F60004ECE52CC56CA5AC85EC606D6AA842E8910
:101F70000144894937CA0220B7CA022037CB022060
:101F8000914B635B940493172400CA978C4313F717
:101F9000350019EB9C41BD8B639877011385450093
:101FA000EF40A01B0504F1BF93F7150099C7858585
:101FB0001305CB2BEF40A01DF5B71305CA9BE31B00
:101FC00037FF13F5C5FFEF30317B2A86AE861385C8
:101FD0008A9BEF40C01BF9B7EF40A018B2502254C3
:101FE00092540259F249624AD24A424BB24B7D5551
:101FF00045618280054582803725008041111306A6
:1020000000528145130545C706C6EF803031B24006
:1020100023A601D041018280B7270080938647C75D
:10202000138747C713860652938747C70C436388B5
:10203000A5041307470AE31BC7FE014721468C424C
:1020400095E99306400A3307D702BA97154798CB0C
:10205000138781D0144388C323A20700850623A4D5
:10206000070023A6070023AC0700239A070014C328
:102070003E85828005079386460AE312C7FC8147A6
:10208000C5BFB7270080938747C7138707526317D9
:10209000F502938781D0984323200500232C050067
:1020A0007D1723220500232405002326050023286D
:1020B0000500231A050098C3054582809387470AC7
:1020C000E397E7FC0145828039714ED69387C1D0F2
:1020D0004AD803A90700214726DA05093369E9022E
:1020E000B724008052D456D25AD05ECE62CC66CA93
:1020F00006DE22DC6AC86EC6938444C79389C1D0C9
:10210000130A400A854A094B8D4B138C045223A0B5
:10211000270103AD090033044D0326941C4095E7C5
:1021200083A7090021478507B3E7E70223A0F90049
:10213000E311F9FE9307400AB307FD02BE949848E5
:1021400095476304F70201440DA01848631F570325
:10215000832D8401EF80204B03A641E78146EFF0F9
:10216000E02BE3FFADFA95471CC82285F25062547C
:10217000D2544259B259225A925A025BF24B624CE3
:10218000D24C424DB24D2161828063176703834771
:1021900044012687144389C683465701E382F6F833
:1021A0001307470AE31887FF9307400AB307FD02A6
:1021B000BE9495479CC855BF63167701EF108017F2
:1021C00025F155B79547E31DF7F445B703A5C1D0F1
:1021D0009307400AB387A70237250080130545C738
:1021E0003E9582806FF05FE1372500801306000284
:1021F0008145130545196F80701283C711D199C3AA
:10220000A389A1D082808280828003C531D182805F
:1022100003A501848280B7250080411113060002C6
:102220009385451906C6EF801004B24041018280B3
:1022300001114AC803C911D106CE22CC26CA4EC606
:102240006307090483C521D1138421D1A9C983C798
:1022500001D1B7290080AA848D8F8D8BB72500808E
:1022600096079385451B13060002BE9513854919F1
:10227000EF80607F81C81306000293854919268587
:10228000EF80607E83470400FD172300F400F240D6
:1022900062444A85D2444249B2490561828001497B
:1022A000FDB7828073584030B7470110B85313759B
:1022B000F50F799BB8D3984F719B1367270098CF80
:1022C000B8472384A704374701107C47E3CF07FEB4
:1022D000AE8711473745011063C205027D1719CF3C
:1022E0008328850493D8074193F8F80F2304150534
:1022F000A2078328C504E3CE08FEF9BF8147014544
:10230000B745011093F6F60F63DEC700B845238486
:10231000D504F845E34F07FE22051377F70F598DD3
:102320008507DDB7374701101C4F1546F19B1CCFC1
:10233000B7470110984F719B1367270098CFB84794
:102340002384C704F847E34F07FEB84723840704F4
:10235000F847E34F07FE944F058BF19A94CF79FB32
:10236000B85313671700B8D373104830828037070B
:10237000000823AAE1D03727012081471307472A05
:1023800037050008930600403386E70083450600C2
:102390003306F50085072300B600E397D7FE828059
:1023A0008280011122CC4AC82A844EC652C456C229
:1023B00006CE26CAAE8A653F7D75698CB70900E0F6
:1023C000056963745403938441D19C40814601465E
:1023D000FD55194582979C40B3053401814601465D
:1023E0001305700D82974A94E9BFF2406244D244CB
:1023F0004249B249224A924A05618280797122D4C7
:1024000026D24ECEAA8452CC06D64AD02EC6EFF0A3
:102410001FF6370500E00144AA949149138941D180
:102420008327090081460146FD55194582977C00A6
:10243000338787008306070083270900B38584005C
:102440000546094505048297E31A34FDB25022542B
:1024500092540259F249624A45618280011126CAAA
:10246000AE8422CC8A042A844AC852C456C206CEFC
:102470004EC63289A294EFF09FEF370A00E06377EF
:102480009402938941D183A7090081460146FD55F5
:10249000194582978306090083A70900B305440103
:1024A00005460945829705040509D1BFF2406244FB
:1024B000D2444249B249224A924A0561828041117E
:1024C000DC4122C4804126C206C613F73700894684
:1024D000AE84058413F5C7FF6309D70093F6170090
:1024E00095C213D51740EF30911D9044AA851375FE
:1024F000F40F0586EF30307FB240224492447D5580
:1025000041018280130500006DF3984391463D8B95
:10251000E31DD7FC13854700EF808053EF307144F3
:10252000E9B7DC41884190458587058541111375E0
:10253000F50F058693F5F70F06C6EF30F06EB24043
:102540007D5541018280411122C4130600022A8474
:102550001305050206C6EF805010B24023000404A4
:10256000224441018280C5B7357132C537C6022089
:10257000A2DC130606BE2A842EC336C79305400686
:1025800093060502680086DE3ECBA6DA3AC942CD44
:1025900046CFEF80C069FD556800EFE02FF437C5E6
:1025A0000220FD55130545BFEFE04FF3B7C40220ED
:1025B000FD55138544C0EFE06FF237C50220FD558D
:1025C000130585C1EFE08FF1138544C0FD55EFE0A1
:1025D000EFF085472322040023240400232604006F
:1025E00023280400232A0400232C0400232E0400A3
:1025F0002300F400F6506654D6540D618280828028
:1026000003450500828023000600939785012380FF
:102610000600E18763C80702B7C70220938707C592
:10262000AE9783C707002300F600E207E18763DB6C
:10263000070089472380F6008347060093F7F707D2
:102640002300F600828083470500A5CB13074500D1
:102650009306C501BA8703A807006300B80691076F
:10266000E39BD7FE814799460328070063120804BD
:1026700075718A0706C7AA97CCC31C4DB28637C6A8
:1026800002203EC25C491306C6C2930540063EC006
:10269000832805010328C5001C4558416808EF80C0
:1026A00000596808FD55EFE06FE3BA404961828048
:1026B00085071107E39AD7FA828082808347050055
:1026C000B9CF1307450081479946032807006313D4
:1026D000B80475718A0706C7AA9723A207001C4D84
:1026E000B28637C602203EC25C491306C6C29305B5
:1026F00040063EC0832805010328C5001C455841FB
:102700006808EF80C0526808FD55EFE02FDDBA4041
:102710004961828085071107E399D7FA8280828018
:1027200083470500A9C7011122CC26CA06CE2A84F8
:10273000AE8483C504009DC59306F1001306E10035
:102740002285EFF05FEC0346F1008345E10022852E
:102750008504EFF05FEF8345E10001462285EFF04D
:10276000FFF5C1BFF2406244D2440561828082809D
:10277000034705001DC3411101469305800222C491
:1027800006C62A84EFF03FEC22852244B24001467F
:102790009305800241016FF07FF28280834705003C
:1027A00095CB8DC9544DB3F7B6008DE75D7186C6E4
:1027B000CD8E37C6022054CD130686BC9305200368
:1027C0006800EF80C0466800FD55EFE02FD1B640AD
:1027D0006161828082808347050085CF9DC9544D09
:1027E000B3F7B6009DC75D7193C5F5FF86C6ED8E44
:1027F00037C6022054CD130686BC9305200368001B
:10280000EF80E0426800FD55EFE04FCDB6406161DA
:1028100082808280834705009DCBB367D600CD8F31
:102820009DC75D7186C63688544DB28737C6022073
:102830002E87130606CD930520036800EF80203F06
:102840006800FD55EFE08FC9B640616182808280EB
:1028500083A7C1D1797106D622D426D24AD04ECED2
:102860000947638FE7160D476386E722054763979D
:10287000E7065400194685457545EF30F055631A53
:102880000514834761000347710083468100A20756
:10289000D98F03479100A20603465100D98E034702
:1028A0004100C207C1872207518F42071306000467
:1028B00041873347C702C206C186B3C7C702330781
:1028C000E0400A072396E1D2B307F0408A07239736
:1028D000F1D2B3C7C6028A072398F1D283A701D4E5
:1028E0000547638BE72809476389E7348397C1D29B
:1028F000130700F09389C1D263D6E73803C481D3AC
:10290000631B04388397E1D2130700F01389E1D2E7
:1029100063DDE73883C791D36391073A839701D387
:10292000130700F0938401D363D3E73A83C7A1D39D
:102930006397073AEF70304D03A641E78146EFE019
:10294000F02D9387C1D3138781D20DC4938601D212
:10295000904205486340C802050690C289488C43EE
:10296000631A160113E6150023A0060090C3238204
:1029700001D508C314439386461F63F8A600944309
:1029800008C3F99A94C323A001D2984383960900FF
:10299000130600E71377F7F963DDC6341367070200
:1029A00098C3984383160900130600191377F7E7B5
:1029B0006358D6341367070898C398438396040076
:1029C000130600E71D9B63D4C6341367870098C3C2
:1029D0000145B250225492540259F2494561828015
:1029E000540019469305800A13052003EF30D03EAA
:1029F0006DF18347510003474100A207D98F9384AB
:102A0000E1D22390F4008347710003476100A207DD
:102A1000D98F1389C1D22310F9008347910003474E
:102A20008100A207D98F138401D3B307F04054006B
:102A30000946B145130520032310F400EF30D039C7
:102A400049F9834751000347410093060004A20758
:102A5000D98FC20713070010C187B3C7E702E50784
:102A60002392F1D28397040003170900B3C7D7025A
:102A7000B307F0408A072390F4008317040033471C
:102A8000D702B3C7D7020A072310E9008A07231029
:102A9000F400A9B55400314685457945EF30D0336F
:102AA0000DF983474100034751008346A100A20767
:102AB000D98F2396F1D28347610003477100A206A4
:102AC000A207D98F2397F1D2834781000347910052
:102AD0000346F100A207D98F2398F1D28347B100B2
:102AE0000347C100DD8EC206C1862399D1D2834738
:102AF000D10022075D8F42074187239AE1D28347A5
:102B0000E100A207D18FC207C187239BF1D203C680
:102B100061D2E30506DC1386A1848315060063D425
:102B2000B6002310D6001386C184831506006354B3
:102B3000B7002310E6001386E1848315060063D4F2
:102B4000B7002310F600138641848315060063D472
:102B5000D5002310D6009386618403960600635443
:102B6000E6002390E6001387818483160700E3D7ED
:102B7000F6D62310F7009DB3540019468545394514
:102B8000EF309025E31705E40347410083475100E8
:102B90008346610022075D8F3307E040420741878B
:102BA000239AE1D283477100A20603469100DD8E8D
:102BB000B306D040C206C1862399D1D28347810093
:102BC000A207D18FB307F040C207C187239BF1D280
:102BD00003C661D2E30C06D01386A18483150600D8
:102BE00063D4B6002310D6001386C1848315060073
:102BF0006354B7002310E6001386E18483150600B2
:102C000063D4B7002310F6001386418483150600B1
:102C100063D4D5002310D600938661840396060002
:102C20006354E6002390E60013878184831607002F
:102C3000E3DEF6CA2310F70055B954001946930590
:102C4000800E1305C003EF303019E31405D8834616
:102C500051008347410003477100A206DD8EC20682
:102C6000C1862399D1D283476100220703468100A0
:102C70005D8F42074187239AE1D283479100A207E3
:102C8000D18F99B7130700100144E35DF7C683C7DE
:102C900081D3E39907C6938781D303C7070005440F
:102CA000134717002380E700B1B913070010E3575B
:102CB000F7C683C791D3E39307C6938791D303C71E
:102CC00007000544134717002380E70081B9130765
:102CD0000010E351F7C683C7A1D3E39D07C49387D0
:102CE000A1D303C707000544134717002380E7005B
:102CF00091B113060019E355D6CA136707044DB105
:102D0000130600E7E3DAC6CA1367071075B11306A6
:102D10000019E35ED6CA1367070155B9039541D27E
:102D200082800395C1D282800395E1D2828003958F
:102D300001D3828003A5C1D3828003954184839708
:102D4000A1843E9589473345F50283D721D3338546
:102D5000A740420541858280039561848397C184A1
:102D60003E9589473345F50283D741D33385A74044
:102D7000420541858280039581848397E1843E9555
:102D800089473345F50283D761D33385A740420590
:102D9000418582808967938707712397F184239601
:102DA000F1842395F184F9779387078F2394F18435
:102DB0002393F1842392F1848280411106C622C4B8
:102DC00026C24AC0EFF01FFD05470146B5457545CF
:102DD0002383E1D2EF30207F9307A0059384C1D1F4
:102DE000138401D46312F508054901469D45394510
:102DF00023A02401EF30207D930740FC6315F500EC
:102E00002320240119A0232004009C400947638E3D
:102E1000E70C0D47638DE7080547639AE702014613
:102E20009305A0027545EF30207F41469305B0021F
:102E30007545EF30607E0146B9457545EF30C07D80
:102E4000130610039305A0027545EF30E07C1C408B
:102E500005476382E70C0947638FE70EB2402244BF
:102E600092440249410182800146BD451305200379
:102E7000EF30607593073003631FF5000949014681
:102E80009305F0041305C00323A02401EF30A073C1
:102E900093070004A5B70146B5457945EF30A07208
:102EA000930770FCE313F5F68D479CC01CC00146E8
:102EB0009305A0027945EF3020767D469305B00555
:102EC0007945EF306075130600029305C00579451A
:102ED000EF3080740146B9457945EF30E073130651
:102EE00090029305A00279458DB7130600FCFD45BD
:102EF00013052003EF30407213067004930500029F
:102F000013052003EF304071130600F893053002DB
:102F1000130520031DBF0146C1453945EF30C06F81
:102F2000A1453945EF3000690D8909C52945EF7084
:102F30000075FDB7130600FAC5453945EF30C06D81
:102F400013061002C14539452244B2409244024959
:102F500041016F30606C130600F9930500061305FC
:102F6000C003EF30606B0146930510061305C003E4
:102F7000EF30806A0146930520061305C003EF3049
:102F8000A0690146930530061305C00375BF0547C8
:102F90002383E1D28280238301D2828093050009BA
:102FA0006F708015938681D483C7160003C6060010
:102FB00083C6260037250080D18FD58F8DCB411158
:102FC0009307452722C426C206C63A84938407097C
:102FD0003E850D46938581D4EF70F0289307350028
:102FE000E39897FEB2402244924441018280130646
:102FF00000098145130545276F7050329D47338581
:10300000A7408E052E958D453305B502B725008066
:1030100093854527AA9583C7150003C50500C207F8
:103020002205C98F03C525005D8D8280138781D459
:103030008347170003450700C2072205C98F0345D0
:1030400027005D8D82809387018513570501A3803A
:10305000E700135785002380E7002381A7008280C3
:10306000138701858347170003450700C207220520
:10307000C98F034527005D8D8280372500801305A9
:1030800045308280372500801306000981451305ED
:1030900045306F70B0283725008013054539828090
:1030A00037250080130600098145130545396F70E7
:1030B000F026411106C6EFF0FFEEEFF07FFEEFF0D5
:1030C0007FFCB240372500801305452741016FF092
:1030D000FFEC938781D42390070023810700938717
:1030E0000185130700F02390E700238107006FF0AC
:1030F0005FFC0111B727008022CC26CA938747279F
:10310000B7240080372400804AC84EC606CE938478
:10311000443013044439138907090D46938581D43B
:103120003E85EF70501483C5040003C6140083C6A7
:103130002400AA8733E7C500558F19C72300B500BF
:10314000A300C5002301D5008345040003461400F5
:103150008346240033E7C500558F19C72380B70085
:10316000A380C7002381D7008D078D040D04E316CB
:10317000F9FAF2406244D2444249B2490561828080
:103180009D473385A7408E052E958D453305B502A5
:10319000B725008041119385453006C693578600B8
:1031A000AA952380F50093570601A380F50023819B
:1031B000C500EFF01FF4B240372500801305452706
:1031C00041016FF0BFDD411106C6938781D41357CB
:1031D0000501A380E700135785002381A700238002
:1031E000E700EFF01FF1B2403725008013054527B7
:1031F00041016FF0BFDA411106C629C9938781D416
:1032000083C8070003C3170003CE270037270080B9
:10321000130747301308050CA14EBA87AA8501464B
:1032200094419DCE13DF8600A38AE70113DF0601D8
:10323000238BE701A38BD70005069105F517E31152
:10324000D6FF130505026107E31905FDEFF07FEADC
:10325000B240372500801305452741016FF01FD488
:10326000A38A1701238B6700A38BC701F1B7411114
:10327000A38501D422C406C626C2238601D41384A2
:1032800051D401ED85472300F40021472383E1D485
:10329000B240224492444101828003470500B7278F
:1032A000008011E72382074223000400D5B783463C
:1032B0001500938461D485EE938747422380E7000D
:1032C000A380070085472300F4008347050037C724
:1032D00002201307879C8A07BA979C4313D7C7011C
:1032E000A147998F858385072380F40055B7AA8568
:1032F0001306400613854742EF703036854723009A
:10330000F400A147D5B7372700808147130747420C
:103310001306300693861700BA9783C5070099E510
:103320002380A7003697230007008280B687E393A7
:10333000C6FECDBFB727008083C74742014599C36A
:1033400003C551D4828079714AD006D622D426D2C0
:103350004ECE52CC56CA5AC85EC662C42A89EFF015
:103360007FFD3DE9B7290080930400020D4B93894E
:1033700049309D4BE15A33846403094A4E94937754
:103380001900A1C70D469385018513056400EF70F0
:10339000806D050A135919000D04E3127AFFE11438
:1033A000E39B54FDEFF0FFD42254B25092540259E3
:1033B000F249624AD24A424BB24B224C3725008036
:1033C0001305452745616FF07FBD23030400A30368
:1033D00004002304040075BFB250225492540259D1
:1033E000F249624AD24A424BB24B224C456182803A
:1033F000011122CC2EC606CE2A84EFF0BFF3B245CF
:1034000063100510938781D403CE070083CE170085
:1034100003CF27009387018503C8070083C81700DF
:1034200003C32700B72700801386473013058601A2
:1034300093874730938681D413870185937F140047
:10344000639B0F08238CC701A38CD701238DE70151
:103450008D070580E394A7FEB287937F14006383F2
:103460000F0823800701A3801701238167008D07C0
:103470000580E394A7FE03CE060083CE160003CF9B
:1034800026000348070083481700034327008D4F99
:10349000130700034145B307F703A146B29793F220
:1034A000150063880204238407FFA38417FF238584
:1034B00067FEFD1685818D07FDF26117E31DA7FCF0
:1034C000EFF03FC36244F2403725008013054527E3
:1034D00005616FF0BFAC238C0701A38C1701238D0E
:1034E0006700BDB72380C701A380D7012381E7010F
:1034F000BDBF2384C7FFA384D7FF2385E7FF55BF44
:10350000F240624405618280797156CA938751D432
:1035100052CC03CA070006D622D426D24AD04ECEB9
:103520005AC85EC662C466C26AC0630E0A00372407
:1035300000801307444283460700130444429DE27F
:1035400023800700014AB2502254528592540259F6
:10355000F249624AD24A424BB24B224C924C024D43
:103560004561828083CBB1D49389B1D4B30677010E
:1035700083C4060081E423000700D9B7EFF09FB0B1
:103580009387018503CE070083CE170003CF270062
:1035900037C80220B728008083C5C1D403C561D4D1
:1035A000938A51D41389C1D4138B61D41D4313085A
:1035B000889C938848308D4FE142914399406347FE
:1035C000A3063306F5038A04C29484408546B30CEF
:1035D000B54013DCC4013386C840B3875602B394A8
:1035E000B4002E87B29763C6E30263508703338D1E
:1035F000EC00634CA301139D740063580D00A38A73
:10360000C701238BD701A38BE70186040507F517B4
:10361000D9BF8506E39316FCB307BC40850B3E95E6
:10362000B307740183C407008145D1F8EFF07FAC84
:103630003725008013054527EFF05F9683470B0081
:1036400089CFFD172300FB0083471400E39D07EE9D
:103650002300040023800A00FDB503C70900B7C694
:1036600002209386869C3A94834704008A07B69783
:10367000944383470900F182850793F7F70F2300EE
:10368000F900E3C2D7EC05072380E9002300090015
:103690005DBD6FF07FE7797126D24AD09394150013
:1036A00037C9000822D44ECE52CC56CA06D62A8A32
:1036B00093E414000144B70903204509914A83A704
:1036C000090493F7F73F637AF40293172400CE9727
:1036D000E8439377F50F6390470321814A950A05E4
:1036E0002EC6EFE07F93B24599C511C5232455013D
:1036F00044CDA30AB5000504D9B7B2502254925460
:103700000259F249624AD24A45618280B70700FFF6
:10371000E98FA9CF011122CC06CE26CA4AC84EC6CF
:103720001D44636EB402954763EBC702AA843289D5
:10373000AE89EFF09F94B307344161460D44B387DF
:10374000870213D704013306C902B297AA97A38050
:10375000E70013D784002380E70023819700F2401D
:103760006244D2444249B24905618280828041115B
:1037700026C21545AE84994506C622C4EF003041E5
:103780009C4021472A848587A107B3E7E7021947B0
:10379000860793E717005CC1DC4023280500858776
:1037A0009907B3E7E702860793E717001CC593075D
:1037B000500B5CC5EFF0DF8A06051365150048C89D
:1037C00095450545EF00B03C40C1B24022449244CB
:1037D000410182809841014593773700D1EF14432E
:1037E00015463E85BD8A6399C608411122C44043EF
:1037F00006C626C24AC0137734002DEB1C409946FA
:103800003A8513F6F7006313D606D441858AB9CEFC
:103810009183914663FCF60499451545EF003037D6
:103820005C40AA845CC11C441CC55C445CC5032983
:103830000401014563040902994513050003EF00E3
:103840001035930749001307490C3309254190436C
:10385000B306F900910790C2E31BF7FE88C85C48E5
:1038600095450545DCC8EF00903244C1B240224482
:10387000924402494101828082809C4113F73700C3
:103880006312072A984395463D8B631DD7287971AB
:103890004ECE83A9470006D622D426D24AD052CC97
:1038A00093F73900D5EB03A7090099479376F70002
:1038B0006394F60ADC4193F61700D9CE1183914642
:1038C00063FCE608804503AA490185871377140045
:1038D00013591A4063030716058463EFF60637C7CA
:1038E00002208A071307C7CEBA979C438287130525
:1038F000840021443365850206051365150023A263
:10390000A900EFD09FA32A8403A589000DA09304EA
:1039100064001944B3E4840203A54900860493E4D7
:10392000140023A49900EFD05FA12A842685EFD04C
:10393000DFA0EF20814D2AC62285EF20014DAA8508
:1039400032464A85C5A8130580163364A4020604CE
:103950001364140023A68900B250225492540259D1
:10396000F249624A7D554561828083A4090193F73B
:1039700034008DEF9C401547BD8B639BE700C4402E
:1039800093F7340099E79C401947BD8B6393E70098
:1039900091EC994513050003EF00701FAA8495452B
:1039A0000545EF00D01E44C123A8A9009387440019
:1039B0001387440C854694C39107E39EE7FE9387E3
:1039C00004088545136A1A001D4609479316270007
:1039D00013751400BE9609CD23A046010507058482
:1039E000E316C7FE138707FEE38897F6BA87F1BF91
:1039F0008CC2EDB7B70700FF22043379F9002180AC
:103A0000336489009317140003A5490093E7170056
:103A100023AAF900EFD07F92AA8403A58900EFD0F2
:103A2000DF91EF20813E2AC62685EF20013E3246F7
:103A3000AA852285EFF09FCD05B71377340089461C
:103A4000631BD70A85461375C4FF638DD702638154
:103A5000E708E39307F0B7C7022083A587D137C4EF
:103A60000220EF10E177EF202151032604D28326B4
:103A700044D2EF30C157EF20C16E0905719913652B
:103A80002500B5BDB7C7022083A5479637C40220DD
:103A9000EF100175EF20414E032684D28326C4D255
:103AA000EF30E154EF20E16B13042500719803A57A
:103AB00049001364240023A48900EFD01F88AA843E
:103AC0002285EFD09F87EF2041342AC62685B5B5E1
:103AD000EF20814A37C40220032604D3832644D32F
:103AE000EF30E150EF20E16709057199136525007A
:103AF00023A6A90095B58D46E390D7E6E31E07E41B
:103B00001C401547BD8BE399E7E45C4013F7370091
:103B1000E31407E49C431947BD8BE39FE7E223A826
:103B200089001DBD7D5582809C41054513F73700F6
:103B300029EB984395463D8B6315D704D84393777B
:103B40003700A1E31443994713F6F600631BF6020E
:103B5000DC4113F6170015C6918211466373D60235
:103B600085878D4663E6F6008A07BA97C843828048
:103B70006399C700484BB7070002F9177D8D13659D
:103B8000150082809C4113F73700631F0718984384
:103B900095463D8B631AD7185D71A2C4C04386C693
:103BA000A6C2CAC04EDE52DC56DA5AD85ED662D4FD
:103BB00066D26AD06ECE93773400639707141C40A8
:103BC000194793F6F7006391E614C44113F7140004
:103BD00011E713F7340089466318D7129183114710
:103BE0006374F7124840EFD04FF5AA8B0844EFD02A
:103BF000CFF42A8B4844EFD04FF42A892685EFD0A2
:103C0000CFF3EF2061372A8A4A85AE8AEF20C1368A
:103C1000B7C7022003A607D083A647D0EFE0307FC6
:103C2000B7C7022003A687D083A6C7D0EFE03039FC
:103C3000B7C7022003A607D183A647D1EFE02048EB
:103C40002A8CAE8CEF201152B7C702202A86AE868E
:103C50005285D68503A907D283A947D2EFE0303633
:103C60002A8D5E85AE8DEF2021312A86AE866A854B
:103C7000EE85EFD0B0654A86CE86EFD030654A86B5
:103C8000CE86EF30C136EF20C14DAA84E68562852D
:103C9000EF207175B7C702202A86AE865285D68579
:103CA00003A987D283A9C7D2EFE070312A8A5A8547
:103CB000AE8AEF20612C2A86AE865285D685EFD05B
:103CC000F0604A86CE86EFD070604A86CE86EF30AE
:103CD0000132EF20014993872400F19B93E72700ED
:103CE0005CC093072500F19B93E727001CC4EF20DD
:103CF000C1112AC62685EF2041115C483246AA85AB
:103D000013D51740EFF09FA0B640264496440649CD
:103D1000F259625AD25A425BB25B225C925C025DFB
:103D2000F24D7D55616182807D5582809C4113F703
:103D300037004DE3984395463D8B631DD708797155
:103D400026D2C44306D622D44AD04ECE52CC93F7C4
:103D50003400A5EB9C40194793F6F7006393E60601
:103D600003A945001377190011E713773900894635
:103D70006319D70483A9850013F7190011E713F716
:103D800039008946631FD70291831147637BF7028D
:103D90004A852E84EFD06FDA2A8A4E85EFD0EFD98C
:103DA00023A224011C449CC4EF2021062AC652856C
:103DB000EF20A105DC483246AA8513D51740EFF065
:103DC000FF94B250225492540259F249624A7D55EE
:103DD000456182807D5582809C41011122CC06CEB6
:103DE00026CA4AC84EC652C456C213F73700C0414D
:103DF00019E7984395463D8B6313D700DC4313774F
:103E0000340019E7184095463D8B6313D7004040B6
:103E100013F73700854425EF984399461376F7004A
:103E20006317D6061183914663F3E60613773400D1
:103E300039EF18409375F700639BC504118363F84D
:103E4000E604C84313894700EFD02FCFAA8A032581
:103E50004900EFD08FCEAA894840EFD00FCE2A8AF2
:103E60000844EFD08FCD2A895685EF10117A2A8425
:103E70005285EF109179631CA4004E85EF10F17804
:103E80002A844A85EF1071786313A400FD54F24030
:103E9000624426854249D244B249224A924A056187
:103EA00082809C41011122CC06CE26CA4AC84EC649
:103EB00013F73700054439EB84431547BD886397F2
:103EC000E404DC4313F7370031E398439946137653
:103ED000F700631DD6021183914663F9E602C843D9
:103EE00093894700EFD06FC5EF1031722A8903A57F
:103EF0004900EFD08FC4EF1051716308090011C55C
:103F00009D476304F900631395007D542285F240B8
:103F10006244D2444249B249056182809C4113F710
:103F20003700631B071A984395463D8B6316D71AD3
:103F3000011126CAC44306CE22CC4AC84EC652C47A
:103F400056C293F73400A1E79C40994613F6F70058
:103F5000631FD602918385CFC840138A44009376AD
:103F60003500A1E21441BD8A639DE602EFF04F9354
:103F700001449C4091836379F40093152400D29509
:103F80000545693F0504F5B70145EFF0CFA6F240BE
:103F90006244D2444249B249224A924A01450561EB
:103FA00082801147E375F7FE0324CA007DC0937732
:103FB0003400F1FF1C401547BD8BE39AE7FC4040FD
:103FC00093773400E9F71C40194793F6F700E39024
:103FD000E6FC9183130700030149E39AE7FAEFD067
:103FE000CFB5EF109162AA8903254A0083AA440144
:103FF000EFD0AFB4EF107161AA84EFF0CF8993874F
:10400000D9FF138E590063D807080D48330838418B
:1040100001479D46A14E63D5C601B38EFE40214E99
:104020009386E4FF138F440063DA06068947858F81
:1040300081451546994F6355E601B38FDF40194F0F
:104040009396570036948D46B306D702B708000101
:1040500093D21A40E1433303074189448D49FD1847
:10406000158DE3D6E5F3E3D4F7F333877502428683
:10407000130A44002A97B306C30063DAC6056358DF
:10408000D6056300090263919704631F3603968681
:1040900031A80549A9B73E870148A5BFB685814724
:1040A00049BF93162600D29694428586B3FA16012C
:1040B000638C0A0093DA0601230B570193DA86001A
:1040C000A30A5701A30BD700050675176DB7850521
:1040D00085071304040271B701458280411106C6A9
:1040E000EFE0DFC3B2401375F50F4101828083A773
:1040F00001D523A00700B72700809387874813873F
:10410000470623A007009107E39DE7FE8280B737AB
:1041100000804111938707FF06C623A8F1D4EFF072
:104120001FFDB24005454101828011679306F5FFEE
:104130009307E7FF63EDD70A03A601D5BD8993175F
:104140004500C168DD8D13081500B2871305F7FF20
:10415000FD18D1CF944313D70601B3F61601698F2A
:10416000B9EEB7F6008037350080130505FF93865A
:104170000600898EF19AE1163696B706008093C63E
:10418000F6FF758EFD8E158E91463346D60201459B
:104190007D16635FC804420819E723A00701CCC35A
:1041A000138547008280130517004207498F0E05CB
:1041B0003E9598C3232005014CC1110582803383AD
:1041C000E6407D1363526802420809E7B3E6060140
:1041D00094C3F1B7130617004207518F98C3131702
:1041E0003600BA97918EDDB78E06B6979DB701451A
:1041F000828083A701D5C16671150146FD169843DB
:10420000758F19C76388A7000E073E86BA97C5BF8A
:104210006396A70009E698C323A2070082800C4298
:1042200093960501C1823697B706FF3FF58D4D8FF6
:1042300018C2DDB703A601D537370080B7F7008075
:1042400093870700130707FF998F898341118E0712
:1042500022C406C62A8426C24AC0B297B705008087
:10426000154525C4137734002DE31307C4FF636E8F
:10427000C70463ECE7048326C4FF1840CD8E232EC9
:10428000D4FE9376F7006394A6004040D9BF9947C7
:10429000639EF600935447000149638824039317F3
:1042A0002900A297C84305097137C5BF9D47639E82
:1042B000F6009354470001496389240193172900AC
:1042C000A297C8430509BD37C5BFB24022449244F6
:1042D000024941018280011126CAB7060080416669
:1042E00003A701D506CE22CC4AC84EC652C456C238
:1042F000938401D593C6F6FF7D161C43B3F5D70012
:104300000CC3F18F81C78E073E97C5BF372400804D
:10431000130484481309440608401104EFF09FF188
:10432000E31C24FF37240080130444C7130A0452FB
:10433000930A20021C4899CFA28901491C44637B3F
:10434000F90091096308590103A589010509EFF0F6
:104350007FEEEDB71304440AE31E44FD804041693B
:104360007D191C40B3F4270163C607001305440000
:10437000EFF03FE881C48E042694E5B7F240624432
:10438000D2444249B249224A924A0561828041118F
:1043900022C426C206C62A84AE84EFF01FD901EDDE
:1043A00019C8EFF05FF322852244B240A6859244FB
:1043B00041016FF09FD7B240224492444101828074
:1043C000411183A701D526C2AA842E85C16506C6E0
:1043D00022C41388C4FFFD159043B376B60099C676
:1043E000638F070113973600BA97FDB763890701FA
:1043F00001442285B2402244924441018280CC4350
:104400000A0613184500BD89130715004982336851
:10441000B8006315C70013844700E1BF6378C70085
:104420004207558F98C323A20701F5B71386F6FFFD
:10443000E378E6FEEFF0BFF52A845DD994409387D8
:10444000440001479182058D3386A7006307D7009A
:104450008C43050791070CC2C5BF2685EFF07FD9B5
:1044600049BF411106C622C426C2AA84EF60301893
:1044700013041500110591450981EFF05FF1130751
:1044800045008147B386F40003C60600B306F70073
:1044900085072380C600E3E787FE229723000700F5
:1044A000B2402244924441018280011122CC26CAAA
:1044B0002EC606CEAA84EF609013B24513041500F1
:1044C0006364B50013841500130534000981914518
:1044D0000505EFF0DFEB130745008147B386F400D5
:1044E00003C60600B306F70085072380C600E397DE
:1044F00087FEBA9723800700F2406244D2440561E8
:1045000082808841411106C60585EF1030548547E9
:1045100011C1FD57B2403E85410182808841411161
:1045200006C60585EF109053854711C1FD57B2406F
:104530003E8541018280411106C6EFE08FFEB24008
:1045400006051365150041018280411106C6EFE0A2
:10455000AFFDB2400605136515004101828041118F
:1045600006C6EFE0CFFCB240060513651500410119
:10457000828001112EC606CEEFE0CFFBB2459C41F2
:10458000858799E7060513651500F240056182806D
:10459000E98F0545FDDB7D55CDBF411106C6EFE036
:1045A000CFF9B24006051365150041018280411123
:1045B00006C6EFE06FFAB24006051365150041012B
:1045C0008280411106C6EFE00FFBB240060513657D
:1045D0001500410182809C4113F717001DC3411152
:1045E000858706C6FD1705476368F700EFE0BF9AA9
:1045F000B2407D5541018280EFE0CFF9EFE03F9975
:10460000C5BF7D558280411106C6EFF03FADB24077
:1046100006051365150041018280411106C6792007
:10462000B24006051365150041018280411106C69E
:104630004920B240060513651500410182804111F1
:104640000146930560081305200506C6EF10B077F4
:10465000930700FA631BF500B24005469305000876
:104660001305200541016F10307BB240410182806B
:10467000011174001146930580081305200506CE2C
:10468000EF1090750DE18347D1000347C100A207E9
:10469000D98F239BF1D48347F1000347E100A207A0
:1046A000D98F239AF1D4F2400561828003D541D598
:1046B000828003D561D58280137735008946AA8729
:1046C000631AD7004111719906C6EF100174B24008
:1046D000410182809376150099C20585828019EB8D
:1046E0001841914601453D8B6318D700138547005B
:1046F0006F6060360145828082809377150099C390
:10470000058582801547238CE1D40145828013778B
:10471000350089476314F70071998280411106C6FC
:1047200093761500AA8799C60585EF104179B240A6
:1047300041018280130500007DFB984391463D8B2B
:10474000E317D7FE13854700EF608030EF1071212B
:10475000F9BFAA850D456FE01FF45D71A6C283C73E
:1047600081D55AD886C6A2C4CAC04EDE52DC56DAFB
:104770005ED662D466D26AD06ECE2A8B85E358416B
:104780001C4113062003938481D5BA9798439376EE
:10479000F70F6376D60289472380F4002644B6409B
:1047A00096440649F259625AD25AB25B225C925C34
:1047B000025DF24D5A85425B61616FD09F8CB7C933
:1047C0000220138689D38A060045032AC500B296C3
:1047D000B7BC022094421309C501B70B0040138DEA
:1047E0004700372C008093874C624A94938CFBFFE0
:1047F0004A9A2187938989D3930A80083EC4F51B7E
:10480000130C8C48828603270B0033042441232495
:104810008B00B640264433092A41B307ED402326D6
:104820002B012322FB0096440649F259625AD25AC0
:10483000425BB25B225C925C025DF24D6161828000
:1048400003C7040021FF83270D00930620031306EE
:104850004D0013D7874093F7F70FE3EEF6F28A0780
:10486000CE979443328D79BF13064400B306264198
:1048700063D4DA008D470DB706071367170018C019
:1048800003C7040001FF83270D009306200393054F
:104890004D0013D7874093F7F70FE3EEF6EE8A0744
:1048A000CE97944332842E8DB1BF13064400330754
:1048B0002641E3C1EAFC03270D0018C003C704002A
:1048C000E31E07EC83274D009306200393058D001C
:1048D00013D7874093F7F70FE3EFF6EA8A07CE97EF
:1048E000944332842E8D39BF050771553307A702D3
:1048F000229763742701914745B513064400B30618
:1049000026411843E3C8DAF618C003C70400E317CA
:1049100007E883270D009306200393054D0013D766
:10492000874093F7F70FE3E8F6E68A07CE979443BC
:1049300032842E8DC1BD13064400B3062641E3CB5D
:10494000DAF20A076A9718C003C70400E31807E4FD
:1049500083270D009306200393054D0013D787404E
:1049600093F7F70FE3E9F6E28A07CE979443328490
:104970002E8D49BD13064400B3062641E3CCDAEE82
:104980000A076297184318C003C70400E31807E03A
:1049900083270D009306200393054D0013D787400E
:1049A00093F7F70FE3E9F6DE8A07CE979443328454
:1049B0002E8D89BDE30189F48326C4FF0A0762971F
:1049C00014C303C704009305C4FFE31907DC83275E
:1049D0000D009306200313064D0013D7874093F76D
:1049E000F70FE3EAF6DA8A07CE9794432E84328DE6
:1049F00011BD0A07198CE36024F103C70400E31F0B
:104A000007D883270D009306200313064D0013D704
:104A1000874093F7F70FE3E0F6D88A07CE979443E1
:104A2000328DCDB313064400B3062641E3C4DAE465
:104A30000A075297184318C003C70400E31007D6AB
:104A400083270D009306200393054D0013D787405D
:104A500093F7F70FE3E1F6D48A07CE9794433284B5
:104A60002E8D4DB3E30989E88326C4FF0A075297C8
:104A700014C303C704009305C4FFE31107D28327BF
:104A80000D009306200313064D0013D7874093F7BC
:104A9000F70FE3E2F6D08A07CE9794432E84328D47
:104AA00095B313064400B3062641E3C5DADC83263A
:104AB0004AFF5E978586B386960336970A07529714
:104AC000184318C003C70400E31A07CC83270D005E
:104AD0009306200393054D0013D7874093F7F70FF4
:104AE000E3EBF6CA8A07CE97944332842E8D19BB26
:104AF000E30389E083264AFF5E970326C4FFB3865B
:104B000096039305C4FF36970A07529710C303C74D
:104B10000400E31507C883270D009306200313063E
:104B20004D0013D7874093F7F70FE3E6F6C68A07E1
:104B3000CE9794432E84328DF1B10325C4FF3AC23F
:104B4000EFF09FB712473A95060513651500232E1F
:104B5000A4FE03C70400E31307C483270D009306D4
:104B6000200313064D0013D7874093F7F70FE3E4B4
:104B7000F6C28A07CE979443328D69B183C7040089
:104B80000A076A97E39C07C01443130D47001306F6
:104B9000200313D7864093F6F60FE36ED6BE8A063F
:104BA000CE96944285B18326C4FF9305C4FF8586C3
:104BB00099C20A073A9D03C70400E31107BE832781
:104BC0000D009306200313064D0013D7874093F77B
:104BD000F70FE3E2F6BC8A07CE9794432E84328D1A
:104BE00015B18326C4FF9305C4FF858699E20A07A1
:104BF0003A9D03C70400E31307BA83270D00930609
:104C0000200313064D0013D7874093F7F70FE3E413
:104C1000F6B88A07CE9794432E84328DE5B61306F4
:104C20008400B3062641E3C7DAC42320A40183C766
:104C30000400A2860A0723A2460132846A97E39FF2
:104C400007B41443130D47001306200313D78640FF
:104C500093F6F60FE361D6B48A06CE969442228A82
:104C600055B693162700A296B3862641E3C4DAC050
:104C7000FD567D176306D700232004001104D5BF1D
:104C800003C70400E31C07B083270D00930620032D
:104C900013064D0013D7874093F7F70FE3EDF6AEF9
:104CA0008A07CE979443328DB1BEE30689C4832729
:104CB0004AFF715513078AFF85878507B387A702C7
:104CC0008325C4FF0326CAFF83268AFFBA9713846D
:104CD000470033072441E3CFEAB88CC383C70400FD
:104CE000E39E07AA138D460094429305200313D731
:104CF000864093F6F60FE3E0D5AA8A06CE96944254
:104D0000328A09B6E30989BE8325C4FF930DC4FF27
:104D1000032584FF13F7150009CB1377150011C77E
:104D20007D57634DB502054715A813F735000946B1
:104D30006306C70093763500639AC6042EC6EFF06B
:104D40001F9DB2452AC22E85EFF07F9C1247AA858F
:104D50003A85EF00512C7D57E35705FC232CE4FEE8
:104D600003C70400E31C07A283270D00930620035A
:104D700013064D0013D7874093F7F70FE3EDF6A026
:104D80008A07CE9794436E84328DADBC49FF98411B
:104D900011463D8BE319C7F8D9F61441BD8AE39457
:104DA000E6F891051105EF50907175B7E30589B4E8
:104DB0008325C4FF930DC4FF032584FF13F715005B
:104DC00009CB1377150011C77D5763DDA502054791
:104DD00015A813F7350009466306C700937635001A
:104DE000639AC6042EC6EFF09F92B2452AC22E8562
:104DF000EFF0FF911247AA853A85EF00D1217D5748
:104E0000E347A0FC232CE4FE03C70400E318079843
:104E100083270D009306200313064D0013D7874008
:104E200093F7F70FE3E9F6968A07CE9794436E84DB
:104E3000328DC9BA49FF984111463D8BE319C7F835
:104E4000D9F61441BD8AE394E6F891051105EF50B7
:104E5000106775B7E30189AA8325C4FF930DC4FFCA
:104E6000032584FF13F715001DCF1377150005CF19
:104E70007D576392A506232CE4FE03C70400E31FBD
:104E8000079083270D009306200313064D0013D7C8
:104E9000874093F7F70FE3E0F6908A07CE979443A5
:104EA0006E84328D85B213F7350009466306C7005C
:104EB000937635006393C6022EC6EFF05F85B24548
:104EC0002AC22E85EFF0BF841247AA853A85EF00EB
:104ED000F1067D574DD1054779BF05E3984111464D
:104EE0003D8B631CC70091EA1441BD8A6397E600BD
:104EF00091051105EF50B05CE9BF33E7A5000D8BBC
:104F000079FB98411441358F3D8B71F795B7E304D8
:104F1000899E8325C4FF930DC4FF032584FF13F7E7
:104F2000150009CB1377150011C77D57639CA502A7
:104F300005470DA813F7350009466306C7009376A9
:104F400035006399C6042EC6EFF06FFCB2452AC245
:104F50002E85EFF0CFFB1247AA853A85EF00017E40
:104F60007D5779D5232CE4FE03C70400E31807829C
:104F700083270D009306200313064D0013D78740A7
:104F800093F7F70FE3E9F6808A07CE9794436E8490
:104F9000328D8DB805E3984111463D8B631CC700E7
:104FA00091EA1441BD8A6397E60091051105EF501F
:104FB00010517DB733E7A5000D8B3DFB984114419F
:104FC000358F3D8B35F70547E38EA5F87D5759BFE3
:104FD000E30389928325C4FF930DC4FF032584FF57
:104FE00013F7150009CB1377150011C77D5763CD53
:104FF000A502054715A813F7350009466306C70043
:1050000093763500639BC6042EC6EFF04FF0B24591
:105010002AC22E85EFF0AFEF1247AA853A85EF003E
:1050200041777D57E357A0FC232CE4FE03C704001F
:10503000631607F683270D009306200313064D0021
:1050400013D7874093F7F70F63E7F6F48A07CE97F5
:1050500094436E84328D6FF0EFFA41FF9841114610
:105060003D8BE318C7F8D1F61441BD8AE393E6F807
:1050700091051105EF50B0446DB7E30E8986832585
:10508000C4FF930DC4FF032584FF13F7150009CB5C
:105090001377150011C77D57635DB502054715A845
:1050A00013F7350009466306C70093763500639B06
:1050B000C6042EC6EFF0AFE5B2452AC22E85EFF04A
:1050C0000FE51247AA853A85EF00A16C7D57E347AB
:1050D00005FC232CE4FE03C70400631107EC8327BF
:1050E0000D009306200313064D0013D7874093F756
:1050F000F70F63E2F6EA8A07CE9794436E84328D07
:105100006FF04FF041FF984111463D8BE318C7F80F
:10511000D1F61441BD8AE393E6F891051105EF50ED
:10512000103A6DB70325C4FFEFF00FD90D4711C139
:105130000547232EE4FE03C70400631107E6832717
:105140000D009306200313064D0013D7874093F7F5
:10515000F70F63E2F6E48A07CE979443328D6FF03F
:105160006FEA630A89F88326C4FF032584FF930D41
:10517000C4FF36C2EFF04FD40147924611C53685C1
:10518000EFF08FD33337A000060713671700232CE7
:10519000E4FE03C70400631307E083270D009306B2
:1051A000200313064D0013D7874093F7F70F63E4EE
:1051B000F6DE8A07CE9794436E84328D6FF08FE4CB
:1051C000630B89F28326C4FF032584FF930DC4FF7C
:1051D00036C2EFF06FCE0547924611E53685EFF007
:1051E000AFCD3337A000060713671700232CE4FE6A
:1051F00003C70400631407DA83270D009306200316
:1052000013064D0013D7874093F7F70F63E5F6D8E1
:105210008A07CE9794436E84328D6FF0AFDE0325FC
:10522000C4FFEFF06FC91345F5FF060513651500C0
:10523000232EA4FE03C70400631207D683270D00A4
:105240009306200313064D0013D7874093F7F70FFB
:1052500063E3F6D48A07CE979443328D6FF08FDAEA
:10526000630B89E80327C4FF032584FF9305C4FF6C
:105270002EC63AC2EFF04FC41247AA8D3A85EFF01E
:10528000AFC333F5AD00060513651500232CA4FE4E
:1052900003C70400631407D083270D00930620037F
:1052A00013064D0013D7874093F7F70F63E5F6CE4B
:1052B000B2458A07CE9794432E84328D6FF08FD4F7
:1052C000630B89E20327C4FF032584FF9305C4FF12
:1052D0002EC63AC2EFF04FBE1247AA8D3A85EFF0C4
:1052E000AFBD33E5AD00060513651500232CA4FE04
:1052F00003C70400631407CA83270D009306200325
:1053000013064D0013D7874093F7F70F63E5F6C8F0
:10531000B2458A07CE9794432E84328D6FF08FCE9C
:10532000630B89DC0327C4FF032584FF9305C4FFB7
:105330002EC63AC2EFF04FB81247AA8D3A85EFF069
:10534000AFB733F5AD00060513651500232CA4FE99
:1053500003C70400631407C483270D0093062003CA
:1053600013064D0013D7874093F7F70F63E5F6C296
:10537000B2458A07CE9794432E84328D6FF08FC842
:10538000630B89D60327C4FF032584FF9305C4FF5D
:105390002EC63AC2EFF04FB21247AA8D3A85EFF00F
:1053A000AFB13395AD00060513651500232CA4FE9F
:1053B00003C70400631407BE83270D009306200370
:1053C00013064D0013D7874093F7F70F63E5F6BC3C
:1053D000B2458A07CE9794432E84328D6FF08FC2E8
:1053E000630B89D00327C4FF032584FF9305C4FF03
:1053F0002EC63AC2EFF04FAC1247AA8D3A85EFF0B5
:10540000AFAB33D5AD00060513651500232CA4FE04
:1054100003C70400631407B883270D009306200315
:1054200013064D0013D7874093F7F70F63E5F6B6E1
:10543000B2458A07CE9794432E84328D6FF08FBC8D
:10544000630B89CA832DC4FF9307C4FF3EC213F7C1
:105450001D00032584FF21CB1377150029C7EFF02A
:10546000CFA92AC66E85EFF04FA932473A950605B7
:1054700013651500232CA4FE03C70400631007B2B4
:1054800083270D009306200313064D0013D7874092
:1054900093F7F70F63E1F6B08A07CE97944312446F
:1054A000328D6FF02FB6EFF08FA62AC66E85EFF023
:1054B0000FA63247AA853A85EFF0905209057199F7
:1054C0001365250045BF630889C2832DC4FF930778
:1054D000C4FF3EC213F71D00032584FF29CB1377B9
:1054E000150031C7EFF06FA12AC66E85EFF0EFA06F
:1054F00032473305A740060513651500232CA4FE8B
:1055000003C70400631C07A883270D00930620032C
:1055100013064D0013D7874093F7F70F63EDF6A6F8
:105520008A07CE9794431244328D6FF0AFADEFF0FF
:105530000F9E2AC66E85EFF08F9D3247AA853A8569
:10554000EF00A157090571991365250045BF630454
:1055500089BA832DC4FF9307C4FF3EC213F71D0011
:10556000032584FF29CB1377150031C7EFF0EF989F
:105570002AC66E85EFF06F9832473305A7020605FD
:1055800013651500232CA4FE03C70400631807A0AD
:1055900083270D009306200313064D0013D7874081
:1055A00093F7F70F63E9F69E8A07CE979443124468
:1055B000328D6FF02FA5EFF08F952AC66E85EFF034
:1055C0000F953247AA853A85EF00212D090571997B
:1055D0001365250045BF630089B2832DC4FF93077F
:1055E000C4FF3EC213F71D00032584FF29CB1377A8
:1055F000150031C7EFF06F902AC66E85EFF0EF8F80
:1056000032473345A702060513651500232CA4FE77
:1056100003C704006314079883270D009306200333
:1056200013064D0013D7874093F7F70F63E5F696FF
:105630008A07CE9794431244328D6FF0AF9CEFF0FF
:105640000F8D2AC66E85EFF08F8C3247AA853A857A
:10565000EFF0F069090571991365250045BF630CEA
:1056600089A8832DC4FF9307C4FF3EC213F71D0012
:10567000032584FF39CB1377150021CBEFF0EF879B
:105680002AC66E85EFF06F8732473365A70206059D
:1056900013651500232CA4FE03C7040063100790B4
:1056A00083270D009306200313064D0013D7874070
:1056B00093F7F70F63F4F6006FF0EF8D8A07CE973C
:1056C00094431244328D6FF0EF93EFF04F842AC66B
:1056D0006E85EFF0CF833247AA853A85EF1031050A
:1056E000090571991365250075B70325C4FF137764
:1056F000150039C3EFF06F803305A0400605136530
:105700001500232EA4FE03C7040019C36FF00F89F0
:1057100083270D009306200313064D0013D78740FF
:1057200093F7F70F63F4F6006FF0EF868A07CE97D2
:105730009443328D6FF00F8DEFE07FFD37070080CF
:10574000298F0907719B13672700232EE4FE65BF8D
:105750006303899A0325C4FF0585931D250033043F
:10576000B441930DC4FF63E82D999306300863EFAD
:10577000E602A2470A07EE853E97184313844D00C0
:1057800002973307244163D4EA006FF0AF8E0327FA
:105790000B0123A0AD0089461306F7FF63E4C600A2
:1057A0006FF06F8619E36FE07FFFA28D03C70400DF
:1057B00019C36FE0BFFE83270D0093062003130675
:1057C0004D0013D7874093F7F70F63F4F6006FE0AF
:1057D0009FFC8A07CE9794436E84328D6FF08F8240
:1057E000930D84FF63E92D91032584FFEFE0DFEC47
:1057F0002AC20325C4FFEFE03FEC12479315850151
:10580000E1851375F70FEF00B03D03C7040019C31E
:105810006FE0DFF883270D009306200313064D0089
:1058200013D7874093F7F70F63F4F6006FE0BFF6E6
:105830008A07CE9794436E84328D6FE0BFFC1307C6
:10584000C4FF637427016FF00F8B0325C4FFEFE0E3
:10585000BFE61375F50FEF00B0330605330724419B
:105860001365150063D4EA006FF0CF80232EA4FEE9
:1058700003C7040019C36FE07FF283270D0093066E
:10588000200313064D0013D7874093F7F70F63F4F7
:10589000F6006FE05FF08A07CE979443328D6FE099
:1058A0007FF6930D84FF63F42D016FF0CF84032501
:1058B00084FFEFE07FE02AC20325C4FFEFE0DFDFD3
:1058C00012479375F50F1375F70FEF00502703C7B5
:1058D000040019C36FE09FEC83270D00930620039B
:1058E00013064D0013D7874093F7F70F63F4F600C4
:1058F0006FE07FEA8A07CE9794436E84328D6FE023
:105900007FF01307C4FF637427016FE0DFFE0325F8
:10591000C4FFEFE07FDA1375F50FEF0030160605D0
:10592000330724411365150063D4EA006FE09FF448
:10593000232EA4FE03C7040019C36FE03FE68327AC
:105940000D009306200313064D0013D7874093F7ED
:10595000F70F63F4F6006FE01FE48A07CE979443D5
:10596000328D6FE03FEA930D44FF63F42D016FE049
:105970009FF8032544FFEFE03FD42AC6032584FFA8
:10598000EFE09FD32AC20325C4FFEFE0FFD23247E6
:1059900092451316850161861375F70F93F5F50F80
:1059A000EF00904703C7040019C36FE03FDF832770
:1059B0000D009306200313064D0013D7874093F77D
:1059C000F70F63F4F6006FE01FDD8A07CE9794436C
:1059D0006E84328D6FE01FE3130784FF6374270129
:1059E0006FE07FF1032584FFA28D7114EFE0DFCC1F
:1059F0002AC20840EFE05FCC12479375F50F0146CD
:105A00001375F70FEF00303C06053307244113658B
:105A1000150063D4EA006FE0FFE523ACADFE03C7D9
:105A2000040019C36FE09FD783270D00930620035E
:105A300013064D0013D7874093F7F70F63F4F60072
:105A40006FE07FD58A07CE979443328D6FE09FDB5E
:105A5000930DC4FF63F42D016FE0FFE90325C4FF3C
:105A6000EFE09FC562056185EF00503B03C704006E
:105A700019C36FE0BFD283270D00930620031306DE
:105A80004D0013D7874093F7F70F63F4F6006FE0EC
:105A90009FD08A07CE9794436E84328D6FE09FD655
:105AA0001307C4FF637427016FE0FFE4EF00303792
:105AB0000605330724411365150063D4EA006FE03F
:105AC0007FDB232EA4FE03C7040019C36FE01FCDA4
:105AD00083270D009306200313064D0013D787403C
:105AE00093F7F70F63F4F6006FE0FFCA8A07CE97CB
:105AF0009443328D6FE01FD15D71A6C2CAC04EDEE5
:105B000052DCB7280080B7290080372A008086C67B
:105B1000A2C456DA5AD85ED662D466D26AD0238E30
:105B200001D423A201D62386095223060A566ECE3B
